{
  "address": "0x71917a3E36ca5b15ee5Db2A3E3862fadd5DadD46",
  "abi": [
    {
      "inputs": [
        {
          "internalType": "uint64",
          "name": "_clientId",
          "type": "uint64"
        },
        {
          "internalType": "uint256",
          "name": "_newAllocation",
          "type": "uint256"
        }
      ],
      "name": "allocateSubsidyToClient",
      "outputs": [],
      "stateMutability": "nonpayable",
      "type": "function"
    },
    {
      "inputs": [
        {
          "internalType": "uint64",
          "name": "",
          "type": "uint64"
        }
      ],
      "name": "allocationRequests",
      "outputs": [
        {
          "internalType": "uint256",
          "name": "allocationLimit",
          "type": "uint256"
        },
        {
          "internalType": "uint256",
          "name": "dailyAllocation",
          "type": "uint256"
        },
        {
          "internalType": "uint256",
          "name": "oneTimeAllocation",
          "type": "uint256"
        }
      ],
      "stateMutability": "view",
      "type": "function"
    },
    {
      "inputs": [
        {
          "internalType": "uint64",
          "name": "",
          "type": "uint64"
        }
      ],
      "name": "allocations",
      "outputs": [
        {
          "internalType": "uint256",
          "name": "allocation",
          "type": "uint256"
        },
        {
          "internalType": "uint256",
          "name": "allocationLimit",
          "type": "uint256"
        },
        {
          "internalType": "uint256",
          "name": "dailyAllocation",
          "type": "uint256"
        }
      ],
      "stateMutability": "view",
      "type": "function"
    },
    {
      "inputs": [
        {
          "internalType": "uint64",
          "name": "_clientId",
          "type": "uint64"
        }
      ],
      "name": "blacklist",
      "outputs": [],
      "stateMutability": "nonpayable",
      "type": "function"
    },
    {
      "inputs": [
        {
          "internalType": "address",
          "name": "",
          "type": "address"
        }
      ],
      "name": "clientAddressToId",
      "outputs": [
        {
          "internalType": "uint64",
          "name": "",
          "type": "uint64"
        }
      ],
      "stateMutability": "view",
      "type": "function"
    },
    {
      "inputs": [
        {
          "internalType": "uint64",
          "name": "",
          "type": "uint64"
        }
      ],
      "name": "clients",
      "outputs": [
        {
          "internalType": "bool",
          "name": "verified",
          "type": "bool"
        },
        {
          "internalType": "string",
          "name": "verificationFormCID",
          "type": "string"
        },
        {
          "internalType": "bool",
          "name": "blacklisted",
          "type": "bool"
        },
        {
          "internalType": "address",
          "name": "ethAddress",
          "type": "address"
        },
        {
          "internalType": "string",
          "name": "name",
          "type": "string"
        }
      ],
      "stateMutability": "view",
      "type": "function"
    },
    {
      "inputs": [
        {
          "internalType": "uint256",
          "name": "",
          "type": "uint256"
        }
      ],
      "name": "clientsList",
      "outputs": [
        {
          "internalType": "uint64",
          "name": "",
          "type": "uint64"
        }
      ],
      "stateMutability": "view",
      "type": "function"
    },
    {
      "inputs": [],
      "name": "getAllClients",
      "outputs": [
        {
          "components": [
            {
              "internalType": "bool",
              "name": "verified",
              "type": "bool"
            },
            {
              "internalType": "string",
              "name": "verificationFormCID",
              "type": "string"
            },
            {
              "internalType": "bool",
              "name": "blacklisted",
              "type": "bool"
            },
            {
              "internalType": "address",
              "name": "ethAddress",
              "type": "address"
            },
            {
              "internalType": "string",
              "name": "name",
              "type": "string"
            }
          ],
          "internalType": "struct ClientTypes.Client[]",
          "name": "",
          "type": "tuple[]"
        }
      ],
      "stateMutability": "view",
      "type": "function"
    },
    {
      "inputs": [
        {
          "internalType": "address",
          "name": "_clientAddress",
          "type": "address"
        }
      ],
      "name": "getClientByAddress",
      "outputs": [
        {
          "components": [
            {
              "internalType": "bool",
              "name": "verified",
              "type": "bool"
            },
            {
              "internalType": "string",
              "name": "verificationFormCID",
              "type": "string"
            },
            {
              "internalType": "bool",
              "name": "blacklisted",
              "type": "bool"
            },
            {
              "internalType": "address",
              "name": "ethAddress",
              "type": "address"
            },
            {
              "internalType": "string",
              "name": "name",
              "type": "string"
            }
          ],
          "internalType": "struct ClientTypes.Client",
          "name": "",
          "type": "tuple"
        }
      ],
      "stateMutability": "view",
      "type": "function"
    },
    {
      "inputs": [
        {
          "internalType": "uint64",
          "name": "_clientId",
          "type": "uint64"
        }
      ],
      "name": "getEthAddress",
      "outputs": [
        {
          "internalType": "address",
          "name": "",
          "type": "address"
        }
      ],
      "stateMutability": "view",
      "type": "function"
    },
    {
      "inputs": [],
      "name": "getWhitelistedClients",
      "outputs": [
        {
          "internalType": "uint64[]",
          "name": "",
          "type": "uint64[]"
        }
      ],
      "stateMutability": "view",
      "type": "function"
    },
    {
      "inputs": [
        {
          "internalType": "address",
          "name": "_clientAddress",
          "type": "address"
        }
      ],
      "name": "isAddressWhitelisted",
      "outputs": [
        {
          "internalType": "bool",
          "name": "",
          "type": "bool"
        }
      ],
      "stateMutability": "view",
      "type": "function"
    },
    {
      "inputs": [
        {
          "internalType": "address",
          "name": "_clientAddress",
          "type": "address"
        }
      ],
      "name": "isClientAddressRegistered",
      "outputs": [
        {
          "internalType": "bool",
          "name": "",
          "type": "bool"
        }
      ],
      "stateMutability": "view",
      "type": "function"
    },
    {
      "inputs": [
        {
          "internalType": "uint64",
          "name": "_clientId",
          "type": "uint64"
        }
      ],
      "name": "isClientIdRegistered",
      "outputs": [
        {
          "internalType": "bool",
          "name": "",
          "type": "bool"
        }
      ],
      "stateMutability": "view",
      "type": "function"
    },
    {
      "inputs": [
        {
          "internalType": "uint64",
          "name": "_clientId",
          "type": "uint64"
        }
      ],
      "name": "isWhitelisted",
      "outputs": [
        {
          "internalType": "bool",
          "name": "",
          "type": "bool"
        }
      ],
      "stateMutability": "view",
      "type": "function"
    },
    {
      "inputs": [
        {
          "internalType": "address",
          "name": "",
          "type": "address"
        }
      ],
      "name": "pools",
      "outputs": [
        {
          "internalType": "bool",
          "name": "",
          "type": "bool"
        }
      ],
      "stateMutability": "view",
      "type": "function"
    },
    {
      "inputs": [
        {
          "internalType": "uint64",
          "name": "_clientId",
          "type": "uint64"
        },
        {
          "internalType": "string",
          "name": "name",
          "type": "string"
        }
      ],
      "name": "register",
      "outputs": [],
      "stateMutability": "nonpayable",
      "type": "function"
    },
    {
      "inputs": [
        {
          "internalType": "uint64",
          "name": "_clientId",
          "type": "uint64"
        }
      ],
      "name": "whitelist",
      "outputs": [],
      "stateMutability": "nonpayable",
      "type": "function"
    },
    {
      "inputs": [
        {
          "internalType": "uint64",
          "name": "",
          "type": "uint64"
        }
      ],
      "name": "whitelistedClients",
      "outputs": [
        {
          "internalType": "bool",
          "name": "",
          "type": "bool"
        }
      ],
      "stateMutability": "view",
      "type": "function"
    },
    {
      "inputs": [],
      "name": "whitelistedCount",
      "outputs": [
        {
          "internalType": "uint256",
          "name": "",
          "type": "uint256"
        }
      ],
      "stateMutability": "view",
      "type": "function"
    }
  ],
  "transactionHash": "0x4d5659018bda3a96e0a882f3fe5f4354ee2e19a4be494d77b86d84d0e74a9540",
  "args": [],
  "numDeployments": 5,
  "solcInputHash": "6954a44a9ca49b7d497aef834cc871f4",
  "bytecode": "0x608060405261271060085534801561001657600080fd5b50611581806100266000396000f3fe608060405234801561001057600080fd5b506004361061016c5760003560e01c80639e3fa06b116100cd578063ba5872a811610081578063d932532d11610066578063d932532d14610406578063e4d7a3d41461043b578063ec34d2221461045057600080fd5b8063ba5872a8146103de578063c1caf6f1146103f157600080fd5b8063b2a1de22116100b2578063b2a1de2214610395578063b572a966146103ab578063b63999e6146103be57600080fd5b80639e3fa06b14610348578063a4063dbc1461037257600080fd5b806369ee19b21161012457806378741aea1161010957806378741aea146102b9578063853d941d146102f657806390038baf1461032457600080fd5b806369ee19b21461027657806374f7ad891461029957600080fd5b80632e54941e116101555780632e54941e14610211578063300da5fa1461024e57806368ec4adc1461026357600080fd5b806313f44d101461017157806325dcaf97146101c9575b600080fd5b6101b361017f366004610e18565b6001600160a01b031660009081526004602090815260408083205467ffffffffffffffff1683529082905290205460ff1690565b6040516101c09190610e4b565b60405180910390f35b6102046101d7366004610e74565b67ffffffffffffffff1660009081526020819052604090206002015461010090046001600160a01b031690565b6040516101c09190610e9e565b61023f61021f366004610e74565b600160208190526000918252604090912080549181015460029091015483565b6040516101c093929190610eb2565b61026161025c366004610fd5565b61047d565b005b610261610271366004610e74565b61055b565b6101b3610284366004610e74565b60056020526000908152604090205460ff1681565b6102ac6102a736600461103e565b6105d3565b6040516101c0919061106f565b6101b36102c7366004610e74565b67ffffffffffffffff1660009081526020819052604090206002015461010090046001600160a01b0316151590565b61023f610304366004610e74565b600260208190526000918252604090912080546001820154919092015483565b610337610332366004610e74565b610611565b6040516101c09594939291906110d3565b6102ac610356366004610e18565b60046020526000908152604090205467ffffffffffffffff1681565b6101b3610380366004610e18565b60036020526000908152604090205460ff1681565b61039e60075481565b6040516101c0919061112c565b6102616103b9366004610e74565b610764565b6103d16103cc366004610e18565b6107c3565b6040516101c091906111af565b6102616103ec3660046111c7565b610984565b6103f96109e9565b6040516101c09190611257565b6101b3610414366004610e18565b6001600160a01b031660009081526004602052604090205467ffffffffffffffff16151590565b610443610b50565b6040516101c091906112da565b6101b361045e366004610e74565b67ffffffffffffffff1660009081526020819052604090205460ff1690565b67ffffffffffffffff821660009081526020819052604090206002810180547fffffffffffffffffffffff0000000000000000000000000000000000000000ff163361010002179055600381016104d483826113cb565b50503360009081526004602081905260408220805467ffffffffffffffff95861667ffffffffffffffff1990911681179091556006805460018101825593529082047ff652222313e28459528d920b65115c16c04f3efc82aaedc97be59f3f377c0d3f01805460086003909416939093026101000a91820291909402199091161790915550565b67ffffffffffffffff8116600090815260208181526040808320805460ff19166001908117825592839052908320600854928101929092558282556007805491936105a5836114a5565b90915550505067ffffffffffffffff9091166000908152600560205260409020805460ff1916600117905550565b600681815481106105e357600080fd5b9060005260206000209060049182820401919006600802915054906101000a900467ffffffffffffffff1681565b6000602081905290815260409020805460018201805460ff909216929161063790611301565b80601f016020809104026020016040519081016040528092919081815260200182805461066390611301565b80156106b05780601f10610685576101008083540402835291602001916106b0565b820191906000526020600020905b81548152906001019060200180831161069357829003601f168201915b505050506002830154600384018054939460ff8316946101009093046001600160a01b03169350916106e190611301565b80601f016020809104026020016040519081016040528092919081815260200182805461070d90611301565b801561075a5780601f1061072f5761010080835404028352916020019161075a565b820191906000526020600020905b81548152906001019060200180831161073d57829003601f168201915b5050505050905085565b67ffffffffffffffff8116600090815260208190526040812060028101805460ff1916600117905560078054919261079b836114bf565b90915550505067ffffffffffffffff166000908152600560205260409020805460ff19169055565b6040805160a08101825260008082526060602083018190529282018190528282015260808101919091526001600160a01b03821660009081526004602090815260408083205467ffffffffffffffff16835282825291829020825160a08101909352805460ff1615158352600181018054919284019161084290611301565b80601f016020809104026020016040519081016040528092919081815260200182805461086e90611301565b80156108bb5780601f10610890576101008083540402835291602001916108bb565b820191906000526020600020905b81548152906001019060200180831161089e57829003601f168201915b5050509183525050600282015460ff81161515602083015261010090046001600160a01b031660408201526003820180546060909201916108fb90611301565b80601f016020809104026020016040519081016040528092919081815260200182805461092790611301565b80156109745780601f1061094957610100808354040283529160200191610974565b820191906000526020600020905b81548152906001019060200180831161095757829003601f168201915b5050505050815250509050919050565b67ffffffffffffffff821660009081526001602081905260409091209081015482106109e5576040517f08c379a00000000000000000000000000000000000000000000000000000000081526004016109dc906114d6565b60405180910390fd5b5550565b6060600060075467ffffffffffffffff811115610a0857610a08610eda565b604051908082528060200260200182016040528015610a31578160200160208202803683370190505b5090506000805b60065467ffffffffffffffff82161015610b48576005600060068367ffffffffffffffff1681548110610a6d57610a6d611511565b6000918252602080832060048304015460039092166008026101000a90910467ffffffffffffffff16835282019290925260400190205460ff1615610b365760068167ffffffffffffffff1681548110610ac957610ac9611511565b90600052602060002090600491828204019190066008029054906101000a900467ffffffffffffffff16838367ffffffffffffffff1681518110610b0f57610b0f611511565b67ffffffffffffffff9092166020928302919091019091015281610b3281611527565b9250505b80610b4081611527565b915050610a38565b509092915050565b60065460609060009067ffffffffffffffff811115610b7157610b71610eda565b604051908082528060200260200182016040528015610bcc57816020015b6040805160a0810182526000808252606060208301819052928201819052828201526080810191909152815260200190600190039081610b8f5790505b50905060005b60065467ffffffffffffffff82161015610ddd5760008060068367ffffffffffffffff1681548110610c0657610c06611511565b6000918252602080832060048304015460039092166008026101000a90910467ffffffffffffffff1683528281019390935260409182019020815160a08101909252805460ff16151582526001810180549293919291840191610c6890611301565b80601f0160208091040260200160405190810160405280929190818152602001828054610c9490611301565b8015610ce15780601f10610cb657610100808354040283529160200191610ce1565b820191906000526020600020905b815481529060010190602001808311610cc457829003601f168201915b5050509183525050600282015460ff81161515602083015261010090046001600160a01b03166040820152600382018054606090920191610d2190611301565b80601f0160208091040260200160405190810160405280929190818152602001828054610d4d90611301565b8015610d9a5780601f10610d6f57610100808354040283529160200191610d9a565b820191906000526020600020905b815481529060010190602001808311610d7d57829003601f168201915b505050505081525050828267ffffffffffffffff1681518110610dbf57610dbf611511565b60200260200101819052508080610dd590611527565b915050610bd2565b50919050565b60006001600160a01b0382165b92915050565b610dff81610de3565b8114610e0a57600080fd5b50565b8035610df081610df6565b600060208284031215610e2d57610e2d600080fd5b6000610e398484610e0d565b949350505050565b8015155b82525050565b60208101610df08284610e41565b67ffffffffffffffff8116610dff565b8035610df081610e59565b600060208284031215610e8957610e89600080fd5b6000610e398484610e69565b610e4581610de3565b60208101610df08284610e95565b80610e45565b60608101610ec08286610eac565b610ecd6020830185610eac565b610e396040830184610eac565b634e487b7160e01b600052604160045260246000fd5b601f19601f830116810181811067ffffffffffffffff82111715610f1657610f16610eda565b6040525050565b6000610f2860405190565b9050610f348282610ef0565b919050565b600067ffffffffffffffff821115610f5357610f53610eda565b601f19601f83011660200192915050565b82818337506000910152565b6000610f83610f7e84610f39565b610f1d565b905082815260208101848484011115610f9e57610f9e600080fd5b610fa9848285610f64565b509392505050565b600082601f830112610fc557610fc5600080fd5b8135610e39848260208601610f70565b60008060408385031215610feb57610feb600080fd5b6000610ff78585610e69565b925050602083013567ffffffffffffffff81111561101757611017600080fd5b61102385828601610fb1565b9150509250929050565b80610dff565b8035610df08161102d565b60006020828403121561105357611053600080fd5b6000610e398484611033565b67ffffffffffffffff8116610e45565b60208101610df0828461105f565b60005b83811015611098578181015183820152602001611080565b50506000910152565b60006110ab825190565b8084526020840193506110c281856020860161107d565b601f01601f19169290920192915050565b60a081016110e18288610e41565b81810360208301526110f381876110a1565b90506111026040830186610e41565b61110f6060830185610e95565b818103608083015261112181846110a1565b979650505050505050565b60208101610df08284610eac565b805160009060a084019061114e8582610e41565b506020830151848203602086015261116682826110a1565b915050604083015161117b6040860182610e41565b50606083015161118e6060860182610e95565b50608083015184820360808601526111a682826110a1565b95945050505050565b602080825281016111c0818461113a565b9392505050565b600080604083850312156111dd576111dd600080fd5b60006111e98585610e69565b925050602061102385828601611033565b6000611206838361105f565b505060200190565b6000611218825190565b80845260209384019383018060005b8381101561124c57815161123b88826111fa565b975060208301925050600101611227565b509495945050505050565b602080825281016111c0818461120e565b60006111c0838361113a565b600061127e825190565b808452602084019350836020820285016112988560200190565b8060005b858110156112cd57848403895281516112b58582611268565b94506020830160209a909a019992505060010161129c565b5091979650505050505050565b602080825281016111c08184611274565b634e487b7160e01b600052602260045260246000fd5b60028104600182168061131557607f821691505b602082108103610ddd57610ddd6112eb565b6000610df06113338381565b90565b61133f83611327565b815460001960089490940293841b1916921b91909117905550565b6000611367818484611336565b505050565b818110156113875761137f60008261135a565b60010161136c565b5050565b601f821115611367576000818152602090206020601f850104810160208510156113b25750805b6113c46020601f86010483018261136c565b5050505050565b815167ffffffffffffffff8111156113e5576113e5610eda565b6113ef8254611301565b6113fa82828561138b565b6020601f83116001811461142e57600084156114165750858201515b600019600886021c1981166002860217865550611487565b600085815260208120601f198616915b8281101561145e578885015182556020948501946001909201910161143e565b8683101561147a5784890151600019601f89166008021c191682555b6001600288020188555050505b505050505050565b634e487b7160e01b600052601160045260246000fd5b600060001982036114b8576114b861148f565b5060010190565b6000816114ce576114ce61148f565b506000190190565b60208082528101610df081601881527f616c6c6f636174696f6e2065786365656473206c696d69740000000000000000602082015260400190565b634e487b7160e01b600052603260045260246000fd5b67ffffffffffffffff16600067fffffffffffffffe1982016114b8576114b861148f56fea2646970667358221220f950cc0d69a8a0ae9cc8eaaf005b006fcf35023130229654b871b65ccefc0d1b64736f6c63430008140033",
  "devdoc": {
    "kind": "dev",
    "methods": {},
    "version": 1
  },
  "userdoc": {
    "kind": "user",
    "methods": {},
    "version": 1
  },
  "storageLayout": {
    "storage": [
      {
        "astId": 11616,
        "contract": "contracts/ClientRegistry.sol:ClientRegistry",
        "label": "clients",
        "offset": 0,
        "slot": "0",
        "type": "t_mapping(t_uint64,t_struct(Client)13656_storage)"
      },
      {
        "astId": 11621,
        "contract": "contracts/ClientRegistry.sol:ClientRegistry",
        "label": "allocations",
        "offset": 0,
        "slot": "1",
        "type": "t_mapping(t_uint64,t_struct(ClientAllocation)13663_storage)"
      },
      {
        "astId": 11626,
        "contract": "contracts/ClientRegistry.sol:ClientRegistry",
        "label": "allocationRequests",
        "offset": 0,
        "slot": "2",
        "type": "t_mapping(t_uint64,t_struct(AllocationRequest)13670_storage)"
      },
      {
        "astId": 11630,
        "contract": "contracts/ClientRegistry.sol:ClientRegistry",
        "label": "pools",
        "offset": 0,
        "slot": "3",
        "type": "t_mapping(t_address,t_bool)"
      },
      {
        "astId": 11634,
        "contract": "contracts/ClientRegistry.sol:ClientRegistry",
        "label": "clientAddressToId",
        "offset": 0,
        "slot": "4",
        "type": "t_mapping(t_address,t_uint64)"
      },
      {
        "astId": 11638,
        "contract": "contracts/ClientRegistry.sol:ClientRegistry",
        "label": "whitelistedClients",
        "offset": 0,
        "slot": "5",
        "type": "t_mapping(t_uint64,t_bool)"
      },
      {
        "astId": 11641,
        "contract": "contracts/ClientRegistry.sol:ClientRegistry",
        "label": "clientsList",
        "offset": 0,
        "slot": "6",
        "type": "t_array(t_uint64)dyn_storage"
      },
      {
        "astId": 11643,
        "contract": "contracts/ClientRegistry.sol:ClientRegistry",
        "label": "whitelistedCount",
        "offset": 0,
        "slot": "7",
        "type": "t_uint256"
      },
      {
        "astId": 11646,
        "contract": "contracts/ClientRegistry.sol:ClientRegistry",
        "label": "allocationLimit",
        "offset": 0,
        "slot": "8",
        "type": "t_uint256"
      }
    ],
    "types": {
      "t_address": {
        "encoding": "inplace",
        "label": "address",
        "numberOfBytes": "20"
      },
      "t_array(t_uint64)dyn_storage": {
        "base": "t_uint64",
        "encoding": "dynamic_array",
        "label": "uint64[]",
        "numberOfBytes": "32"
      },
      "t_bool": {
        "encoding": "inplace",
        "label": "bool",
        "numberOfBytes": "1"
      },
      "t_mapping(t_address,t_bool)": {
        "encoding": "mapping",
        "key": "t_address",
        "label": "mapping(address => bool)",
        "numberOfBytes": "32",
        "value": "t_bool"
      },
      "t_mapping(t_address,t_uint64)": {
        "encoding": "mapping",
        "key": "t_address",
        "label": "mapping(address => uint64)",
        "numberOfBytes": "32",
        "value": "t_uint64"
      },
      "t_mapping(t_uint64,t_bool)": {
        "encoding": "mapping",
        "key": "t_uint64",
        "label": "mapping(uint64 => bool)",
        "numberOfBytes": "32",
        "value": "t_bool"
      },
      "t_mapping(t_uint64,t_struct(AllocationRequest)13670_storage)": {
        "encoding": "mapping",
        "key": "t_uint64",
        "label": "mapping(uint64 => struct ClientTypes.AllocationRequest)",
        "numberOfBytes": "32",
        "value": "t_struct(AllocationRequest)13670_storage"
      },
      "t_mapping(t_uint64,t_struct(Client)13656_storage)": {
        "encoding": "mapping",
        "key": "t_uint64",
        "label": "mapping(uint64 => struct ClientTypes.Client)",
        "numberOfBytes": "32",
        "value": "t_struct(Client)13656_storage"
      },
      "t_mapping(t_uint64,t_struct(ClientAllocation)13663_storage)": {
        "encoding": "mapping",
        "key": "t_uint64",
        "label": "mapping(uint64 => struct ClientTypes.ClientAllocation)",
        "numberOfBytes": "32",
        "value": "t_struct(ClientAllocation)13663_storage"
      },
      "t_string_storage": {
        "encoding": "bytes",
        "label": "string",
        "numberOfBytes": "32"
      },
      "t_struct(AllocationRequest)13670_storage": {
        "encoding": "inplace",
        "label": "struct ClientTypes.AllocationRequest",
        "members": [
          {
            "astId": 13665,
            "contract": "contracts/ClientRegistry.sol:ClientRegistry",
            "label": "allocationLimit",
            "offset": 0,
            "slot": "0",
            "type": "t_uint256"
          },
          {
            "astId": 13667,
            "contract": "contracts/ClientRegistry.sol:ClientRegistry",
            "label": "dailyAllocation",
            "offset": 0,
            "slot": "1",
            "type": "t_uint256"
          },
          {
            "astId": 13669,
            "contract": "contracts/ClientRegistry.sol:ClientRegistry",
            "label": "oneTimeAllocation",
            "offset": 0,
            "slot": "2",
            "type": "t_uint256"
          }
        ],
        "numberOfBytes": "96"
      },
      "t_struct(Client)13656_storage": {
        "encoding": "inplace",
        "label": "struct ClientTypes.Client",
        "members": [
          {
            "astId": 13647,
            "contract": "contracts/ClientRegistry.sol:ClientRegistry",
            "label": "verified",
            "offset": 0,
            "slot": "0",
            "type": "t_bool"
          },
          {
            "astId": 13649,
            "contract": "contracts/ClientRegistry.sol:ClientRegistry",
            "label": "verificationFormCID",
            "offset": 0,
            "slot": "1",
            "type": "t_string_storage"
          },
          {
            "astId": 13651,
            "contract": "contracts/ClientRegistry.sol:ClientRegistry",
            "label": "blacklisted",
            "offset": 0,
            "slot": "2",
            "type": "t_bool"
          },
          {
            "astId": 13653,
            "contract": "contracts/ClientRegistry.sol:ClientRegistry",
            "label": "ethAddress",
            "offset": 1,
            "slot": "2",
            "type": "t_address"
          },
          {
            "astId": 13655,
            "contract": "contracts/ClientRegistry.sol:ClientRegistry",
            "label": "name",
            "offset": 0,
            "slot": "3",
            "type": "t_string_storage"
          }
        ],
        "numberOfBytes": "128"
      },
      "t_struct(ClientAllocation)13663_storage": {
        "encoding": "inplace",
        "label": "struct ClientTypes.ClientAllocation",
        "members": [
          {
            "astId": 13658,
            "contract": "contracts/ClientRegistry.sol:ClientRegistry",
            "label": "allocation",
            "offset": 0,
            "slot": "0",
            "type": "t_uint256"
          },
          {
            "astId": 13660,
            "contract": "contracts/ClientRegistry.sol:ClientRegistry",
            "label": "allocationLimit",
            "offset": 0,
            "slot": "1",
            "type": "t_uint256"
          },
          {
            "astId": 13662,
            "contract": "contracts/ClientRegistry.sol:ClientRegistry",
            "label": "dailyAllocation",
            "offset": 0,
            "slot": "2",
            "type": "t_uint256"
          }
        ],
        "numberOfBytes": "96"
      },
      "t_uint256": {
        "encoding": "inplace",
        "label": "uint256",
        "numberOfBytes": "32"
      },
      "t_uint64": {
        "encoding": "inplace",
        "label": "uint64",
        "numberOfBytes": "8"
      }
    }
  }
}