{
  "address": "0x055A6cb75287e816945ADCb2dE96F15754D18A10",
  "abi": [
    {
      "inputs": [],
      "stateMutability": "nonpayable",
      "type": "constructor"
    },
    {
      "inputs": [],
      "name": "AccessControlBadConfirmation",
      "type": "error"
    },
    {
      "inputs": [
        {
          "internalType": "address",
          "name": "account",
          "type": "address"
        },
        {
          "internalType": "bytes32",
          "name": "neededRole",
          "type": "bytes32"
        }
      ],
      "name": "AccessControlUnauthorizedAccount",
      "type": "error"
    },
    {
      "anonymous": false,
      "inputs": [
        {
          "indexed": true,
          "internalType": "bytes32",
          "name": "role",
          "type": "bytes32"
        },
        {
          "indexed": true,
          "internalType": "bytes32",
          "name": "previousAdminRole",
          "type": "bytes32"
        },
        {
          "indexed": true,
          "internalType": "bytes32",
          "name": "newAdminRole",
          "type": "bytes32"
        }
      ],
      "name": "RoleAdminChanged",
      "type": "event"
    },
    {
      "anonymous": false,
      "inputs": [
        {
          "indexed": true,
          "internalType": "bytes32",
          "name": "role",
          "type": "bytes32"
        },
        {
          "indexed": true,
          "internalType": "address",
          "name": "account",
          "type": "address"
        },
        {
          "indexed": true,
          "internalType": "address",
          "name": "sender",
          "type": "address"
        }
      ],
      "name": "RoleGranted",
      "type": "event"
    },
    {
      "anonymous": false,
      "inputs": [
        {
          "indexed": true,
          "internalType": "bytes32",
          "name": "role",
          "type": "bytes32"
        },
        {
          "indexed": true,
          "internalType": "address",
          "name": "account",
          "type": "address"
        },
        {
          "indexed": true,
          "internalType": "address",
          "name": "sender",
          "type": "address"
        }
      ],
      "name": "RoleRevoked",
      "type": "event"
    },
    {
      "inputs": [],
      "name": "DEFAULT_ADMIN_ROLE",
      "outputs": [
        {
          "internalType": "bytes32",
          "name": "",
          "type": "bytes32"
        }
      ],
      "stateMutability": "view",
      "type": "function"
    },
    {
      "inputs": [
        {
          "internalType": "uint64",
          "name": "_clientId",
          "type": "uint64"
        },
        {
          "internalType": "uint256",
          "name": "_newAllocation",
          "type": "uint256"
        }
      ],
      "name": "allocateSubsidyToClient",
      "outputs": [],
      "stateMutability": "nonpayable",
      "type": "function"
    },
    {
      "inputs": [
        {
          "internalType": "uint64",
          "name": "",
          "type": "uint64"
        }
      ],
      "name": "allocationRequests",
      "outputs": [
        {
          "internalType": "uint256",
          "name": "allocationLimit",
          "type": "uint256"
        },
        {
          "internalType": "uint256",
          "name": "dailyAllocation",
          "type": "uint256"
        },
        {
          "internalType": "uint256",
          "name": "oneTimeAllocation",
          "type": "uint256"
        }
      ],
      "stateMutability": "view",
      "type": "function"
    },
    {
      "inputs": [
        {
          "internalType": "uint64",
          "name": "",
          "type": "uint64"
        }
      ],
      "name": "allocations",
      "outputs": [
        {
          "internalType": "uint256",
          "name": "allocation",
          "type": "uint256"
        },
        {
          "internalType": "uint256",
          "name": "allocationLimit",
          "type": "uint256"
        },
        {
          "internalType": "uint256",
          "name": "dailyAllocation",
          "type": "uint256"
        }
      ],
      "stateMutability": "view",
      "type": "function"
    },
    {
      "inputs": [
        {
          "internalType": "uint64",
          "name": "_clientId",
          "type": "uint64"
        }
      ],
      "name": "blacklist",
      "outputs": [],
      "stateMutability": "nonpayable",
      "type": "function"
    },
    {
      "inputs": [
        {
          "internalType": "address",
          "name": "",
          "type": "address"
        }
      ],
      "name": "clientAddressToId",
      "outputs": [
        {
          "internalType": "uint64",
          "name": "",
          "type": "uint64"
        }
      ],
      "stateMutability": "view",
      "type": "function"
    },
    {
      "inputs": [
        {
          "internalType": "uint64",
          "name": "",
          "type": "uint64"
        }
      ],
      "name": "clients",
      "outputs": [
        {
          "internalType": "bool",
          "name": "verified",
          "type": "bool"
        },
        {
          "internalType": "string",
          "name": "verificationFormCID",
          "type": "string"
        },
        {
          "internalType": "bool",
          "name": "blacklisted",
          "type": "bool"
        },
        {
          "internalType": "address",
          "name": "ethAddress",
          "type": "address"
        },
        {
          "internalType": "string",
          "name": "name",
          "type": "string"
        }
      ],
      "stateMutability": "view",
      "type": "function"
    },
    {
      "inputs": [
        {
          "internalType": "uint256",
          "name": "",
          "type": "uint256"
        }
      ],
      "name": "clientsList",
      "outputs": [
        {
          "internalType": "uint64",
          "name": "",
          "type": "uint64"
        }
      ],
      "stateMutability": "view",
      "type": "function"
    },
    {
      "inputs": [
        {
          "internalType": "uint64",
          "name": "_clientId",
          "type": "uint64"
        }
      ],
      "name": "doesClientHaveAllocation",
      "outputs": [
        {
          "internalType": "bool",
          "name": "",
          "type": "bool"
        }
      ],
      "stateMutability": "view",
      "type": "function"
    },
    {
      "inputs": [],
      "name": "getAllClients",
      "outputs": [
        {
          "components": [
            {
              "internalType": "bool",
              "name": "verified",
              "type": "bool"
            },
            {
              "internalType": "string",
              "name": "verificationFormCID",
              "type": "string"
            },
            {
              "internalType": "bool",
              "name": "blacklisted",
              "type": "bool"
            },
            {
              "internalType": "address",
              "name": "ethAddress",
              "type": "address"
            },
            {
              "internalType": "string",
              "name": "name",
              "type": "string"
            }
          ],
          "internalType": "struct ClientTypes.Client[]",
          "name": "",
          "type": "tuple[]"
        }
      ],
      "stateMutability": "view",
      "type": "function"
    },
    {
      "inputs": [
        {
          "internalType": "uint64",
          "name": "_clientId",
          "type": "uint64"
        }
      ],
      "name": "getClientAllocation",
      "outputs": [
        {
          "internalType": "uint256",
          "name": "",
          "type": "uint256"
        }
      ],
      "stateMutability": "view",
      "type": "function"
    },
    {
      "inputs": [
        {
          "internalType": "address",
          "name": "_clientAddress",
          "type": "address"
        }
      ],
      "name": "getClientAllocationByAddress",
      "outputs": [
        {
          "internalType": "uint256",
          "name": "",
          "type": "uint256"
        }
      ],
      "stateMutability": "view",
      "type": "function"
    },
    {
      "inputs": [
        {
          "internalType": "address",
          "name": "_clientAddress",
          "type": "address"
        }
      ],
      "name": "getClientByAddress",
      "outputs": [
        {
          "components": [
            {
              "internalType": "bool",
              "name": "verified",
              "type": "bool"
            },
            {
              "internalType": "string",
              "name": "verificationFormCID",
              "type": "string"
            },
            {
              "internalType": "bool",
              "name": "blacklisted",
              "type": "bool"
            },
            {
              "internalType": "address",
              "name": "ethAddress",
              "type": "address"
            },
            {
              "internalType": "string",
              "name": "name",
              "type": "string"
            }
          ],
          "internalType": "struct ClientTypes.Client",
          "name": "",
          "type": "tuple"
        }
      ],
      "stateMutability": "view",
      "type": "function"
    },
    {
      "inputs": [
        {
          "internalType": "address",
          "name": "_clientAddress",
          "type": "address"
        }
      ],
      "name": "getClientId",
      "outputs": [
        {
          "internalType": "uint64",
          "name": "",
          "type": "uint64"
        }
      ],
      "stateMutability": "view",
      "type": "function"
    },
    {
      "inputs": [
        {
          "internalType": "uint64",
          "name": "_clientId",
          "type": "uint64"
        }
      ],
      "name": "getEthAddress",
      "outputs": [
        {
          "internalType": "address",
          "name": "",
          "type": "address"
        }
      ],
      "stateMutability": "view",
      "type": "function"
    },
    {
      "inputs": [
        {
          "internalType": "bytes32",
          "name": "role",
          "type": "bytes32"
        }
      ],
      "name": "getRoleAdmin",
      "outputs": [
        {
          "internalType": "bytes32",
          "name": "",
          "type": "bytes32"
        }
      ],
      "stateMutability": "view",
      "type": "function"
    },
    {
      "inputs": [],
      "name": "getWhitelistedClients",
      "outputs": [
        {
          "internalType": "uint64[]",
          "name": "",
          "type": "uint64[]"
        }
      ],
      "stateMutability": "view",
      "type": "function"
    },
    {
      "inputs": [
        {
          "internalType": "bytes32",
          "name": "role",
          "type": "bytes32"
        },
        {
          "internalType": "address",
          "name": "account",
          "type": "address"
        }
      ],
      "name": "grantRole",
      "outputs": [],
      "stateMutability": "nonpayable",
      "type": "function"
    },
    {
      "inputs": [
        {
          "internalType": "bytes32",
          "name": "role",
          "type": "bytes32"
        },
        {
          "internalType": "address",
          "name": "account",
          "type": "address"
        }
      ],
      "name": "hasRole",
      "outputs": [
        {
          "internalType": "bool",
          "name": "",
          "type": "bool"
        }
      ],
      "stateMutability": "view",
      "type": "function"
    },
    {
      "inputs": [
        {
          "internalType": "address",
          "name": "_clientAddress",
          "type": "address"
        }
      ],
      "name": "isAddressWhitelisted",
      "outputs": [
        {
          "internalType": "bool",
          "name": "",
          "type": "bool"
        }
      ],
      "stateMutability": "view",
      "type": "function"
    },
    {
      "inputs": [
        {
          "internalType": "address",
          "name": "_clientAddress",
          "type": "address"
        }
      ],
      "name": "isClientAddressRegistered",
      "outputs": [
        {
          "internalType": "bool",
          "name": "",
          "type": "bool"
        }
      ],
      "stateMutability": "view",
      "type": "function"
    },
    {
      "inputs": [
        {
          "internalType": "uint64",
          "name": "_clientId",
          "type": "uint64"
        }
      ],
      "name": "isClientIdRegistered",
      "outputs": [
        {
          "internalType": "bool",
          "name": "",
          "type": "bool"
        }
      ],
      "stateMutability": "view",
      "type": "function"
    },
    {
      "inputs": [
        {
          "internalType": "uint64",
          "name": "_clientId",
          "type": "uint64"
        }
      ],
      "name": "isWhitelisted",
      "outputs": [
        {
          "internalType": "bool",
          "name": "",
          "type": "bool"
        }
      ],
      "stateMutability": "view",
      "type": "function"
    },
    {
      "inputs": [
        {
          "internalType": "address",
          "name": "",
          "type": "address"
        }
      ],
      "name": "pools",
      "outputs": [
        {
          "internalType": "bool",
          "name": "",
          "type": "bool"
        }
      ],
      "stateMutability": "view",
      "type": "function"
    },
    {
      "inputs": [
        {
          "internalType": "uint64",
          "name": "_clientId",
          "type": "uint64"
        },
        {
          "internalType": "string",
          "name": "name",
          "type": "string"
        }
      ],
      "name": "register",
      "outputs": [],
      "stateMutability": "nonpayable",
      "type": "function"
    },
    {
      "inputs": [
        {
          "internalType": "bytes32",
          "name": "role",
          "type": "bytes32"
        },
        {
          "internalType": "address",
          "name": "callerConfirmation",
          "type": "address"
        }
      ],
      "name": "renounceRole",
      "outputs": [],
      "stateMutability": "nonpayable",
      "type": "function"
    },
    {
      "inputs": [
        {
          "internalType": "bytes32",
          "name": "role",
          "type": "bytes32"
        },
        {
          "internalType": "address",
          "name": "account",
          "type": "address"
        }
      ],
      "name": "revokeRole",
      "outputs": [],
      "stateMutability": "nonpayable",
      "type": "function"
    },
    {
      "inputs": [
        {
          "internalType": "address",
          "name": "_subsidyDaoAddress",
          "type": "address"
        }
      ],
      "name": "setSubsidyDao",
      "outputs": [],
      "stateMutability": "nonpayable",
      "type": "function"
    },
    {
      "inputs": [
        {
          "internalType": "bytes4",
          "name": "interfaceId",
          "type": "bytes4"
        }
      ],
      "name": "supportsInterface",
      "outputs": [
        {
          "internalType": "bool",
          "name": "",
          "type": "bool"
        }
      ],
      "stateMutability": "view",
      "type": "function"
    },
    {
      "inputs": [
        {
          "internalType": "uint64",
          "name": "_clientId",
          "type": "uint64"
        }
      ],
      "name": "whitelist",
      "outputs": [],
      "stateMutability": "nonpayable",
      "type": "function"
    },
    {
      "inputs": [
        {
          "internalType": "uint64",
          "name": "",
          "type": "uint64"
        }
      ],
      "name": "whitelistedClients",
      "outputs": [
        {
          "internalType": "bool",
          "name": "",
          "type": "bool"
        }
      ],
      "stateMutability": "view",
      "type": "function"
    },
    {
      "inputs": [],
      "name": "whitelistedCount",
      "outputs": [
        {
          "internalType": "uint256",
          "name": "",
          "type": "uint256"
        }
      ],
      "stateMutability": "view",
      "type": "function"
    }
  ],
  "transactionHash": "0x30982ebe4e48bf01918963d4d10e7ed06ed0bb13655f99f6dcaf7183f89c8ed6",
  "args": [],
  "numDeployments": 10,
  "solcInputHash": "b67c91edfe2795f7d518198501f8ed1c",
  "bytecode": "0x608060405261271060095534801561001657600080fd5b50610022600033610028565b506100d4565b6000828152602081815260408083206001600160a01b038516845290915281205460ff166100ca576000838152602081815260408083206001600160a01b03861684529091529020805460ff191660011790556100823390565b6001600160a01b0316826001600160a01b0316847f2f8788117e7eff1d82e926ec794901d17c78024a50270940304540a733656f0d60405160405180910390a45060016100ce565b5060005b92915050565b611bd7806100e36000396000f3fe608060405234801561001057600080fd5b50600436106101f05760003560e01c806378741aea1161010f578063b572a966116100a2578063d547741f11610071578063d547741f14610603578063d932532d14610616578063e4d7a3d41461064b578063ec34d2221461066057600080fd5b8063b572a966146105a8578063b63999e6146105bb578063ba5872a8146105db578063c1caf6f1146105ee57600080fd5b80639e3fa06b116100de5780639e3fa06b1461054a578063a217fddf14610574578063a4063dbc1461057c578063b2a1de221461059f57600080fd5b806378741aea14610483578063853d941d146104c057806390038baf146104ef57806391d148541461051357600080fd5b80632f2ff15d1161018757806368ec4adc1161015657806368ec4adc1461042757806369ee19b21461043a57806374f7ad891461045d578063763832321461047057600080fd5b80632f2ff15d146103ac578063300da5fa146103c157806336568abe146103d457806362ae1e94146103e757600080fd5b80632806ecfb116101c35780632806ecfb146102d9578063284ab4e7146103055780632a436a19146103455780632e54941e1461036f57600080fd5b806301ffc9a7146101f557806313f44d101461021e578063248a9ca31461026157806325dcaf9714610291575b600080fd5b6102086102033660046113c8565b61068d565b60405161021591906113fb565b60405180910390f35b61020861022c36600461142e565b6001600160a01b031660009081526005602090815260408083205467ffffffffffffffff168352600190915290205460ff1690565b61028461026f366004611460565b60009081526020819052604090206001015490565b6040516102159190611487565b6102cc61029f3660046114b0565b67ffffffffffffffff1660009081526001602052604090206002015461010090046001600160a01b031690565b60405161021591906114da565b6102086102e73660046114b0565b67ffffffffffffffff16600090815260026020526040902054151590565b61028461031336600461142e565b6001600160a01b031660009081526005602090815260408083205467ffffffffffffffff168352600290915290205490565b6102846103533660046114b0565b67ffffffffffffffff1660009081526002602052604090205490565b61039d61037d3660046114b0565b600260208190526000918252604090912080546001820154919092015483565b604051610215939291906114e8565b6103bf6103ba366004611510565b610726565b005b6103bf6103cf366004611648565b610751565b6103bf6103e2366004611510565b6108aa565b61041a6103f536600461142e565b6001600160a01b031660009081526005602052604090205467ffffffffffffffff1690565b60405161021591906116a6565b6103bf6104353660046114b0565b6108fb565b6102086104483660046114b0565b60066020526000908152604090205460ff1681565b61041a61046b366004611460565b610972565b6103bf61047e36600461142e565b6109b0565b6102086104913660046114b0565b67ffffffffffffffff1660009081526001602052604090206002015461010090046001600160a01b0316151590565b61039d6104ce3660046114b0565b60036020526000908152604090208054600182015460029092015490919083565b6105026104fd3660046114b0565b6109f6565b60405161021595949392919061170a565b610208610521366004611510565b6000918252602082815260408084206001600160a01b0393909316845291905290205460ff1690565b61041a61055836600461142e565b60056020526000908152604090205467ffffffffffffffff1681565b610284600081565b61020861058a36600461142e565b60046020526000908152604090205460ff1681565b61028460085481565b6103bf6105b63660046114b0565b610b4a565b6105ce6105c936600461142e565b610bac565b60405161021591906117d8565b6103bf6105e93660046117f0565b610d6f565b6105f6610dd2565b6040516102159190611880565b6103bf610611366004611510565b610f39565b61020861062436600461142e565b6001600160a01b031660009081526005602052604090205467ffffffffffffffff16151590565b610653610f5e565b6040516102159190611903565b61020861066e3660046114b0565b67ffffffffffffffff1660009081526001602052604090205460ff1690565b60007fffffffff0000000000000000000000000000000000000000000000000000000082167f7965db0b00000000000000000000000000000000000000000000000000000000148061072057507f01ffc9a7000000000000000000000000000000000000000000000000000000007fffffffff000000000000000000000000000000000000000000000000000000008316145b92915050565b600082815260208190526040902060010154610741816111f2565b61074b83836111ff565b50505050565b67ffffffffffffffff821660009081526001602052604090206002810180547fffffffffffffffffffffff0000000000000000000000000000000000000000ff163361010002179055600381016107a883826119eb565b5033600081815260056020526040808220805467ffffffffffffffff80891667ffffffffffffffff19909216821790925560078054600181018255945260048085047fa66cc928b5edb82af9bd49922954155ab7b0942694bea4ce44661d9a8736c68801805460086003909716969096026101000a9283029290930219909416179055600a5490517f498d54da0000000000000000000000000000000000000000000000000000000081526001600160a01b03919091169263498d54da926108739288929101611aaf565b600060405180830381600087803b15801561088d57600080fd5b505af11580156108a1573d6000803e3d6000fd5b50505050505050565b6001600160a01b03811633146108ec576040517f6697b23200000000000000000000000000000000000000000000000000000000815260040160405180910390fd5b6108f682826112a9565b505050565b67ffffffffffffffff81166000908152600160208181526040808420805460ff191684178155600290925283206009549281019290925582825560088054919361094483611ae0565b90915550505067ffffffffffffffff9091166000908152600660205260409020805460ff1916600117905550565b6007818154811061098257600080fd5b9060005260206000209060049182820401919006600802915054906101000a900467ffffffffffffffff1681565b60006109bb816111f2565b50600a80547fffffffffffffffffffffffff0000000000000000000000000000000000000000166001600160a01b0392909216919091179055565b60016020819052600091825260409091208054918101805460ff90931692610a1d9061192a565b80601f0160208091040260200160405190810160405280929190818152602001828054610a499061192a565b8015610a965780601f10610a6b57610100808354040283529160200191610a96565b820191906000526020600020905b815481529060010190602001808311610a7957829003601f168201915b505050506002830154600384018054939460ff8316946101009093046001600160a01b0316935091610ac79061192a565b80601f0160208091040260200160405190810160405280929190818152602001828054610af39061192a565b8015610b405780601f10610b1557610100808354040283529160200191610b40565b820191906000526020600020905b815481529060010190602001808311610b2357829003601f168201915b5050505050905085565b67ffffffffffffffff81166000908152600160208190526040822060028101805460ff1916909217909155600880549192610b8483611afa565b90915550505067ffffffffffffffff166000908152600660205260409020805460ff19169055565b6040805160a08101825260008082526060602083018190529282018190528282015260808101919091526001600160a01b03821660009081526005602090815260408083205467ffffffffffffffff168352600180835292819020815160a08101909252805460ff16151582529283018054919392840191610c2d9061192a565b80601f0160208091040260200160405190810160405280929190818152602001828054610c599061192a565b8015610ca65780601f10610c7b57610100808354040283529160200191610ca6565b820191906000526020600020905b815481529060010190602001808311610c8957829003601f168201915b5050509183525050600282015460ff81161515602083015261010090046001600160a01b03166040820152600382018054606090920191610ce69061192a565b80601f0160208091040260200160405190810160405280929190818152602001828054610d129061192a565b8015610d5f5780601f10610d3457610100808354040283529160200191610d5f565b820191906000526020600020905b815481529060010190602001808311610d4257829003601f168201915b5050505050815250509050919050565b67ffffffffffffffff8216600090815260026020526040902060018101548210610dce576040517f08c379a0000000000000000000000000000000000000000000000000000000008152600401610dc590611b11565b60405180910390fd5b5550565b6060600060085467ffffffffffffffff811115610df157610df161154d565b604051908082528060200260200182016040528015610e1a578160200160208202803683370190505b5090506000805b60075467ffffffffffffffff82161015610f31576006600060078367ffffffffffffffff1681548110610e5657610e56611b4c565b6000918252602080832060048304015460039092166008026101000a90910467ffffffffffffffff16835282019290925260400190205460ff1615610f1f5760078167ffffffffffffffff1681548110610eb257610eb2611b4c565b90600052602060002090600491828204019190066008029054906101000a900467ffffffffffffffff16838367ffffffffffffffff1681518110610ef857610ef8611b4c565b67ffffffffffffffff9092166020928302919091019091015281610f1b81611b62565b9250505b80610f2981611b62565b915050610e21565b509092915050565b600082815260208190526040902060010154610f54816111f2565b61074b83836112a9565b60075460609060009067ffffffffffffffff811115610f7f57610f7f61154d565b604051908082528060200260200182016040528015610fda57816020015b6040805160a0810182526000808252606060208301819052928201819052828201526080810191909152815260200190600190039081610f9d5790505b50905060005b60075467ffffffffffffffff821610156111ec576001600060078367ffffffffffffffff168154811061101557611015611b4c565b6000918252602080832060048304015460039092166008026101000a90910467ffffffffffffffff1683528281019390935260409182019020815160a08101909252805460ff161515825260018101805492939192918401916110779061192a565b80601f01602080910402602001604051908101604052809291908181526020018280546110a39061192a565b80156110f05780601f106110c5576101008083540402835291602001916110f0565b820191906000526020600020905b8154815290600101906020018083116110d357829003601f168201915b5050509183525050600282015460ff81161515602083015261010090046001600160a01b031660408201526003820180546060909201916111309061192a565b80601f016020809104026020016040519081016040528092919081815260200182805461115c9061192a565b80156111a95780601f1061117e576101008083540402835291602001916111a9565b820191906000526020600020905b81548152906001019060200180831161118c57829003601f168201915b505050505081525050828267ffffffffffffffff16815181106111ce576111ce611b4c565b602002602001018190525080806111e490611b62565b915050610fe0565b50919050565b6111fc813361132c565b50565b6000828152602081815260408083206001600160a01b038516845290915281205460ff166112a1576000838152602081815260408083206001600160a01b03861684529091529020805460ff191660011790556112593390565b6001600160a01b0316826001600160a01b0316847f2f8788117e7eff1d82e926ec794901d17c78024a50270940304540a733656f0d60405160405180910390a4506001610720565b506000610720565b6000828152602081815260408083206001600160a01b038516845290915281205460ff16156112a1576000838152602081815260408083206001600160a01b0386168085529252808320805460ff1916905551339286917ff6391f5c32d9c69d2a47ea670b442974b53935d1edc7fd64eb21e047a839171b9190a4506001610720565b6000828152602081815260408083206001600160a01b038516845290915290205460ff1661138a5780826040517fe2517d3f000000000000000000000000000000000000000000000000000000008152600401610dc5929190611b86565b5050565b7fffffffff0000000000000000000000000000000000000000000000000000000081165b81146111fc57600080fd5b80356107208161138e565b6000602082840312156113dd576113dd600080fd5b60006113e984846113bd565b949350505050565b8015155b82525050565b6020810161072082846113f1565b60006001600160a01b038216610720565b6113b281611409565b80356107208161141a565b60006020828403121561144357611443600080fd5b60006113e98484611423565b806113b2565b80356107208161144f565b60006020828403121561147557611475600080fd5b60006113e98484611455565b806113f5565b602081016107208284611481565b67ffffffffffffffff81166113b2565b803561072081611495565b6000602082840312156114c5576114c5600080fd5b60006113e984846114a5565b6113f581611409565b6020810161072082846114d1565b606081016114f68286611481565b6115036020830185611481565b6113e96040830184611481565b6000806040838503121561152657611526600080fd5b60006115328585611455565b925050602061154385828601611423565b9150509250929050565b634e487b7160e01b600052604160045260246000fd5b601f19601f830116810181811067ffffffffffffffff821117156115895761158961154d565b6040525050565b600061159b60405190565b90506115a78282611563565b919050565b600067ffffffffffffffff8211156115c6576115c661154d565b601f19601f83011660200192915050565b82818337506000910152565b60006115f66115f1846115ac565b611590565b90508281526020810184848401111561161157611611600080fd5b61161c8482856115d7565b509392505050565b600082601f83011261163857611638600080fd5b81356113e98482602086016115e3565b6000806040838503121561165e5761165e600080fd5b600061166a85856114a5565b925050602083013567ffffffffffffffff81111561168a5761168a600080fd5b61154385828601611624565b67ffffffffffffffff81166113f5565b602081016107208284611696565b60005b838110156116cf5781810151838201526020016116b7565b50506000910152565b60006116e2825190565b8084526020840193506116f98185602086016116b4565b601f01601f19169290920192915050565b60a0810161171882886113f1565b818103602083015261172a81876116d8565b905061173960408301866113f1565b61174660608301856114d1565b818103608083015261175881846116d8565b979650505050505050565b805160009060a084019061177785826113f1565b506020830151848203602086015261178f82826116d8565b91505060408301516117a460408601826113f1565b5060608301516117b760608601826114d1565b50608083015184820360808601526117cf82826116d8565b95945050505050565b602080825281016117e98184611763565b9392505050565b6000806040838503121561180657611806600080fd5b600061181285856114a5565b925050602061154385828601611455565b600061182f8383611696565b505060200190565b6000611841825190565b80845260209384019383018060005b838110156118755781516118648882611823565b975060208301925050600101611850565b509495945050505050565b602080825281016117e98184611837565b60006117e98383611763565b60006118a7825190565b808452602084019350836020820285016118c18560200190565b8060005b858110156118f657848403895281516118de8582611891565b94506020830160209a909a01999250506001016118c5565b5091979650505050505050565b602080825281016117e9818461189d565b634e487b7160e01b600052602260045260246000fd5b60028104600182168061193e57607f821691505b6020821081036111ec576111ec611914565b600061072061195c8381565b90565b61196883611950565b815460001960089490940293841b1916921b91909117905550565b60006108f681848461195f565b8181101561138a576119a3600082611983565b600101611990565b601f8211156108f6576000818152602090206020601f850104810160208510156119d25750805b6119e46020601f860104830182611990565b5050505050565b815167ffffffffffffffff811115611a0557611a0561154d565b611a0f825461192a565b611a1a8282856119ab565b6020601f831160018114611a4e5760008415611a365750858201515b600019600886021c1981166002860217865550611aa7565b600085815260208120601f198616915b82811015611a7e5788850151825560209485019460019092019101611a5e565b86831015611a9a5784890151600019601f89166008021c191682555b6001600288020188555050505b505050505050565b60408101611abd8285611696565b6117e960208301846114d1565b634e487b7160e01b600052601160045260246000fd5b60006000198203611af357611af3611aca565b5060010190565b600081611b0957611b09611aca565b506000190190565b6020808252810161072081601881527f616c6c6f636174696f6e2065786365656473206c696d69740000000000000000602082015260400190565b634e487b7160e01b600052603260045260246000fd5b67ffffffffffffffff16600067fffffffffffffffe198201611af357611af3611aca565b60408101611b9482856114d1565b6117e9602083018461148156fea26469706673582212205fc41a6038e8ba2b307751fd104e09f4a419e423ef5559280e810e606d57f44e64736f6c63430008140033",
  "devdoc": {
    "errors": {
      "AccessControlBadConfirmation()": [
        {
          "details": "The caller of a function is not the expected one. NOTE: Don't confuse with {AccessControlUnauthorizedAccount}."
        }
      ],
      "AccessControlUnauthorizedAccount(address,bytes32)": [
        {
          "details": "The `account` is missing a role."
        }
      ]
    },
    "events": {
      "RoleAdminChanged(bytes32,bytes32,bytes32)": {
        "details": "Emitted when `newAdminRole` is set as ``role``'s admin role, replacing `previousAdminRole` `DEFAULT_ADMIN_ROLE` is the starting admin for all roles, despite {RoleAdminChanged} not being emitted signaling this."
      },
      "RoleGranted(bytes32,address,address)": {
        "details": "Emitted when `account` is granted `role`. `sender` is the account that originated the contract call, an admin role bearer except when using {AccessControl-_setupRole}."
      },
      "RoleRevoked(bytes32,address,address)": {
        "details": "Emitted when `account` is revoked `role`. `sender` is the account that originated the contract call:   - if using `revokeRole`, it is the admin role bearer   - if using `renounceRole`, it is the role bearer (i.e. `account`)"
      }
    },
    "kind": "dev",
    "methods": {
      "getRoleAdmin(bytes32)": {
        "details": "Returns the admin role that controls `role`. See {grantRole} and {revokeRole}. To change a role's admin, use {_setRoleAdmin}."
      },
      "grantRole(bytes32,address)": {
        "details": "Grants `role` to `account`. If `account` had not been already granted `role`, emits a {RoleGranted} event. Requirements: - the caller must have ``role``'s admin role. May emit a {RoleGranted} event."
      },
      "hasRole(bytes32,address)": {
        "details": "Returns `true` if `account` has been granted `role`."
      },
      "renounceRole(bytes32,address)": {
        "details": "Revokes `role` from the calling account. Roles are often managed via {grantRole} and {revokeRole}: this function's purpose is to provide a mechanism for accounts to lose their privileges if they are compromised (such as when a trusted device is misplaced). If the calling account had been revoked `role`, emits a {RoleRevoked} event. Requirements: - the caller must be `callerConfirmation`. May emit a {RoleRevoked} event."
      },
      "revokeRole(bytes32,address)": {
        "details": "Revokes `role` from `account`. If `account` had been granted `role`, emits a {RoleRevoked} event. Requirements: - the caller must have ``role``'s admin role. May emit a {RoleRevoked} event."
      },
      "supportsInterface(bytes4)": {
        "details": "See {IERC165-supportsInterface}."
      }
    },
    "version": 1
  },
  "userdoc": {
    "kind": "user",
    "methods": {},
    "version": 1
  },
  "storageLayout": {
    "storage": [
      {
        "astId": 448,
        "contract": "contracts/ClientRegistry.sol:ClientRegistry",
        "label": "_roles",
        "offset": 0,
        "slot": "0",
        "type": "t_mapping(t_bytes32,t_struct(RoleData)443_storage)"
      },
      {
        "astId": 11622,
        "contract": "contracts/ClientRegistry.sol:ClientRegistry",
        "label": "clients",
        "offset": 0,
        "slot": "1",
        "type": "t_mapping(t_uint64,t_struct(Client)13930_storage)"
      },
      {
        "astId": 11627,
        "contract": "contracts/ClientRegistry.sol:ClientRegistry",
        "label": "allocations",
        "offset": 0,
        "slot": "2",
        "type": "t_mapping(t_uint64,t_struct(ClientAllocation)13937_storage)"
      },
      {
        "astId": 11632,
        "contract": "contracts/ClientRegistry.sol:ClientRegistry",
        "label": "allocationRequests",
        "offset": 0,
        "slot": "3",
        "type": "t_mapping(t_uint64,t_struct(AllocationRequest)13944_storage)"
      },
      {
        "astId": 11636,
        "contract": "contracts/ClientRegistry.sol:ClientRegistry",
        "label": "pools",
        "offset": 0,
        "slot": "4",
        "type": "t_mapping(t_address,t_bool)"
      },
      {
        "astId": 11640,
        "contract": "contracts/ClientRegistry.sol:ClientRegistry",
        "label": "clientAddressToId",
        "offset": 0,
        "slot": "5",
        "type": "t_mapping(t_address,t_uint64)"
      },
      {
        "astId": 11644,
        "contract": "contracts/ClientRegistry.sol:ClientRegistry",
        "label": "whitelistedClients",
        "offset": 0,
        "slot": "6",
        "type": "t_mapping(t_uint64,t_bool)"
      },
      {
        "astId": 11647,
        "contract": "contracts/ClientRegistry.sol:ClientRegistry",
        "label": "clientsList",
        "offset": 0,
        "slot": "7",
        "type": "t_array(t_uint64)dyn_storage"
      },
      {
        "astId": 11649,
        "contract": "contracts/ClientRegistry.sol:ClientRegistry",
        "label": "whitelistedCount",
        "offset": 0,
        "slot": "8",
        "type": "t_uint256"
      },
      {
        "astId": 11652,
        "contract": "contracts/ClientRegistry.sol:ClientRegistry",
        "label": "allocationLimit",
        "offset": 0,
        "slot": "9",
        "type": "t_uint256"
      },
      {
        "astId": 11655,
        "contract": "contracts/ClientRegistry.sol:ClientRegistry",
        "label": "subsidyDao",
        "offset": 0,
        "slot": "10",
        "type": "t_contract(SubsidyDao)13812"
      }
    ],
    "types": {
      "t_address": {
        "encoding": "inplace",
        "label": "address",
        "numberOfBytes": "20"
      },
      "t_array(t_uint64)dyn_storage": {
        "base": "t_uint64",
        "encoding": "dynamic_array",
        "label": "uint64[]",
        "numberOfBytes": "32"
      },
      "t_bool": {
        "encoding": "inplace",
        "label": "bool",
        "numberOfBytes": "1"
      },
      "t_bytes32": {
        "encoding": "inplace",
        "label": "bytes32",
        "numberOfBytes": "32"
      },
      "t_contract(SubsidyDao)13812": {
        "encoding": "inplace",
        "label": "contract SubsidyDao",
        "numberOfBytes": "20"
      },
      "t_mapping(t_address,t_bool)": {
        "encoding": "mapping",
        "key": "t_address",
        "label": "mapping(address => bool)",
        "numberOfBytes": "32",
        "value": "t_bool"
      },
      "t_mapping(t_address,t_uint64)": {
        "encoding": "mapping",
        "key": "t_address",
        "label": "mapping(address => uint64)",
        "numberOfBytes": "32",
        "value": "t_uint64"
      },
      "t_mapping(t_bytes32,t_struct(RoleData)443_storage)": {
        "encoding": "mapping",
        "key": "t_bytes32",
        "label": "mapping(bytes32 => struct AccessControl.RoleData)",
        "numberOfBytes": "32",
        "value": "t_struct(RoleData)443_storage"
      },
      "t_mapping(t_uint64,t_bool)": {
        "encoding": "mapping",
        "key": "t_uint64",
        "label": "mapping(uint64 => bool)",
        "numberOfBytes": "32",
        "value": "t_bool"
      },
      "t_mapping(t_uint64,t_struct(AllocationRequest)13944_storage)": {
        "encoding": "mapping",
        "key": "t_uint64",
        "label": "mapping(uint64 => struct ClientTypes.AllocationRequest)",
        "numberOfBytes": "32",
        "value": "t_struct(AllocationRequest)13944_storage"
      },
      "t_mapping(t_uint64,t_struct(Client)13930_storage)": {
        "encoding": "mapping",
        "key": "t_uint64",
        "label": "mapping(uint64 => struct ClientTypes.Client)",
        "numberOfBytes": "32",
        "value": "t_struct(Client)13930_storage"
      },
      "t_mapping(t_uint64,t_struct(ClientAllocation)13937_storage)": {
        "encoding": "mapping",
        "key": "t_uint64",
        "label": "mapping(uint64 => struct ClientTypes.ClientAllocation)",
        "numberOfBytes": "32",
        "value": "t_struct(ClientAllocation)13937_storage"
      },
      "t_string_storage": {
        "encoding": "bytes",
        "label": "string",
        "numberOfBytes": "32"
      },
      "t_struct(AllocationRequest)13944_storage": {
        "encoding": "inplace",
        "label": "struct ClientTypes.AllocationRequest",
        "members": [
          {
            "astId": 13939,
            "contract": "contracts/ClientRegistry.sol:ClientRegistry",
            "label": "allocationLimit",
            "offset": 0,
            "slot": "0",
            "type": "t_uint256"
          },
          {
            "astId": 13941,
            "contract": "contracts/ClientRegistry.sol:ClientRegistry",
            "label": "dailyAllocation",
            "offset": 0,
            "slot": "1",
            "type": "t_uint256"
          },
          {
            "astId": 13943,
            "contract": "contracts/ClientRegistry.sol:ClientRegistry",
            "label": "oneTimeAllocation",
            "offset": 0,
            "slot": "2",
            "type": "t_uint256"
          }
        ],
        "numberOfBytes": "96"
      },
      "t_struct(Client)13930_storage": {
        "encoding": "inplace",
        "label": "struct ClientTypes.Client",
        "members": [
          {
            "astId": 13921,
            "contract": "contracts/ClientRegistry.sol:ClientRegistry",
            "label": "verified",
            "offset": 0,
            "slot": "0",
            "type": "t_bool"
          },
          {
            "astId": 13923,
            "contract": "contracts/ClientRegistry.sol:ClientRegistry",
            "label": "verificationFormCID",
            "offset": 0,
            "slot": "1",
            "type": "t_string_storage"
          },
          {
            "astId": 13925,
            "contract": "contracts/ClientRegistry.sol:ClientRegistry",
            "label": "blacklisted",
            "offset": 0,
            "slot": "2",
            "type": "t_bool"
          },
          {
            "astId": 13927,
            "contract": "contracts/ClientRegistry.sol:ClientRegistry",
            "label": "ethAddress",
            "offset": 1,
            "slot": "2",
            "type": "t_address"
          },
          {
            "astId": 13929,
            "contract": "contracts/ClientRegistry.sol:ClientRegistry",
            "label": "name",
            "offset": 0,
            "slot": "3",
            "type": "t_string_storage"
          }
        ],
        "numberOfBytes": "128"
      },
      "t_struct(ClientAllocation)13937_storage": {
        "encoding": "inplace",
        "label": "struct ClientTypes.ClientAllocation",
        "members": [
          {
            "astId": 13932,
            "contract": "contracts/ClientRegistry.sol:ClientRegistry",
            "label": "allocation",
            "offset": 0,
            "slot": "0",
            "type": "t_uint256"
          },
          {
            "astId": 13934,
            "contract": "contracts/ClientRegistry.sol:ClientRegistry",
            "label": "allocationLimit",
            "offset": 0,
            "slot": "1",
            "type": "t_uint256"
          },
          {
            "astId": 13936,
            "contract": "contracts/ClientRegistry.sol:ClientRegistry",
            "label": "dailyAllocation",
            "offset": 0,
            "slot": "2",
            "type": "t_uint256"
          }
        ],
        "numberOfBytes": "96"
      },
      "t_struct(RoleData)443_storage": {
        "encoding": "inplace",
        "label": "struct AccessControl.RoleData",
        "members": [
          {
            "astId": 440,
            "contract": "contracts/ClientRegistry.sol:ClientRegistry",
            "label": "hasRole",
            "offset": 0,
            "slot": "0",
            "type": "t_mapping(t_address,t_bool)"
          },
          {
            "astId": 442,
            "contract": "contracts/ClientRegistry.sol:ClientRegistry",
            "label": "adminRole",
            "offset": 0,
            "slot": "1",
            "type": "t_bytes32"
          }
        ],
        "numberOfBytes": "64"
      },
      "t_uint256": {
        "encoding": "inplace",
        "label": "uint256",
        "numberOfBytes": "32"
      },
      "t_uint64": {
        "encoding": "inplace",
        "label": "uint64",
        "numberOfBytes": "8"
      }
    }
  }
}