{
  "address": "0xf113Cf60c57054C622Fd050127E36a9D931eBE38",
  "abi": [
    {
      "inputs": [
        {
          "internalType": "uint64",
          "name": "_clientId",
          "type": "uint64"
        },
        {
          "internalType": "uint256",
          "name": "_newAllocation",
          "type": "uint256"
        }
      ],
      "name": "allocateSubsidyToClient",
      "outputs": [],
      "stateMutability": "nonpayable",
      "type": "function"
    },
    {
      "inputs": [
        {
          "internalType": "uint64",
          "name": "",
          "type": "uint64"
        }
      ],
      "name": "allocationRequests",
      "outputs": [
        {
          "internalType": "uint256",
          "name": "allocationLimit",
          "type": "uint256"
        },
        {
          "internalType": "uint256",
          "name": "dailyAllocation",
          "type": "uint256"
        },
        {
          "internalType": "uint256",
          "name": "oneTimeAllocation",
          "type": "uint256"
        }
      ],
      "stateMutability": "view",
      "type": "function"
    },
    {
      "inputs": [
        {
          "internalType": "uint64",
          "name": "",
          "type": "uint64"
        }
      ],
      "name": "allocations",
      "outputs": [
        {
          "internalType": "uint256",
          "name": "allocation",
          "type": "uint256"
        },
        {
          "internalType": "uint256",
          "name": "allocationLimit",
          "type": "uint256"
        },
        {
          "internalType": "uint256",
          "name": "dailyAllocation",
          "type": "uint256"
        }
      ],
      "stateMutability": "view",
      "type": "function"
    },
    {
      "inputs": [
        {
          "internalType": "uint64",
          "name": "_clientId",
          "type": "uint64"
        }
      ],
      "name": "blacklist",
      "outputs": [],
      "stateMutability": "nonpayable",
      "type": "function"
    },
    {
      "inputs": [
        {
          "internalType": "address",
          "name": "",
          "type": "address"
        }
      ],
      "name": "clientAddressToId",
      "outputs": [
        {
          "internalType": "uint64",
          "name": "",
          "type": "uint64"
        }
      ],
      "stateMutability": "view",
      "type": "function"
    },
    {
      "inputs": [
        {
          "internalType": "uint64",
          "name": "",
          "type": "uint64"
        },
        {
          "internalType": "uint256",
          "name": "",
          "type": "uint256"
        }
      ],
      "name": "clientAllocations",
      "outputs": [
        {
          "internalType": "uint256",
          "name": "allocationLimit",
          "type": "uint256"
        },
        {
          "internalType": "uint256",
          "name": "dailyAllocation",
          "type": "uint256"
        },
        {
          "internalType": "uint256",
          "name": "oneTimeAllocation",
          "type": "uint256"
        }
      ],
      "stateMutability": "view",
      "type": "function"
    },
    {
      "inputs": [
        {
          "internalType": "uint64",
          "name": "",
          "type": "uint64"
        }
      ],
      "name": "clients",
      "outputs": [
        {
          "internalType": "bool",
          "name": "verified",
          "type": "bool"
        },
        {
          "internalType": "string",
          "name": "verificationFormCID",
          "type": "string"
        },
        {
          "internalType": "bool",
          "name": "blacklisted",
          "type": "bool"
        },
        {
          "internalType": "address",
          "name": "ethAddress",
          "type": "address"
        },
        {
          "internalType": "string",
          "name": "name",
          "type": "string"
        }
      ],
      "stateMutability": "view",
      "type": "function"
    },
    {
      "inputs": [
        {
          "internalType": "uint256",
          "name": "",
          "type": "uint256"
        }
      ],
      "name": "clientsList",
      "outputs": [
        {
          "internalType": "uint64",
          "name": "",
          "type": "uint64"
        }
      ],
      "stateMutability": "view",
      "type": "function"
    },
    {
      "inputs": [],
      "name": "getAllClients",
      "outputs": [
        {
          "components": [
            {
              "internalType": "bool",
              "name": "verified",
              "type": "bool"
            },
            {
              "internalType": "string",
              "name": "verificationFormCID",
              "type": "string"
            },
            {
              "internalType": "bool",
              "name": "blacklisted",
              "type": "bool"
            },
            {
              "internalType": "address",
              "name": "ethAddress",
              "type": "address"
            },
            {
              "internalType": "string",
              "name": "name",
              "type": "string"
            }
          ],
          "internalType": "struct ClientTypes.Client[]",
          "name": "",
          "type": "tuple[]"
        }
      ],
      "stateMutability": "view",
      "type": "function"
    },
    {
      "inputs": [
        {
          "internalType": "address",
          "name": "_clientAddress",
          "type": "address"
        }
      ],
      "name": "getClientByAddress",
      "outputs": [
        {
          "components": [
            {
              "internalType": "bool",
              "name": "verified",
              "type": "bool"
            },
            {
              "internalType": "string",
              "name": "verificationFormCID",
              "type": "string"
            },
            {
              "internalType": "bool",
              "name": "blacklisted",
              "type": "bool"
            },
            {
              "internalType": "address",
              "name": "ethAddress",
              "type": "address"
            },
            {
              "internalType": "string",
              "name": "name",
              "type": "string"
            }
          ],
          "internalType": "struct ClientTypes.Client",
          "name": "",
          "type": "tuple"
        }
      ],
      "stateMutability": "view",
      "type": "function"
    },
    {
      "inputs": [
        {
          "internalType": "uint64",
          "name": "_clientId",
          "type": "uint64"
        }
      ],
      "name": "getEthAddress",
      "outputs": [
        {
          "internalType": "address",
          "name": "",
          "type": "address"
        }
      ],
      "stateMutability": "view",
      "type": "function"
    },
    {
      "inputs": [],
      "name": "getWhitelistedClients",
      "outputs": [
        {
          "internalType": "uint64[]",
          "name": "",
          "type": "uint64[]"
        }
      ],
      "stateMutability": "view",
      "type": "function"
    },
    {
      "inputs": [
        {
          "internalType": "address",
          "name": "_clientAddress",
          "type": "address"
        }
      ],
      "name": "isAddressWhitelisted",
      "outputs": [
        {
          "internalType": "bool",
          "name": "",
          "type": "bool"
        }
      ],
      "stateMutability": "view",
      "type": "function"
    },
    {
      "inputs": [
        {
          "internalType": "address",
          "name": "_clientAddress",
          "type": "address"
        }
      ],
      "name": "isClientAddressRegistered",
      "outputs": [
        {
          "internalType": "bool",
          "name": "",
          "type": "bool"
        }
      ],
      "stateMutability": "view",
      "type": "function"
    },
    {
      "inputs": [
        {
          "internalType": "uint64",
          "name": "_clientId",
          "type": "uint64"
        }
      ],
      "name": "isClientIdRegistered",
      "outputs": [
        {
          "internalType": "bool",
          "name": "",
          "type": "bool"
        }
      ],
      "stateMutability": "view",
      "type": "function"
    },
    {
      "inputs": [
        {
          "internalType": "uint64",
          "name": "_clientId",
          "type": "uint64"
        }
      ],
      "name": "isWhitelisted",
      "outputs": [
        {
          "internalType": "bool",
          "name": "",
          "type": "bool"
        }
      ],
      "stateMutability": "view",
      "type": "function"
    },
    {
      "inputs": [
        {
          "internalType": "address",
          "name": "",
          "type": "address"
        }
      ],
      "name": "pools",
      "outputs": [
        {
          "internalType": "bool",
          "name": "",
          "type": "bool"
        }
      ],
      "stateMutability": "view",
      "type": "function"
    },
    {
      "inputs": [
        {
          "internalType": "uint64",
          "name": "_clientId",
          "type": "uint64"
        },
        {
          "internalType": "string",
          "name": "name",
          "type": "string"
        }
      ],
      "name": "register",
      "outputs": [],
      "stateMutability": "nonpayable",
      "type": "function"
    },
    {
      "inputs": [
        {
          "internalType": "uint64",
          "name": "_clientId",
          "type": "uint64"
        }
      ],
      "name": "whitelist",
      "outputs": [],
      "stateMutability": "nonpayable",
      "type": "function"
    },
    {
      "inputs": [
        {
          "internalType": "uint64",
          "name": "",
          "type": "uint64"
        }
      ],
      "name": "whitelistedClients",
      "outputs": [
        {
          "internalType": "bool",
          "name": "",
          "type": "bool"
        }
      ],
      "stateMutability": "view",
      "type": "function"
    },
    {
      "inputs": [],
      "name": "whitelistedCount",
      "outputs": [
        {
          "internalType": "uint256",
          "name": "",
          "type": "uint256"
        }
      ],
      "stateMutability": "view",
      "type": "function"
    }
  ],
  "transactionHash": "0x062012693176c87cf9feec6ba9a3053625bac3aee7f820ca3fdd2fa35fdba190",
  "args": [],
  "numDeployments": 4,
  "solcInputHash": "52e4375d8b8f0bfcbb08b1a5cf79cadc",
  "bytecode": "0x6080604052606460095534801561001557600080fd5b506115dd806100256000396000f3fe608060405234801561001057600080fd5b50600436106101775760003560e01c806390038baf116100d8578063b63999e61161008c578063d932532d11610066578063d932532d14610424578063e4d7a3d414610459578063ec34d2221461046e57600080fd5b8063b63999e6146103dc578063ba5872a8146103fc578063c1caf6f11461040f57600080fd5b8063a4063dbc116100bd578063a4063dbc14610390578063b2a1de22146103b3578063b572a966146103c957600080fd5b806390038baf146103425780639e3fa06b1461036657600080fd5b806369603c191161012f57806374f7ad891161011457806374f7ad89146102b757806378741aea146102d7578063853d941d1461031457600080fd5b806369603c191461028157806369ee19b21461029457600080fd5b80632e54941e116101605780632e54941e1461021c578063300da5fa1461025957806368ec4adc1461026e57600080fd5b806313f44d101461017c57806325dcaf97146101d4575b600080fd5b6101be61018a366004610e74565b6001600160a01b031660009081526005602090815260408083205467ffffffffffffffff1683529082905290205460ff1690565b6040516101cb9190610ea7565b60405180910390f35b61020f6101e2366004610ed0565b67ffffffffffffffff1660009081526020819052604090206002015461010090046001600160a01b031690565b6040516101cb9190610efa565b61024a61022a366004610ed0565b600160208190526000918252604090912080549181015460029091015483565b6040516101cb93929190610f0e565b61026c610267366004611031565b61049b565b005b61026c61027c366004610ed0565b610575565b61024a61028f36600461109a565b6105ed565b6101be6102a2366004610ed0565b60066020526000908152604090205460ff1681565b6102ca6102c53660046110cd565b61062f565b6040516101cb91906110fe565b6101be6102e5366004610ed0565b67ffffffffffffffff1660009081526020819052604090206002015461010090046001600160a01b0316151590565b61024a610322366004610ed0565b600260208190526000918252604090912080546001820154919092015483565b610355610350366004610ed0565b61066d565b6040516101cb959493929190611162565b6102ca610374366004610e74565b60056020526000908152604090205467ffffffffffffffff1681565b6101be61039e366004610e74565b60046020526000908152604090205460ff1681565b6103bc60085481565b6040516101cb91906111bb565b61026c6103d7366004610ed0565b6107c0565b6103ef6103ea366004610e74565b61081f565b6040516101cb919061123e565b61026c61040a36600461109a565b6109e0565b610417610a45565b6040516101cb91906112b3565b6101be610432366004610e74565b6001600160a01b031660009081526005602052604090205467ffffffffffffffff16151590565b610461610bac565b6040516101cb9190611336565b6101be61047c366004610ed0565b67ffffffffffffffff1660009081526020819052604090205460ff1690565b67ffffffffffffffff821660009081526020819052604090206002810180547fffffffffffffffffffffff0000000000000000000000000000000000000000ff163361010002179055600381016104f28382611427565b5050336000908152600560205260408120805467ffffffffffffffff191667ffffffffffffffff9485169081179091556007805460018101825592527fa66cc928b5edb82af9bd49922954155ab7b0942694bea4ce44661d9a8736c6886004830401805460039093166008026101000a9485021990921693029290921790915550565b67ffffffffffffffff8116600090815260208181526040808320805460ff19166001908117825592839052908320600954928101929092558282556008805491936105bf83611501565b90915550505067ffffffffffffffff9091166000908152600660205260409020805460ff1916600117905550565b6003602052816000526040600020818154811061060957600080fd5b600091825260209091206003909102018054600182015460029092015490935090915083565b6007818154811061063f57600080fd5b9060005260206000209060049182820401919006600802915054906101000a900467ffffffffffffffff1681565b6000602081905290815260409020805460018201805460ff90921692916106939061135d565b80601f01602080910402602001604051908101604052809291908181526020018280546106bf9061135d565b801561070c5780601f106106e15761010080835404028352916020019161070c565b820191906000526020600020905b8154815290600101906020018083116106ef57829003601f168201915b505050506002830154600384018054939460ff8316946101009093046001600160a01b031693509161073d9061135d565b80601f01602080910402602001604051908101604052809291908181526020018280546107699061135d565b80156107b65780601f1061078b576101008083540402835291602001916107b6565b820191906000526020600020905b81548152906001019060200180831161079957829003601f168201915b5050505050905085565b67ffffffffffffffff8116600090815260208190526040812060028101805460ff191660011790556008805491926107f78361151b565b90915550505067ffffffffffffffff166000908152600660205260409020805460ff19169055565b6040805160a08101825260008082526060602083018190529282018190528282015260808101919091526001600160a01b03821660009081526005602090815260408083205467ffffffffffffffff16835282825291829020825160a08101909352805460ff1615158352600181018054919284019161089e9061135d565b80601f01602080910402602001604051908101604052809291908181526020018280546108ca9061135d565b80156109175780601f106108ec57610100808354040283529160200191610917565b820191906000526020600020905b8154815290600101906020018083116108fa57829003601f168201915b5050509183525050600282015460ff81161515602083015261010090046001600160a01b031660408201526003820180546060909201916109579061135d565b80601f01602080910402602001604051908101604052809291908181526020018280546109839061135d565b80156109d05780601f106109a5576101008083540402835291602001916109d0565b820191906000526020600020905b8154815290600101906020018083116109b357829003601f168201915b5050505050815250509050919050565b67ffffffffffffffff82166000908152600160208190526040909120908101548210610a41576040517f08c379a0000000000000000000000000000000000000000000000000000000008152600401610a3890611532565b60405180910390fd5b5550565b6060600060085467ffffffffffffffff811115610a6457610a64610f36565b604051908082528060200260200182016040528015610a8d578160200160208202803683370190505b5090506000805b60075467ffffffffffffffff82161015610ba4576006600060078367ffffffffffffffff1681548110610ac957610ac961156d565b6000918252602080832060048304015460039092166008026101000a90910467ffffffffffffffff16835282019290925260400190205460ff1615610b925760078167ffffffffffffffff1681548110610b2557610b2561156d565b90600052602060002090600491828204019190066008029054906101000a900467ffffffffffffffff16838367ffffffffffffffff1681518110610b6b57610b6b61156d565b67ffffffffffffffff9092166020928302919091019091015281610b8e81611583565b9250505b80610b9c81611583565b915050610a94565b509092915050565b60075460609060009067ffffffffffffffff811115610bcd57610bcd610f36565b604051908082528060200260200182016040528015610c2857816020015b6040805160a0810182526000808252606060208301819052928201819052828201526080810191909152815260200190600190039081610beb5790505b50905060005b60075467ffffffffffffffff82161015610e395760008060078367ffffffffffffffff1681548110610c6257610c6261156d565b6000918252602080832060048304015460039092166008026101000a90910467ffffffffffffffff1683528281019390935260409182019020815160a08101909252805460ff16151582526001810180549293919291840191610cc49061135d565b80601f0160208091040260200160405190810160405280929190818152602001828054610cf09061135d565b8015610d3d5780601f10610d1257610100808354040283529160200191610d3d565b820191906000526020600020905b815481529060010190602001808311610d2057829003601f168201915b5050509183525050600282015460ff81161515602083015261010090046001600160a01b03166040820152600382018054606090920191610d7d9061135d565b80601f0160208091040260200160405190810160405280929190818152602001828054610da99061135d565b8015610df65780601f10610dcb57610100808354040283529160200191610df6565b820191906000526020600020905b815481529060010190602001808311610dd957829003601f168201915b505050505081525050828267ffffffffffffffff1681518110610e1b57610e1b61156d565b60200260200101819052508080610e3190611583565b915050610c2e565b50919050565b60006001600160a01b0382165b92915050565b610e5b81610e3f565b8114610e6657600080fd5b50565b8035610e4c81610e52565b600060208284031215610e8957610e89600080fd5b6000610e958484610e69565b949350505050565b8015155b82525050565b60208101610e4c8284610e9d565b67ffffffffffffffff8116610e5b565b8035610e4c81610eb5565b600060208284031215610ee557610ee5600080fd5b6000610e958484610ec5565b610ea181610e3f565b60208101610e4c8284610ef1565b80610ea1565b60608101610f1c8286610f08565b610f296020830185610f08565b610e956040830184610f08565b634e487b7160e01b600052604160045260246000fd5b601f19601f830116810181811067ffffffffffffffff82111715610f7257610f72610f36565b6040525050565b6000610f8460405190565b9050610f908282610f4c565b919050565b600067ffffffffffffffff821115610faf57610faf610f36565b601f19601f83011660200192915050565b82818337506000910152565b6000610fdf610fda84610f95565b610f79565b905082815260208101848484011115610ffa57610ffa600080fd5b611005848285610fc0565b509392505050565b600082601f83011261102157611021600080fd5b8135610e95848260208601610fcc565b6000806040838503121561104757611047600080fd5b60006110538585610ec5565b925050602083013567ffffffffffffffff81111561107357611073600080fd5b61107f8582860161100d565b9150509250929050565b80610e5b565b8035610e4c81611089565b600080604083850312156110b0576110b0600080fd5b60006110bc8585610ec5565b925050602061107f8582860161108f565b6000602082840312156110e2576110e2600080fd5b6000610e95848461108f565b67ffffffffffffffff8116610ea1565b60208101610e4c82846110ee565b60005b8381101561112757818101518382015260200161110f565b50506000910152565b600061113a825190565b80845260208401935061115181856020860161110c565b601f01601f19169290920192915050565b60a081016111708288610e9d565b81810360208301526111828187611130565b90506111916040830186610e9d565b61119e6060830185610ef1565b81810360808301526111b08184611130565b979650505050505050565b60208101610e4c8284610f08565b805160009060a08401906111dd8582610e9d565b50602083015184820360208601526111f58282611130565b915050604083015161120a6040860182610e9d565b50606083015161121d6060860182610ef1565b50608083015184820360808601526112358282611130565b95945050505050565b6020808252810161124f81846111c9565b9392505050565b600061126283836110ee565b505060200190565b6000611274825190565b80845260209384019383018060005b838110156112a85781516112978882611256565b975060208301925050600101611283565b509495945050505050565b6020808252810161124f818461126a565b600061124f83836111c9565b60006112da825190565b808452602084019350836020820285016112f48560200190565b8060005b85811015611329578484038952815161131185826112c4565b94506020830160209a909a01999250506001016112f8565b5091979650505050505050565b6020808252810161124f81846112d0565b634e487b7160e01b600052602260045260246000fd5b60028104600182168061137157607f821691505b602082108103610e3957610e39611347565b6000610e4c61138f8381565b90565b61139b83611383565b815460001960089490940293841b1916921b91909117905550565b60006113c3818484611392565b505050565b818110156113e3576113db6000826113b6565b6001016113c8565b5050565b601f8211156113c3576000818152602090206020601f8501048101602085101561140e5750805b6114206020601f8601048301826113c8565b5050505050565b815167ffffffffffffffff81111561144157611441610f36565b61144b825461135d565b6114568282856113e7565b6020601f83116001811461148a57600084156114725750858201515b600019600886021c19811660028602178655506114e3565b600085815260208120601f198616915b828110156114ba578885015182556020948501946001909201910161149a565b868310156114d65784890151600019601f89166008021c191682555b6001600288020188555050505b505050505050565b634e487b7160e01b600052601160045260246000fd5b60006000198203611514576115146114eb565b5060010190565b60008161152a5761152a6114eb565b506000190190565b60208082528101610e4c81601881527f616c6c6f636174696f6e2065786365656473206c696d69740000000000000000602082015260400190565b634e487b7160e01b600052603260045260246000fd5b67ffffffffffffffff16600067fffffffffffffffe198201611514576115146114eb56fea264697066735822122029aa58401d3b66d6ed507d7410ec715255174ed96d71afe59ce4c02ff5c081e764736f6c63430008140033",
  "devdoc": {
    "kind": "dev",
    "methods": {},
    "version": 1
  },
  "userdoc": {
    "kind": "user",
    "methods": {},
    "version": 1
  },
  "storageLayout": {
    "storage": [
      {
        "astId": 11616,
        "contract": "contracts/ClientRegistry.sol:ClientRegistry",
        "label": "clients",
        "offset": 0,
        "slot": "0",
        "type": "t_mapping(t_uint64,t_struct(Client)13559_storage)"
      },
      {
        "astId": 11621,
        "contract": "contracts/ClientRegistry.sol:ClientRegistry",
        "label": "allocations",
        "offset": 0,
        "slot": "1",
        "type": "t_mapping(t_uint64,t_struct(ClientAllocation)13566_storage)"
      },
      {
        "astId": 11626,
        "contract": "contracts/ClientRegistry.sol:ClientRegistry",
        "label": "allocationRequests",
        "offset": 0,
        "slot": "2",
        "type": "t_mapping(t_uint64,t_struct(AllocationRequest)13573_storage)"
      },
      {
        "astId": 11632,
        "contract": "contracts/ClientRegistry.sol:ClientRegistry",
        "label": "clientAllocations",
        "offset": 0,
        "slot": "3",
        "type": "t_mapping(t_uint64,t_array(t_struct(AllocationRequest)13573_storage)dyn_storage)"
      },
      {
        "astId": 11636,
        "contract": "contracts/ClientRegistry.sol:ClientRegistry",
        "label": "pools",
        "offset": 0,
        "slot": "4",
        "type": "t_mapping(t_address,t_bool)"
      },
      {
        "astId": 11640,
        "contract": "contracts/ClientRegistry.sol:ClientRegistry",
        "label": "clientAddressToId",
        "offset": 0,
        "slot": "5",
        "type": "t_mapping(t_address,t_uint64)"
      },
      {
        "astId": 11644,
        "contract": "contracts/ClientRegistry.sol:ClientRegistry",
        "label": "whitelistedClients",
        "offset": 0,
        "slot": "6",
        "type": "t_mapping(t_uint64,t_bool)"
      },
      {
        "astId": 11647,
        "contract": "contracts/ClientRegistry.sol:ClientRegistry",
        "label": "clientsList",
        "offset": 0,
        "slot": "7",
        "type": "t_array(t_uint64)dyn_storage"
      },
      {
        "astId": 11649,
        "contract": "contracts/ClientRegistry.sol:ClientRegistry",
        "label": "whitelistedCount",
        "offset": 0,
        "slot": "8",
        "type": "t_uint256"
      },
      {
        "astId": 11652,
        "contract": "contracts/ClientRegistry.sol:ClientRegistry",
        "label": "allocationLimit",
        "offset": 0,
        "slot": "9",
        "type": "t_uint256"
      }
    ],
    "types": {
      "t_address": {
        "encoding": "inplace",
        "label": "address",
        "numberOfBytes": "20"
      },
      "t_array(t_struct(AllocationRequest)13573_storage)dyn_storage": {
        "base": "t_struct(AllocationRequest)13573_storage",
        "encoding": "dynamic_array",
        "label": "struct ClientTypes.AllocationRequest[]",
        "numberOfBytes": "32"
      },
      "t_array(t_uint64)dyn_storage": {
        "base": "t_uint64",
        "encoding": "dynamic_array",
        "label": "uint64[]",
        "numberOfBytes": "32"
      },
      "t_bool": {
        "encoding": "inplace",
        "label": "bool",
        "numberOfBytes": "1"
      },
      "t_mapping(t_address,t_bool)": {
        "encoding": "mapping",
        "key": "t_address",
        "label": "mapping(address => bool)",
        "numberOfBytes": "32",
        "value": "t_bool"
      },
      "t_mapping(t_address,t_uint64)": {
        "encoding": "mapping",
        "key": "t_address",
        "label": "mapping(address => uint64)",
        "numberOfBytes": "32",
        "value": "t_uint64"
      },
      "t_mapping(t_uint64,t_array(t_struct(AllocationRequest)13573_storage)dyn_storage)": {
        "encoding": "mapping",
        "key": "t_uint64",
        "label": "mapping(uint64 => struct ClientTypes.AllocationRequest[])",
        "numberOfBytes": "32",
        "value": "t_array(t_struct(AllocationRequest)13573_storage)dyn_storage"
      },
      "t_mapping(t_uint64,t_bool)": {
        "encoding": "mapping",
        "key": "t_uint64",
        "label": "mapping(uint64 => bool)",
        "numberOfBytes": "32",
        "value": "t_bool"
      },
      "t_mapping(t_uint64,t_struct(AllocationRequest)13573_storage)": {
        "encoding": "mapping",
        "key": "t_uint64",
        "label": "mapping(uint64 => struct ClientTypes.AllocationRequest)",
        "numberOfBytes": "32",
        "value": "t_struct(AllocationRequest)13573_storage"
      },
      "t_mapping(t_uint64,t_struct(Client)13559_storage)": {
        "encoding": "mapping",
        "key": "t_uint64",
        "label": "mapping(uint64 => struct ClientTypes.Client)",
        "numberOfBytes": "32",
        "value": "t_struct(Client)13559_storage"
      },
      "t_mapping(t_uint64,t_struct(ClientAllocation)13566_storage)": {
        "encoding": "mapping",
        "key": "t_uint64",
        "label": "mapping(uint64 => struct ClientTypes.ClientAllocation)",
        "numberOfBytes": "32",
        "value": "t_struct(ClientAllocation)13566_storage"
      },
      "t_string_storage": {
        "encoding": "bytes",
        "label": "string",
        "numberOfBytes": "32"
      },
      "t_struct(AllocationRequest)13573_storage": {
        "encoding": "inplace",
        "label": "struct ClientTypes.AllocationRequest",
        "members": [
          {
            "astId": 13568,
            "contract": "contracts/ClientRegistry.sol:ClientRegistry",
            "label": "allocationLimit",
            "offset": 0,
            "slot": "0",
            "type": "t_uint256"
          },
          {
            "astId": 13570,
            "contract": "contracts/ClientRegistry.sol:ClientRegistry",
            "label": "dailyAllocation",
            "offset": 0,
            "slot": "1",
            "type": "t_uint256"
          },
          {
            "astId": 13572,
            "contract": "contracts/ClientRegistry.sol:ClientRegistry",
            "label": "oneTimeAllocation",
            "offset": 0,
            "slot": "2",
            "type": "t_uint256"
          }
        ],
        "numberOfBytes": "96"
      },
      "t_struct(Client)13559_storage": {
        "encoding": "inplace",
        "label": "struct ClientTypes.Client",
        "members": [
          {
            "astId": 13550,
            "contract": "contracts/ClientRegistry.sol:ClientRegistry",
            "label": "verified",
            "offset": 0,
            "slot": "0",
            "type": "t_bool"
          },
          {
            "astId": 13552,
            "contract": "contracts/ClientRegistry.sol:ClientRegistry",
            "label": "verificationFormCID",
            "offset": 0,
            "slot": "1",
            "type": "t_string_storage"
          },
          {
            "astId": 13554,
            "contract": "contracts/ClientRegistry.sol:ClientRegistry",
            "label": "blacklisted",
            "offset": 0,
            "slot": "2",
            "type": "t_bool"
          },
          {
            "astId": 13556,
            "contract": "contracts/ClientRegistry.sol:ClientRegistry",
            "label": "ethAddress",
            "offset": 1,
            "slot": "2",
            "type": "t_address"
          },
          {
            "astId": 13558,
            "contract": "contracts/ClientRegistry.sol:ClientRegistry",
            "label": "name",
            "offset": 0,
            "slot": "3",
            "type": "t_string_storage"
          }
        ],
        "numberOfBytes": "128"
      },
      "t_struct(ClientAllocation)13566_storage": {
        "encoding": "inplace",
        "label": "struct ClientTypes.ClientAllocation",
        "members": [
          {
            "astId": 13561,
            "contract": "contracts/ClientRegistry.sol:ClientRegistry",
            "label": "allocation",
            "offset": 0,
            "slot": "0",
            "type": "t_uint256"
          },
          {
            "astId": 13563,
            "contract": "contracts/ClientRegistry.sol:ClientRegistry",
            "label": "allocationLimit",
            "offset": 0,
            "slot": "1",
            "type": "t_uint256"
          },
          {
            "astId": 13565,
            "contract": "contracts/ClientRegistry.sol:ClientRegistry",
            "label": "dailyAllocation",
            "offset": 0,
            "slot": "2",
            "type": "t_uint256"
          }
        ],
        "numberOfBytes": "96"
      },
      "t_uint256": {
        "encoding": "inplace",
        "label": "uint256",
        "numberOfBytes": "32"
      },
      "t_uint64": {
        "encoding": "inplace",
        "label": "uint64",
        "numberOfBytes": "8"
      }
    }
  }
}