{
  "address": "0xD5F491bd3048B4E64C31A1Cbf36190726a9406dA",
  "abi": [
    {
      "inputs": [],
      "stateMutability": "nonpayable",
      "type": "constructor"
    },
    {
      "inputs": [],
      "name": "AccessControlBadConfirmation",
      "type": "error"
    },
    {
      "inputs": [
        {
          "internalType": "address",
          "name": "account",
          "type": "address"
        },
        {
          "internalType": "bytes32",
          "name": "neededRole",
          "type": "bytes32"
        }
      ],
      "name": "AccessControlUnauthorizedAccount",
      "type": "error"
    },
    {
      "inputs": [
        {
          "internalType": "address",
          "name": "target",
          "type": "address"
        }
      ],
      "name": "AddressEmptyCode",
      "type": "error"
    },
    {
      "inputs": [
        {
          "internalType": "address",
          "name": "account",
          "type": "address"
        }
      ],
      "name": "AddressInsufficientBalance",
      "type": "error"
    },
    {
      "inputs": [],
      "name": "AllowanceUnderflow",
      "type": "error"
    },
    {
      "inputs": [
        {
          "internalType": "address",
          "name": "spender",
          "type": "address"
        },
        {
          "internalType": "uint256",
          "name": "allowance",
          "type": "uint256"
        },
        {
          "internalType": "uint256",
          "name": "needed",
          "type": "uint256"
        }
      ],
      "name": "ERC20InsufficientAllowance",
      "type": "error"
    },
    {
      "inputs": [
        {
          "internalType": "address",
          "name": "sender",
          "type": "address"
        },
        {
          "internalType": "uint256",
          "name": "balance",
          "type": "uint256"
        },
        {
          "internalType": "uint256",
          "name": "needed",
          "type": "uint256"
        }
      ],
      "name": "ERC20InsufficientBalance",
      "type": "error"
    },
    {
      "inputs": [
        {
          "internalType": "address",
          "name": "approver",
          "type": "address"
        }
      ],
      "name": "ERC20InvalidApprover",
      "type": "error"
    },
    {
      "inputs": [
        {
          "internalType": "address",
          "name": "receiver",
          "type": "address"
        }
      ],
      "name": "ERC20InvalidReceiver",
      "type": "error"
    },
    {
      "inputs": [
        {
          "internalType": "address",
          "name": "sender",
          "type": "address"
        }
      ],
      "name": "ERC20InvalidSender",
      "type": "error"
    },
    {
      "inputs": [
        {
          "internalType": "address",
          "name": "spender",
          "type": "address"
        }
      ],
      "name": "ERC20InvalidSpender",
      "type": "error"
    },
    {
      "inputs": [
        {
          "internalType": "address",
          "name": "receiver",
          "type": "address"
        },
        {
          "internalType": "uint256",
          "name": "assets",
          "type": "uint256"
        },
        {
          "internalType": "uint256",
          "name": "max",
          "type": "uint256"
        }
      ],
      "name": "ERC4626ExceededMaxDeposit",
      "type": "error"
    },
    {
      "inputs": [
        {
          "internalType": "address",
          "name": "receiver",
          "type": "address"
        },
        {
          "internalType": "uint256",
          "name": "shares",
          "type": "uint256"
        },
        {
          "internalType": "uint256",
          "name": "max",
          "type": "uint256"
        }
      ],
      "name": "ERC4626ExceededMaxMint",
      "type": "error"
    },
    {
      "inputs": [
        {
          "internalType": "address",
          "name": "owner",
          "type": "address"
        },
        {
          "internalType": "uint256",
          "name": "shares",
          "type": "uint256"
        },
        {
          "internalType": "uint256",
          "name": "max",
          "type": "uint256"
        }
      ],
      "name": "ERC4626ExceededMaxRedeem",
      "type": "error"
    },
    {
      "inputs": [
        {
          "internalType": "address",
          "name": "owner",
          "type": "address"
        },
        {
          "internalType": "uint256",
          "name": "assets",
          "type": "uint256"
        },
        {
          "internalType": "uint256",
          "name": "max",
          "type": "uint256"
        }
      ],
      "name": "ERC4626ExceededMaxWithdraw",
      "type": "error"
    },
    {
      "inputs": [],
      "name": "ERC4626Overflow",
      "type": "error"
    },
    {
      "inputs": [],
      "name": "ERC4626Underflow",
      "type": "error"
    },
    {
      "inputs": [],
      "name": "ERC4626ZeroShares",
      "type": "error"
    },
    {
      "inputs": [],
      "name": "FailedInnerCall",
      "type": "error"
    },
    {
      "inputs": [],
      "name": "InactiveActor",
      "type": "error"
    },
    {
      "inputs": [],
      "name": "InsufficientFunds",
      "type": "error"
    },
    {
      "inputs": [],
      "name": "InvalidAccess",
      "type": "error"
    },
    {
      "inputs": [],
      "name": "InvalidOwner",
      "type": "error"
    },
    {
      "inputs": [],
      "name": "InvalidParams",
      "type": "error"
    },
    {
      "inputs": [],
      "name": "MathOverflowedMulDiv",
      "type": "error"
    },
    {
      "inputs": [],
      "name": "ReentrancyGuardReentrantCall",
      "type": "error"
    },
    {
      "inputs": [
        {
          "internalType": "address",
          "name": "token",
          "type": "address"
        }
      ],
      "name": "SafeERC20FailedOperation",
      "type": "error"
    },
    {
      "anonymous": false,
      "inputs": [
        {
          "indexed": true,
          "internalType": "address",
          "name": "owner",
          "type": "address"
        },
        {
          "indexed": true,
          "internalType": "address",
          "name": "spender",
          "type": "address"
        },
        {
          "indexed": false,
          "internalType": "uint256",
          "name": "value",
          "type": "uint256"
        }
      ],
      "name": "Approval",
      "type": "event"
    },
    {
      "anonymous": false,
      "inputs": [
        {
          "indexed": true,
          "internalType": "address",
          "name": "sender",
          "type": "address"
        },
        {
          "indexed": true,
          "internalType": "address",
          "name": "owner",
          "type": "address"
        },
        {
          "indexed": false,
          "internalType": "uint256",
          "name": "assets",
          "type": "uint256"
        },
        {
          "indexed": false,
          "internalType": "uint256",
          "name": "shares",
          "type": "uint256"
        }
      ],
      "name": "Deposit",
      "type": "event"
    },
    {
      "anonymous": false,
      "inputs": [
        {
          "indexed": true,
          "internalType": "bytes32",
          "name": "role",
          "type": "bytes32"
        },
        {
          "indexed": true,
          "internalType": "bytes32",
          "name": "previousAdminRole",
          "type": "bytes32"
        },
        {
          "indexed": true,
          "internalType": "bytes32",
          "name": "newAdminRole",
          "type": "bytes32"
        }
      ],
      "name": "RoleAdminChanged",
      "type": "event"
    },
    {
      "anonymous": false,
      "inputs": [
        {
          "indexed": true,
          "internalType": "bytes32",
          "name": "role",
          "type": "bytes32"
        },
        {
          "indexed": true,
          "internalType": "address",
          "name": "account",
          "type": "address"
        },
        {
          "indexed": true,
          "internalType": "address",
          "name": "sender",
          "type": "address"
        }
      ],
      "name": "RoleGranted",
      "type": "event"
    },
    {
      "anonymous": false,
      "inputs": [
        {
          "indexed": true,
          "internalType": "bytes32",
          "name": "role",
          "type": "bytes32"
        },
        {
          "indexed": true,
          "internalType": "address",
          "name": "account",
          "type": "address"
        },
        {
          "indexed": true,
          "internalType": "address",
          "name": "sender",
          "type": "address"
        }
      ],
      "name": "RoleRevoked",
      "type": "event"
    },
    {
      "anonymous": false,
      "inputs": [
        {
          "indexed": true,
          "internalType": "address",
          "name": "from",
          "type": "address"
        },
        {
          "indexed": true,
          "internalType": "address",
          "name": "to",
          "type": "address"
        },
        {
          "indexed": false,
          "internalType": "uint256",
          "name": "value",
          "type": "uint256"
        }
      ],
      "name": "Transfer",
      "type": "event"
    },
    {
      "anonymous": false,
      "inputs": [
        {
          "indexed": true,
          "internalType": "address",
          "name": "sender",
          "type": "address"
        },
        {
          "indexed": true,
          "internalType": "address",
          "name": "receiver",
          "type": "address"
        },
        {
          "indexed": true,
          "internalType": "address",
          "name": "owner",
          "type": "address"
        },
        {
          "indexed": false,
          "internalType": "uint256",
          "name": "assets",
          "type": "uint256"
        },
        {
          "indexed": false,
          "internalType": "uint256",
          "name": "shares",
          "type": "uint256"
        }
      ],
      "name": "Withdraw",
      "type": "event"
    },
    {
      "stateMutability": "payable",
      "type": "fallback"
    },
    {
      "inputs": [],
      "name": "DEFAULT_ADMIN_ROLE",
      "outputs": [
        {
          "internalType": "bytes32",
          "name": "",
          "type": "bytes32"
        }
      ],
      "stateMutability": "view",
      "type": "function"
    },
    {
      "inputs": [],
      "name": "WFIL",
      "outputs": [
        {
          "internalType": "contract IWFIL",
          "name": "",
          "type": "address"
        }
      ],
      "stateMutability": "view",
      "type": "function"
    },
    {
      "inputs": [
        {
          "internalType": "address",
          "name": "owner",
          "type": "address"
        },
        {
          "internalType": "address",
          "name": "spender",
          "type": "address"
        }
      ],
      "name": "allowance",
      "outputs": [
        {
          "internalType": "uint256",
          "name": "",
          "type": "uint256"
        }
      ],
      "stateMutability": "view",
      "type": "function"
    },
    {
      "inputs": [
        {
          "internalType": "address",
          "name": "spender",
          "type": "address"
        },
        {
          "internalType": "uint256",
          "name": "value",
          "type": "uint256"
        }
      ],
      "name": "approve",
      "outputs": [
        {
          "internalType": "bool",
          "name": "",
          "type": "bool"
        }
      ],
      "stateMutability": "nonpayable",
      "type": "function"
    },
    {
      "inputs": [],
      "name": "asset",
      "outputs": [
        {
          "internalType": "address",
          "name": "",
          "type": "address"
        }
      ],
      "stateMutability": "view",
      "type": "function"
    },
    {
      "inputs": [
        {
          "internalType": "address",
          "name": "account",
          "type": "address"
        }
      ],
      "name": "balanceOf",
      "outputs": [
        {
          "internalType": "uint256",
          "name": "",
          "type": "uint256"
        }
      ],
      "stateMutability": "view",
      "type": "function"
    },
    {
      "inputs": [
        {
          "internalType": "uint64",
          "name": "_dealId",
          "type": "uint64"
        },
        {
          "internalType": "address",
          "name": "clientEthAddress",
          "type": "address"
        }
      ],
      "name": "claimSubsidyOnDeal",
      "outputs": [],
      "stateMutability": "nonpayable",
      "type": "function"
    },
    {
      "inputs": [
        {
          "internalType": "uint256",
          "name": "shares",
          "type": "uint256"
        }
      ],
      "name": "convertToAssets",
      "outputs": [
        {
          "internalType": "uint256",
          "name": "",
          "type": "uint256"
        }
      ],
      "stateMutability": "view",
      "type": "function"
    },
    {
      "inputs": [
        {
          "internalType": "uint256",
          "name": "assets",
          "type": "uint256"
        }
      ],
      "name": "convertToShares",
      "outputs": [
        {
          "internalType": "uint256",
          "name": "",
          "type": "uint256"
        }
      ],
      "stateMutability": "view",
      "type": "function"
    },
    {
      "inputs": [
        {
          "internalType": "uint64",
          "name": "",
          "type": "uint64"
        }
      ],
      "name": "dealsSubsidized",
      "outputs": [
        {
          "internalType": "bool",
          "name": "",
          "type": "bool"
        }
      ],
      "stateMutability": "view",
      "type": "function"
    },
    {
      "inputs": [],
      "name": "decimals",
      "outputs": [
        {
          "internalType": "uint8",
          "name": "",
          "type": "uint8"
        }
      ],
      "stateMutability": "view",
      "type": "function"
    },
    {
      "inputs": [
        {
          "internalType": "uint256",
          "name": "assets",
          "type": "uint256"
        },
        {
          "internalType": "address",
          "name": "receiver",
          "type": "address"
        }
      ],
      "name": "deposit",
      "outputs": [
        {
          "internalType": "uint256",
          "name": "",
          "type": "uint256"
        }
      ],
      "stateMutability": "nonpayable",
      "type": "function"
    },
    {
      "inputs": [
        {
          "internalType": "bytes32",
          "name": "role",
          "type": "bytes32"
        }
      ],
      "name": "getRoleAdmin",
      "outputs": [
        {
          "internalType": "bytes32",
          "name": "",
          "type": "bytes32"
        }
      ],
      "stateMutability": "view",
      "type": "function"
    },
    {
      "inputs": [
        {
          "internalType": "address",
          "name": "clientEthAddress",
          "type": "address"
        }
      ],
      "name": "getSubsidyBalance",
      "outputs": [
        {
          "internalType": "uint256",
          "name": "",
          "type": "uint256"
        }
      ],
      "stateMutability": "view",
      "type": "function"
    },
    {
      "inputs": [
        {
          "internalType": "bytes32",
          "name": "role",
          "type": "bytes32"
        },
        {
          "internalType": "address",
          "name": "account",
          "type": "address"
        }
      ],
      "name": "grantRole",
      "outputs": [],
      "stateMutability": "nonpayable",
      "type": "function"
    },
    {
      "inputs": [
        {
          "internalType": "bytes32",
          "name": "role",
          "type": "bytes32"
        },
        {
          "internalType": "address",
          "name": "account",
          "type": "address"
        }
      ],
      "name": "hasRole",
      "outputs": [
        {
          "internalType": "bool",
          "name": "",
          "type": "bool"
        }
      ],
      "stateMutability": "view",
      "type": "function"
    },
    {
      "inputs": [
        {
          "internalType": "address",
          "name": "",
          "type": "address"
        }
      ],
      "name": "maxDeposit",
      "outputs": [
        {
          "internalType": "uint256",
          "name": "",
          "type": "uint256"
        }
      ],
      "stateMutability": "view",
      "type": "function"
    },
    {
      "inputs": [
        {
          "internalType": "address",
          "name": "",
          "type": "address"
        }
      ],
      "name": "maxMint",
      "outputs": [
        {
          "internalType": "uint256",
          "name": "",
          "type": "uint256"
        }
      ],
      "stateMutability": "view",
      "type": "function"
    },
    {
      "inputs": [
        {
          "internalType": "address",
          "name": "owner",
          "type": "address"
        }
      ],
      "name": "maxRedeem",
      "outputs": [
        {
          "internalType": "uint256",
          "name": "",
          "type": "uint256"
        }
      ],
      "stateMutability": "view",
      "type": "function"
    },
    {
      "inputs": [
        {
          "internalType": "address",
          "name": "owner",
          "type": "address"
        }
      ],
      "name": "maxWithdraw",
      "outputs": [
        {
          "internalType": "uint256",
          "name": "",
          "type": "uint256"
        }
      ],
      "stateMutability": "view",
      "type": "function"
    },
    {
      "inputs": [
        {
          "internalType": "uint256",
          "name": "shares",
          "type": "uint256"
        },
        {
          "internalType": "address",
          "name": "receiver",
          "type": "address"
        }
      ],
      "name": "mint",
      "outputs": [
        {
          "internalType": "uint256",
          "name": "",
          "type": "uint256"
        }
      ],
      "stateMutability": "nonpayable",
      "type": "function"
    },
    {
      "inputs": [],
      "name": "name",
      "outputs": [
        {
          "internalType": "string",
          "name": "",
          "type": "string"
        }
      ],
      "stateMutability": "view",
      "type": "function"
    },
    {
      "inputs": [
        {
          "internalType": "address",
          "name": "clientEthAddress",
          "type": "address"
        },
        {
          "internalType": "uint256",
          "name": "amount",
          "type": "uint256"
        }
      ],
      "name": "pledge",
      "outputs": [],
      "stateMutability": "nonpayable",
      "type": "function"
    },
    {
      "inputs": [
        {
          "internalType": "address",
          "name": "clientAddress",
          "type": "address"
        }
      ],
      "name": "pledge",
      "outputs": [],
      "stateMutability": "nonpayable",
      "type": "function"
    },
    {
      "inputs": [
        {
          "internalType": "uint256",
          "name": "assets",
          "type": "uint256"
        }
      ],
      "name": "previewDeposit",
      "outputs": [
        {
          "internalType": "uint256",
          "name": "",
          "type": "uint256"
        }
      ],
      "stateMutability": "view",
      "type": "function"
    },
    {
      "inputs": [
        {
          "internalType": "uint256",
          "name": "shares",
          "type": "uint256"
        }
      ],
      "name": "previewMint",
      "outputs": [
        {
          "internalType": "uint256",
          "name": "",
          "type": "uint256"
        }
      ],
      "stateMutability": "view",
      "type": "function"
    },
    {
      "inputs": [
        {
          "internalType": "uint256",
          "name": "shares",
          "type": "uint256"
        }
      ],
      "name": "previewRedeem",
      "outputs": [
        {
          "internalType": "uint256",
          "name": "",
          "type": "uint256"
        }
      ],
      "stateMutability": "view",
      "type": "function"
    },
    {
      "inputs": [
        {
          "internalType": "uint256",
          "name": "assets",
          "type": "uint256"
        }
      ],
      "name": "previewWithdraw",
      "outputs": [
        {
          "internalType": "uint256",
          "name": "",
          "type": "uint256"
        }
      ],
      "stateMutability": "view",
      "type": "function"
    },
    {
      "inputs": [
        {
          "internalType": "uint256",
          "name": "shares",
          "type": "uint256"
        },
        {
          "internalType": "address",
          "name": "receiver",
          "type": "address"
        },
        {
          "internalType": "address",
          "name": "owner",
          "type": "address"
        }
      ],
      "name": "redeem",
      "outputs": [
        {
          "internalType": "uint256",
          "name": "",
          "type": "uint256"
        }
      ],
      "stateMutability": "nonpayable",
      "type": "function"
    },
    {
      "inputs": [
        {
          "internalType": "bytes32",
          "name": "role",
          "type": "bytes32"
        },
        {
          "internalType": "address",
          "name": "callerConfirmation",
          "type": "address"
        }
      ],
      "name": "renounceRole",
      "outputs": [],
      "stateMutability": "nonpayable",
      "type": "function"
    },
    {
      "inputs": [
        {
          "internalType": "bytes32",
          "name": "role",
          "type": "bytes32"
        },
        {
          "internalType": "address",
          "name": "account",
          "type": "address"
        }
      ],
      "name": "revokeRole",
      "outputs": [],
      "stateMutability": "nonpayable",
      "type": "function"
    },
    {
      "inputs": [
        {
          "internalType": "address",
          "name": "_clientRegistry",
          "type": "address"
        }
      ],
      "name": "setClientRegistry",
      "outputs": [],
      "stateMutability": "nonpayable",
      "type": "function"
    },
    {
      "inputs": [
        {
          "internalType": "address",
          "name": "_retrievalRoyalty",
          "type": "address"
        }
      ],
      "name": "setRetrievalRoyalty",
      "outputs": [],
      "stateMutability": "nonpayable",
      "type": "function"
    },
    {
      "inputs": [
        {
          "internalType": "address",
          "name": "_storageProviderRegistry",
          "type": "address"
        }
      ],
      "name": "setStorageProviderRegistry",
      "outputs": [],
      "stateMutability": "nonpayable",
      "type": "function"
    },
    {
      "inputs": [],
      "name": "stake",
      "outputs": [
        {
          "internalType": "uint256",
          "name": "shares",
          "type": "uint256"
        }
      ],
      "stateMutability": "payable",
      "type": "function"
    },
    {
      "inputs": [
        {
          "internalType": "address",
          "name": "",
          "type": "address"
        }
      ],
      "name": "subsidyBalance",
      "outputs": [
        {
          "internalType": "uint256",
          "name": "",
          "type": "uint256"
        }
      ],
      "stateMutability": "view",
      "type": "function"
    },
    {
      "inputs": [
        {
          "internalType": "bytes4",
          "name": "interfaceId",
          "type": "bytes4"
        }
      ],
      "name": "supportsInterface",
      "outputs": [
        {
          "internalType": "bool",
          "name": "",
          "type": "bool"
        }
      ],
      "stateMutability": "view",
      "type": "function"
    },
    {
      "inputs": [],
      "name": "symbol",
      "outputs": [
        {
          "internalType": "string",
          "name": "",
          "type": "string"
        }
      ],
      "stateMutability": "view",
      "type": "function"
    },
    {
      "inputs": [],
      "name": "totalAssets",
      "outputs": [
        {
          "internalType": "uint256",
          "name": "",
          "type": "uint256"
        }
      ],
      "stateMutability": "view",
      "type": "function"
    },
    {
      "inputs": [],
      "name": "totalFilAvailable",
      "outputs": [
        {
          "internalType": "uint256",
          "name": "",
          "type": "uint256"
        }
      ],
      "stateMutability": "view",
      "type": "function"
    },
    {
      "inputs": [],
      "name": "totalSupply",
      "outputs": [
        {
          "internalType": "uint256",
          "name": "",
          "type": "uint256"
        }
      ],
      "stateMutability": "view",
      "type": "function"
    },
    {
      "inputs": [
        {
          "internalType": "address",
          "name": "to",
          "type": "address"
        },
        {
          "internalType": "uint256",
          "name": "value",
          "type": "uint256"
        }
      ],
      "name": "transfer",
      "outputs": [
        {
          "internalType": "bool",
          "name": "",
          "type": "bool"
        }
      ],
      "stateMutability": "nonpayable",
      "type": "function"
    },
    {
      "inputs": [
        {
          "internalType": "address",
          "name": "from",
          "type": "address"
        },
        {
          "internalType": "address",
          "name": "to",
          "type": "address"
        },
        {
          "internalType": "uint256",
          "name": "value",
          "type": "uint256"
        }
      ],
      "name": "transferFrom",
      "outputs": [
        {
          "internalType": "bool",
          "name": "",
          "type": "bool"
        }
      ],
      "stateMutability": "nonpayable",
      "type": "function"
    },
    {
      "inputs": [
        {
          "internalType": "uint256",
          "name": "shares",
          "type": "uint256"
        },
        {
          "internalType": "address",
          "name": "owner",
          "type": "address"
        }
      ],
      "name": "unstake",
      "outputs": [
        {
          "internalType": "uint256",
          "name": "assets",
          "type": "uint256"
        }
      ],
      "stateMutability": "nonpayable",
      "type": "function"
    },
    {
      "inputs": [
        {
          "internalType": "uint256",
          "name": "assets",
          "type": "uint256"
        },
        {
          "internalType": "address",
          "name": "receiver",
          "type": "address"
        },
        {
          "internalType": "address",
          "name": "owner",
          "type": "address"
        }
      ],
      "name": "withdraw",
      "outputs": [
        {
          "internalType": "uint256",
          "name": "",
          "type": "uint256"
        }
      ],
      "stateMutability": "nonpayable",
      "type": "function"
    },
    {
      "stateMutability": "payable",
      "type": "receive"
    }
  ],
  "transactionHash": "0x7411927979aef6ac82cc92957d6d7e420c7d61c7a4943ca75936c0c0eaf974ac",
  "args": [],
  "numDeployments": 2,
  "solcInputHash": "cf54de00c8090f4f85684d23f8e759d3",
  "bytecode": "0x60c0604052612710600855600980546001600160a01b03191673ac26a4ab9cf2a8c5dbab6fb4351ec0f4b07356c41790553480156200003d57600080fd5b50600954604080518082018252600b81526a149bde585b1d1e4811925360aa1b6020808301919091528251808401909352600683526514949091925360d21b908301526001600160a01b03909216919060036200009b8382620003c2565b506004620000aa8282620003c2565b505050600080620000c1836200011c60201b60201c565b9150915081620000d3576012620000d5565b805b60ff1660a05250506001600160a01b039081166080526001600555600954600780546001600160a01b031916919092161790556200011560003362000201565b5062000527565b60408051600481526024810182526020810180516001600160e01b031663313ce56760e01b17905290516000918291829182916001600160a01b038716916200016591620004dd565b600060405180830381855afa9150503d8060008114620001a2576040519150601f19603f3d011682016040523d82523d6000602084013e620001a7565b606091505b5091509150818015620001bc57506020815110155b15620001f457600081806020019051810190620001da9190620004fa565b905060ff8111620001f2576001969095509350505050565b505b5060009485945092505050565b60008281526006602090815260408083206001600160a01b038516845290915281205460ff16620002aa5760008381526006602090815260408083206001600160a01b03861684529091529020805460ff19166001179055620002613390565b6001600160a01b0316826001600160a01b0316847f2f8788117e7eff1d82e926ec794901d17c78024a50270940304540a733656f0d60405160405180910390a4506001620002ae565b5060005b92915050565b634e487b7160e01b600052604160045260246000fd5b634e487b7160e01b600052602260045260246000fd5b600281046001821680620002f557607f821691505b6020821081036200030a576200030a620002ca565b50919050565b6000620002ae6200031e8381565b90565b6200032c8362000310565b815460001960089490940293841b1916921b91909117905550565b60006200035681848462000321565b505050565b818110156200037a576200037160008262000347565b6001016200035b565b5050565b601f82111562000356576000818152602090206020601f85010481016020851015620003a75750805b620003bb6020601f8601048301826200035b565b5050505050565b81516001600160401b03811115620003de57620003de620002b4565b620003ea8254620002e0565b620003f78282856200037e565b6020601f8311600181146200042e5760008415620004155750858201515b600019600886021c19811660028602178655506200048a565b600085815260208120601f198616915b828110156200046057888501518255602094850194600190920191016200043e565b868310156200047d5784890151600019601f89166008021c191682555b6001600288020188555050505b505050505050565b60005b83811015620004af57818101518382015260200162000495565b50506000910152565b6000620004c3825190565b620004d381856020860162000492565b9290920192915050565b6000620004eb8284620004b8565b9392505050565b8051620002ae565b600060208284031215620005115762000511600080fd5b60006200051f8484620004f2565b949350505050565b60805160a0516125466200055b6000396000610a840152600081816104ac015281816114ee015261174001526125466000f3fe6080604052600436106102c65760003560e01c80638381e18211610177578063ba087652116100d5578063d905777e11610084578063f216ed8a11610061578063f216ed8a1461083e578063f6be1a651461085c578063fdf6885e1461087c57005b8063d905777e146107d8578063dd62ed3e146107f8578063ef8b30f71461077857005b8063c6e6f592116100b2578063c6e6f59214610778578063ce96cb7714610798578063d547741f146107b857005b8063ba0876521461072b578063bad1d2a81461074b578063c63d75b6146104e057005b80639645186511610131578063b3d7f6b91161010e578063b3d7f6b9146106cb578063b460af94146106eb578063b73319ed1461070b57005b80639645186514610676578063a217fddf14610696578063a9059cbb146106ab57005b806391d148541161015f57806391d14854146105fb57806394bf804d1461064157806395d89b411461066157005b80638381e182146105ab578063914274e6146105cb57005b8063313ce567116102245780634cdad506116101de57806370a08231116101bb57806370a0823114610535578063743b34521461056b5780637616ed161461058b57005b80634cdad50614610349578063655cbba7146105005780636e553f651461051557005b806338d52e0f1161020c57806338d52e0f1461049d5780633a4b66f1146104d8578063402d267d146104e057005b8063313ce5671461045b57806336568abe1461047d57005b8063095ea7b31161028057806323b872dd1161025d57806323b872dd146103eb578063248a9ca31461040b5780632f2ff15d1461043b57005b8063095ea7b3146103965780630a28a477146103b657806318160ddd146103d657005b806306fdde03116102ae57806306fdde031461032757806307a2d13a1461034957806309448a861461036957005b806301e1d114146102cf57806301ffc9a7146102fa57005b366102cd57005b005b3480156102db57600080fd5b506102e46108b2565b6040516102f19190611dd3565b60405180910390f35b34801561030657600080fd5b5061031a610315366004611e1b565b6108ce565b6040516102f19190611e44565b34801561033357600080fd5b5061033c610967565b6040516102f19190611ea8565b34801561035557600080fd5b506102e4610364366004611eca565b6109f9565b34801561037557600080fd5b50600754610389906001600160a01b031681565b6040516102f19190611f25565b3480156103a257600080fd5b5061031a6103b1366004611f58565b610a06565b3480156103c257600080fd5b506102e46103d1366004611eca565b610a1e565b3480156103e257600080fd5b506002546102e4565b3480156103f757600080fd5b5061031a610406366004611f95565b610a2b565b34801561041757600080fd5b506102e4610426366004611eca565b60009081526006602052604090206001015490565b34801561044757600080fd5b506102cd610456366004611fe5565b610a51565b34801561046757600080fd5b50610470610a7c565b6040516102f19190612021565b34801561048957600080fd5b506102cd610498366004611fe5565b610aa8565b3480156104a957600080fd5b507f00000000000000000000000000000000000000000000000000000000000000006040516102f19190612038565b6102e4610af9565b3480156104ec57600080fd5b506102e46104fb366004612046565b610c42565b34801561050c57600080fd5b506102e4610c59565b34801561052157600080fd5b506102e4610530366004611fe5565b610ccf565b34801561054157600080fd5b506102e4610550366004612046565b6001600160a01b031660009081526020819052604090205490565b34801561057757600080fd5b506102cd610586366004611f58565b610d47565b34801561059757600080fd5b506102cd6105a6366004612046565b610dd2565b3480156105b757600080fd5b506102e46105c6366004611fe5565b610e0d565b3480156105d757600080fd5b5061031a6105e6366004612082565b600c6020526000908152604090205460ff1681565b34801561060757600080fd5b5061031a610616366004611fe5565b60009182526006602090815260408084206001600160a01b0393909316845291905290205460ff1690565b34801561064d57600080fd5b506102e461065c366004611fe5565b610e8f565b34801561066d57600080fd5b5061033c610ef6565b34801561068257600080fd5b506102cd6106913660046120a3565b610f05565b3480156106a257600080fd5b506102e4600081565b3480156106b757600080fd5b5061031a6106c6366004611f58565b610ffb565b3480156106d757600080fd5b506102e46106e6366004611eca565b611009565b3480156106f757600080fd5b506102e46107063660046120c5565b611016565b34801561071757600080fd5b506102cd610726366004612046565b611087565b34801561073757600080fd5b506102e46107463660046120c5565b6110c2565b34801561075757600080fd5b506102e4610766366004612046565b600a6020526000908152604090205481565b34801561078457600080fd5b506102e4610793366004611eca565b61112a565b3480156107a457600080fd5b506102e46107b3366004612046565b611137565b3480156107c457600080fd5b506102cd6107d3366004611fe5565b61115b565b3480156107e457600080fd5b506102e46107f3366004612046565b611180565b34801561080457600080fd5b506102e461081336600461210b565b6001600160a01b03918216600090815260016020908152604080832093909416825291909152205490565b34801561084a57600080fd5b506102cd610859366004612046565b50565b34801561086857600080fd5b506102cd610877366004612046565b61119e565b34801561088857600080fd5b506102e4610897366004612046565b6001600160a01b03166000908152600a602052604090205490565b6000600b546108bf610c59565b6108c99190612143565b905090565b60007fffffffff0000000000000000000000000000000000000000000000000000000082167f7965db0b00000000000000000000000000000000000000000000000000000000148061096157507f01ffc9a7000000000000000000000000000000000000000000000000000000007fffffffff000000000000000000000000000000000000000000000000000000008316145b92915050565b6060600380546109769061216c565b80601f01602080910402602001604051908101604052809291908181526020018280546109a29061216c565b80156109ef5780601f106109c4576101008083540402835291602001916109ef565b820191906000526020600020905b8154815290600101906020018083116109d257829003601f168201915b5050505050905090565b60006109618260006111d9565b600033610a14818585611213565b5060019392505050565b6000610961826001611220565b600033610a39858285611250565b610a448585856112ce565b60019150505b9392505050565b600082815260066020526040902060010154610a6c8161132d565b610a768383611337565b50505050565b60006108c9817f0000000000000000000000000000000000000000000000000000000000000000612198565b6001600160a01b0381163314610aea576040517f6697b23200000000000000000000000000000000000000000000000000000000815260040160405180910390fd5b610af482826113e5565b505050565b6000610b0361146c565b3433610b0e81610c42565b821115610b2e57604051630cd8567560e21b815260040160405180910390fd5b610b378261112a565b925082600003610b73576040517f6646782300000000000000000000000000000000000000000000000000000000815260040160405180910390fd5b600760009054906101000a90046001600160a01b03166001600160a01b031663d0e30db0836040518263ffffffff1660e01b81526004016000604051808303818588803b158015610bc357600080fd5b505af1158015610bd7573d6000803e3d6000fd5b5050505050610be681846114af565b6001600160a01b038116336001600160a01b03167fdcbc1c05240f31ff3ad067ef1ee35ce4997762752e3a095284754544f4c709d78486604051610c2b9291906121b5565b60405180910390a35050610c3f6001600555565b90565b6000610c4c610c59565b6008546109619190612143565b600b546007546040516370a0823160e01b8152600092916001600160a01b0316906370a0823190610c8e903090600401612038565b602060405180830381865afa158015610cab573d6000803e3d6000fd5b505050506040513d601f19601f820116820180604052508101906108bf91906121db565b600080610cdb83610c42565b905080841115610d26578284826040517f79012fb2000000000000000000000000000000000000000000000000000000008152600401610d1d939291906121fc565b60405180910390fd5b6000610d318561112a565b9050610d3f338587846114e9565b949350505050565b610d4f610c59565b811115610d88576040517fa86b651200000000000000000000000000000000000000000000000000000000815260040160405180910390fd5b6001600160a01b0382166000908152600a602052604081208054839290610db0908490612224565b9250508190555080600b6000828254610dc99190612224565b90915550505050565b6000610ddd8161132d565b50600e805473ffffffffffffffffffffffffffffffffffffffff19166001600160a01b0392909216919091179055565b6000610e1761146c565b610e2082611180565b831115610e4057604051630cd8567560e21b815260040160405180910390fd5b33610e4a846109f9565b9150826001600160a01b0316816001600160a01b031614610e7057610e70838286611250565b610e7a8385611572565b610e8481836115a8565b506109616001600555565b600080610e9b83610c42565b905080841115610edd578284826040517f284ff667000000000000000000000000000000000000000000000000000000008152600401610d1d939291906121fc565b6000610ee885611009565b9050610d3f338583886114e9565b6060600480546109769061216c565b67ffffffffffffffff82166000908152600c602052604090205460ff1615610f3f5760405162461bcd60e51b8152600401610d1d90612237565b6001600160a01b0381166000908152600a6020526040902054600110610f775760405162461bcd60e51b8152600401610d1d90612272565b600f546040517f5a295dfe0000000000000000000000000000000000000000000000000000000081526001600160a01b0390911690635a295dfe90610fc5908590600a9030906004016122f8565b600060405180830381600087803b158015610fdf57600080fd5b505af1158015610ff3573d6000803e3d6000fd5b505050505050565b600033610a148185856112ce565b60006109618260016111d9565b60008061102283611137565b905080851115611064578285826040517ffe9cceec000000000000000000000000000000000000000000000000000000008152600401610d1d939291906121fc565b600061106f86610a1e565b905061107e338686898561170d565b95945050505050565b60006110928161132d565b50600f805473ffffffffffffffffffffffffffffffffffffffff19166001600160a01b0392909216919091179055565b6000806110ce83611180565b905080851115611110578285826040517fb94abeec000000000000000000000000000000000000000000000000000000008152600401610d1d939291906121fc565b600061111b866109f9565b905061107e338686848a61170d565b6000610961826000611220565b6001600160a01b0381166000908152602081905260408120546109619060006111d9565b6000828152600660205260409020600101546111768161132d565b610a7683836113e5565b6001600160a01b038116600090815260208190526040812054610961565b60006111a98161132d565b50600d805473ffffffffffffffffffffffffffffffffffffffff19166001600160a01b0392909216919091179055565b6000610a4a6111e66108b2565b6111f1906001612224565b6111fd6000600a612429565b60025461120a9190612224565b859190856117c4565b610af48383836001611813565b6000610a4a61123082600a612429565b60025461123d9190612224565b6112456108b2565b61120a906001612224565b6001600160a01b038381166000908152600160209081526040808320938616835292905220546000198114610a7657818110156112bf578281836040517ffb8f41b2000000000000000000000000000000000000000000000000000000008152600401610d1d939291906121fc565b610a7684848484036000611813565b6001600160a01b0383166112f8576000604051634b637e8f60e11b8152600401610d1d9190612038565b6001600160a01b03821661132257600060405163ec442f0560e01b8152600401610d1d9190612038565b610af483838361190a565b6108598133611a38565b60008281526006602090815260408083206001600160a01b038516845290915281205460ff166113dd5760008381526006602090815260408083206001600160a01b03861684529091529020805460ff191660011790556113953390565b6001600160a01b0316826001600160a01b0316847f2f8788117e7eff1d82e926ec794901d17c78024a50270940304540a733656f0d60405160405180910390a4506001610961565b506000610961565b60008281526006602090815260408083206001600160a01b038516845290915281205460ff16156113dd5760008381526006602090815260408083206001600160a01b0386168085529252808320805460ff1916905551339286917ff6391f5c32d9c69d2a47ea670b442974b53935d1edc7fd64eb21e047a839171b9190a4506001610961565b6002600554036114a8576040517f3ee5aeb500000000000000000000000000000000000000000000000000000000815260040160405180910390fd5b6002600555565b6001600160a01b0382166114d957600060405163ec442f0560e01b8152600401610d1d9190612038565b6114e56000838361190a565b5050565b6115157f0000000000000000000000000000000000000000000000000000000000000000853085611a98565b61151f83826114af565b826001600160a01b0316846001600160a01b03167fdcbc1c05240f31ff3ad067ef1ee35ce4997762752e3a095284754544f4c709d784846040516115649291906121b5565b60405180910390a350505050565b6001600160a01b03821661159c576000604051634b637e8f60e11b8152600401610d1d9190612038565b6114e58260008361190a565b6007546040516370a0823160e01b81526000916001600160a01b0316906370a08231906115d9903090600401612038565b602060405180830381865afa1580156115f6573d6000803e3d6000fd5b505050506040513d601f19601f8201168201806040525081019061161a91906121db565b905081811015611656576040517f356680b700000000000000000000000000000000000000000000000000000000815260040160405180910390fd5b8015610af4576007546040517f2e1a7d4d0000000000000000000000000000000000000000000000000000000081526001600160a01b0390911690632e1a7d4d906116a5908590600401611dd3565b600060405180830381600087803b1580156116bf57600080fd5b505af11580156116d3573d6000803e3d6000fd5b50506040516001600160a01b038616925084156108fc02915084906000818181858888f19350505050158015610a76573d6000803e3d6000fd5b826001600160a01b0316856001600160a01b03161461173157611731838683611250565b61173b8382611572565b6117667f00000000000000000000000000000000000000000000000000000000000000008584611b07565b826001600160a01b0316846001600160a01b0316866001600160a01b03167ffbde797d201c681b91056529119e0b02407c7bb96a4a2c75c01fc9667232c8db85856040516117b59291906121b5565b60405180910390a45050505050565b6000806117d2868686611b2d565b90506117dd83611c0a565b80156117f95750600084806117f4576117f461243e565b868809115b1561107e57611809600182612224565b9695505050505050565b6001600160a01b0384166118565760006040517fe602df05000000000000000000000000000000000000000000000000000000008152600401610d1d9190612038565b6001600160a01b0383166118995760006040517f94280d62000000000000000000000000000000000000000000000000000000008152600401610d1d9190612038565b6001600160a01b0380851660009081526001602090815260408083209387168352929052208290558015610a7657826001600160a01b0316846001600160a01b03167f8c5be1e5ebec7d5bd14f71427d1e84f3dd0314c0f7b2291e5b200ac8c7c3b925846040516115649190611dd3565b6001600160a01b03831661193557806002600082825461192a9190612224565b909155506119ad9050565b6001600160a01b0383166000908152602081905260409020548181101561198e578381836040517fe450d38c000000000000000000000000000000000000000000000000000000008152600401610d1d939291906121fc565b6001600160a01b03841660009081526020819052604090209082900390555b6001600160a01b0382166119c9576002805482900390556119e8565b6001600160a01b03821660009081526020819052604090208054820190555b816001600160a01b0316836001600160a01b03167fddf252ad1be2c89b69c2b068fc378daa952ba7f163c4a11628f55a4df523b3ef83604051611a2b9190611dd3565b60405180910390a3505050565b60008281526006602090815260408083206001600160a01b038516845290915290205460ff166114e55780826040517fe2517d3f000000000000000000000000000000000000000000000000000000008152600401610d1d929190612454565b610a7684856001600160a01b03166323b872dd868686604051602401611ac093929190612462565b604051602081830303815290604052915060e01b6020820180517bffffffffffffffffffffffffffffffffffffffffffffffffffffffff8381831617835250505050611c37565b610af483846001600160a01b031663a9059cbb8585604051602401611ac0929190612454565b6000838302816000198587098281108382030391505080600003611b6457838281611b5a57611b5a61243e565b0492505050610a4a565b808411611b9d576040517f227bc15300000000000000000000000000000000000000000000000000000000815260040160405180910390fd5b6000848688096000868103871696879004966002600389028118808a02820302808a02820302808a02820302808a02820302808a02820302808a02909103029181900381900460010186841190950394909402919094039290920491909117919091029150509392505050565b60006002826003811115611c2057611c2061247d565b611c2a9190612493565b60ff166001149050919050565b6000611c4c6001600160a01b03841683611caa565b90508051600014158015611c71575080806020019051810190611c6f91906124c1565b155b15610af457826040517f5274afe7000000000000000000000000000000000000000000000000000000008152600401610d1d9190612038565b6060610a4a8383600084600080856001600160a01b03168486604051611cd09190612504565b60006040518083038185875af1925050503d8060008114611d0d576040519150601f19603f3d011682016040523d82523d6000602084013e611d12565b606091505b5091509150611809868383606082611d3257611d2d82611d89565b610a4a565b8151158015611d4957506001600160a01b0384163b155b15611d8257836040517f9996b315000000000000000000000000000000000000000000000000000000008152600401610d1d9190612038565b5080610a4a565b805115611d995780518082602001fd5b6040517f1425ea4200000000000000000000000000000000000000000000000000000000815260040160405180910390fd5b805b82525050565b602081016109618284611dcb565b7fffffffff0000000000000000000000000000000000000000000000000000000081165b811461085957600080fd5b803561096181611de1565b600060208284031215611e3057611e30600080fd5b6000610d3f8484611e10565b801515611dcd565b602081016109618284611e3c565b60005b83811015611e6d578181015183820152602001611e55565b50506000910152565b6000611e80825190565b808452602084019350611e97818560208601611e52565b601f01601f19169290920192915050565b60208082528101610a4a8184611e76565b80611e05565b803561096181611eb9565b600060208284031215611edf57611edf600080fd5b6000610d3f8484611ebf565b6001600160a01b031690565b60006109618260006109616001600160a01b038316611eeb565b600061096182611ef7565b611dcd81611f11565b602081016109618284611f1c565b60006001600160a01b038216610961565b611e0581611f33565b803561096181611f44565b60008060408385031215611f6e57611f6e600080fd5b6000611f7a8585611f4d565b9250506020611f8b85828601611ebf565b9150509250929050565b600080600060608486031215611fad57611fad600080fd5b6000611fb98686611f4d565b9350506020611fca86828701611f4d565b9250506040611fdb86828701611ebf565b9150509250925092565b60008060408385031215611ffb57611ffb600080fd5b60006120078585611ebf565b9250506020611f8b85828601611f4d565b60ff8116611dcd565b602081016109618284612018565b611dcd81611f33565b60208101610961828461202f565b60006020828403121561205b5761205b600080fd5b6000610d3f8484611f4d565b67ffffffffffffffff8116611e05565b803561096181612067565b60006020828403121561209757612097600080fd5b6000610d3f8484612077565b600080604083850312156120b9576120b9600080fd5b60006120078585612077565b6000806000606084860312156120dd576120dd600080fd5b60006120e98686611ebf565b93505060206120fa86828701611f4d565b9250506040611fdb86828701611f4d565b6000806040838503121561212157612121600080fd5b60006120078585611f4d565b634e487b7160e01b600052601160045260246000fd5b818103818111156109615761096161212d565b634e487b7160e01b600052602260045260246000fd5b60028104600182168061218057607f821691505b60208210810361219257612192612156565b50919050565b60ff9182169190811690828201908111156109615761096161212d565b604081016121c38285611dcb565b610a4a6020830184611dcb565b805161096181611eb9565b6000602082840312156121f0576121f0600080fd5b6000610d3f84846121d0565b6060810161220a828661202f565b6122176020830185611dcb565b610d3f6040830184611dcb565b808201808211156109615761096161212d565b6020808252810161096181601781527f4465616c20616c726561647920737562736964697a6564000000000000000000602082015260400190565b6020808252810161096181603d81527f436c69656e7420646f6573206e6f74206861766520656e6f756768207375627360208201527f69647920746f6b656e7320746f20636f7665722074686973206465616c000000604082015260600190565b67ffffffffffffffff8116611dcd565b6000610961610c3f8381565b611dcd816122e3565b6060810161230682866122d3565b61231360208301856122ef565b610d3f604083018461202f565b80825b600185111561235f5780860481111561233e5761233e61212d565b600185161561234c57908102905b80026123588560011c90565b9450612323565b94509492505050565b60008261237757506001610a4a565b8161238457506000610a4a565b816001811461239a57600281146123a4576123d1565b6001915050610a4a565b60ff8411156123b5576123b561212d565b8360020a9150848211156123cb576123cb61212d565b50610a4a565b5060208310610133831016604e8410600b84101617156123ff575081810a83811115611d2d57611d2d61212d565b61240c8484846001612320565b925090508184048111156124225761242261212d565b0292915050565b600060ff83169250610a4a6000198484612368565b634e487b7160e01b600052601260045260246000fd5b604081016121c3828561202f565b60608101612470828661202f565b612217602083018561202f565b634e487b7160e01b600052602160045260246000fd5b60ff91821691166000826124a9576124a961243e565b500690565b801515611e05565b8051610961816124ae565b6000602082840312156124d6576124d6600080fd5b6000610d3f84846124b6565b60006124ec825190565b6124fa818560208601611e52565b9290920192915050565b6000610a4a82846124e256fea26469706673582212200aec04da0871c80475551fd7365e777c036adfceb61b8933b705bd635fecceb164736f6c63430008140033",
  "devdoc": {
    "errors": {
      "AccessControlBadConfirmation()": [
        {
          "details": "The caller of a function is not the expected one. NOTE: Don't confuse with {AccessControlUnauthorizedAccount}."
        }
      ],
      "AccessControlUnauthorizedAccount(address,bytes32)": [
        {
          "details": "The `account` is missing a role."
        }
      ],
      "AddressEmptyCode(address)": [
        {
          "details": "There's no code at `target` (it is not a contract)."
        }
      ],
      "AddressInsufficientBalance(address)": [
        {
          "details": "The ETH balance of the account is not enough to perform the operation."
        }
      ],
      "ERC20InsufficientAllowance(address,uint256,uint256)": [
        {
          "details": "Indicates a failure with the `spender`s `allowance`. Used in transfers.",
          "params": {
            "allowance": "Amount of tokens a `spender` is allowed to operate with.",
            "needed": "Minimum amount required to perform a transfer.",
            "spender": "Address that may be allowed to operate on tokens without being their owner."
          }
        }
      ],
      "ERC20InsufficientBalance(address,uint256,uint256)": [
        {
          "details": "Indicates an error related to the current `balance` of a `sender`. Used in transfers.",
          "params": {
            "balance": "Current balance for the interacting account.",
            "needed": "Minimum amount required to perform a transfer.",
            "sender": "Address whose tokens are being transferred."
          }
        }
      ],
      "ERC20InvalidApprover(address)": [
        {
          "details": "Indicates a failure with the `approver` of a token to be approved. Used in approvals.",
          "params": {
            "approver": "Address initiating an approval operation."
          }
        }
      ],
      "ERC20InvalidReceiver(address)": [
        {
          "details": "Indicates a failure with the token `receiver`. Used in transfers.",
          "params": {
            "receiver": "Address to which tokens are being transferred."
          }
        }
      ],
      "ERC20InvalidSender(address)": [
        {
          "details": "Indicates a failure with the token `sender`. Used in transfers.",
          "params": {
            "sender": "Address whose tokens are being transferred."
          }
        }
      ],
      "ERC20InvalidSpender(address)": [
        {
          "details": "Indicates a failure with the `spender` to be approved. Used in approvals.",
          "params": {
            "spender": "Address that may be allowed to operate on tokens without being their owner."
          }
        }
      ],
      "ERC4626ExceededMaxDeposit(address,uint256,uint256)": [
        {
          "details": "Attempted to deposit more assets than the max amount for `receiver`."
        }
      ],
      "ERC4626ExceededMaxMint(address,uint256,uint256)": [
        {
          "details": "Attempted to mint more shares than the max amount for `receiver`."
        }
      ],
      "ERC4626ExceededMaxRedeem(address,uint256,uint256)": [
        {
          "details": "Attempted to redeem more shares than the max amount for `receiver`."
        }
      ],
      "ERC4626ExceededMaxWithdraw(address,uint256,uint256)": [
        {
          "details": "Attempted to withdraw more assets than the max amount for `receiver`."
        }
      ],
      "FailedInnerCall()": [
        {
          "details": "A call to an address target failed. The target may have reverted."
        }
      ],
      "MathOverflowedMulDiv()": [
        {
          "details": "Muldiv operation overflow."
        }
      ],
      "ReentrancyGuardReentrantCall()": [
        {
          "details": "Unauthorized reentrant call."
        }
      ],
      "SafeERC20FailedOperation(address)": [
        {
          "details": "An operation with an ERC20 token failed."
        }
      ]
    },
    "events": {
      "Approval(address,address,uint256)": {
        "details": "Emitted when the allowance of a `spender` for an `owner` is set by a call to {approve}. `value` is the new allowance."
      },
      "RoleAdminChanged(bytes32,bytes32,bytes32)": {
        "details": "Emitted when `newAdminRole` is set as ``role``'s admin role, replacing `previousAdminRole` `DEFAULT_ADMIN_ROLE` is the starting admin for all roles, despite {RoleAdminChanged} not being emitted signaling this."
      },
      "RoleGranted(bytes32,address,address)": {
        "details": "Emitted when `account` is granted `role`. `sender` is the account that originated the contract call, an admin role bearer except when using {AccessControl-_setupRole}."
      },
      "RoleRevoked(bytes32,address,address)": {
        "details": "Emitted when `account` is revoked `role`. `sender` is the account that originated the contract call:   - if using `revokeRole`, it is the admin role bearer   - if using `renounceRole`, it is the role bearer (i.e. `account`)"
      },
      "Transfer(address,address,uint256)": {
        "details": "Emitted when `value` tokens are moved from one account (`from`) to another (`to`). Note that `value` may be zero."
      }
    },
    "kind": "dev",
    "methods": {
      "allowance(address,address)": {
        "details": "See {IERC20-allowance}."
      },
      "approve(address,uint256)": {
        "details": "See {IERC20-approve}. NOTE: If `value` is the maximum `uint256`, the allowance is not updated on `transferFrom`. This is semantically equivalent to an infinite approval. Requirements: - `spender` cannot be the zero address."
      },
      "asset()": {
        "details": "See {IERC4626-asset}. "
      },
      "balanceOf(address)": {
        "details": "See {IERC20-balanceOf}."
      },
      "convertToAssets(uint256)": {
        "details": "See {IERC4626-convertToAssets}. "
      },
      "convertToShares(uint256)": {
        "details": "See {IERC4626-convertToShares}. "
      },
      "decimals()": {
        "details": "Decimals are computed by adding the decimal offset on top of the underlying asset's decimals. This \"original\" value is cached during construction of the vault contract. If this read operation fails (e.g., the asset has not been created yet), a default of 18 is used to represent the underlying asset's decimals. See {IERC20Metadata-decimals}."
      },
      "deposit(uint256,address)": {
        "details": "See {IERC4626-deposit}. "
      },
      "getRoleAdmin(bytes32)": {
        "details": "Returns the admin role that controls `role`. See {grantRole} and {revokeRole}. To change a role's admin, use {_setRoleAdmin}."
      },
      "grantRole(bytes32,address)": {
        "details": "Grants `role` to `account`. If `account` had not been already granted `role`, emits a {RoleGranted} event. Requirements: - the caller must have ``role``'s admin role. May emit a {RoleGranted} event."
      },
      "hasRole(bytes32,address)": {
        "details": "Returns `true` if `account` has been granted `role`."
      },
      "maxDeposit(address)": {
        "details": "See {IERC4626-maxDeposit}. "
      },
      "maxMint(address)": {
        "details": "See {IERC4626-maxMint}. "
      },
      "maxRedeem(address)": {
        "details": "See {IERC4626-maxRedeem}. "
      },
      "maxWithdraw(address)": {
        "details": "See {IERC4626-maxWithdraw}. "
      },
      "mint(uint256,address)": {
        "details": "See {IERC4626-mint}. As opposed to {deposit}, minting is allowed even if the vault is in a state where the price of a share is zero. In this case, the shares will be minted without requiring any assets to be deposited."
      },
      "name()": {
        "details": "Returns the name of the token."
      },
      "previewDeposit(uint256)": {
        "details": "See {IERC4626-previewDeposit}. "
      },
      "previewMint(uint256)": {
        "details": "See {IERC4626-previewMint}. "
      },
      "previewRedeem(uint256)": {
        "details": "See {IERC4626-previewRedeem}. "
      },
      "previewWithdraw(uint256)": {
        "details": "See {IERC4626-previewWithdraw}. "
      },
      "redeem(uint256,address,address)": {
        "details": "See {IERC4626-redeem}. "
      },
      "renounceRole(bytes32,address)": {
        "details": "Revokes `role` from the calling account. Roles are often managed via {grantRole} and {revokeRole}: this function's purpose is to provide a mechanism for accounts to lose their privileges if they are compromised (such as when a trusted device is misplaced). If the calling account had been revoked `role`, emits a {RoleRevoked} event. Requirements: - the caller must be `callerConfirmation`. May emit a {RoleRevoked} event."
      },
      "revokeRole(bytes32,address)": {
        "details": "Revokes `role` from `account`. If `account` had been granted `role`, emits a {RoleRevoked} event. Requirements: - the caller must have ``role``'s admin role. May emit a {RoleRevoked} event."
      },
      "supportsInterface(bytes4)": {
        "details": "See {IERC165-supportsInterface}."
      },
      "symbol()": {
        "details": "Returns the symbol of the token, usually a shorter version of the name."
      },
      "totalAssets()": {
        "details": "See {IERC4626-totalAssets}. "
      },
      "totalSupply()": {
        "details": "See {IERC20-totalSupply}."
      },
      "transfer(address,uint256)": {
        "details": "See {IERC20-transfer}. Requirements: - `to` cannot be the zero address. - the caller must have a balance of at least `value`."
      },
      "transferFrom(address,address,uint256)": {
        "details": "See {IERC20-transferFrom}. Emits an {Approval} event indicating the updated allowance. This is not required by the EIP. See the note at the beginning of {ERC20}. NOTE: Does not update the allowance if the current allowance is the maximum `uint256`. Requirements: - `from` and `to` cannot be the zero address. - `from` must have a balance of at least `value`. - the caller must have allowance for ``from``'s tokens of at least `value`."
      },
      "withdraw(uint256,address,address)": {
        "details": "See {IERC4626-withdraw}. "
      }
    },
    "version": 1
  },
  "userdoc": {
    "kind": "user",
    "methods": {},
    "version": 1
  },
  "storageLayout": {
    "storage": [
      {
        "astId": 1384,
        "contract": "contracts/LiquidStaking.sol:LiquidStaking",
        "label": "_balances",
        "offset": 0,
        "slot": "0",
        "type": "t_mapping(t_address,t_uint256)"
      },
      {
        "astId": 1390,
        "contract": "contracts/LiquidStaking.sol:LiquidStaking",
        "label": "_allowances",
        "offset": 0,
        "slot": "1",
        "type": "t_mapping(t_address,t_mapping(t_address,t_uint256))"
      },
      {
        "astId": 1392,
        "contract": "contracts/LiquidStaking.sol:LiquidStaking",
        "label": "_totalSupply",
        "offset": 0,
        "slot": "2",
        "type": "t_uint256"
      },
      {
        "astId": 1394,
        "contract": "contracts/LiquidStaking.sol:LiquidStaking",
        "label": "_name",
        "offset": 0,
        "slot": "3",
        "type": "t_string_storage"
      },
      {
        "astId": 1396,
        "contract": "contracts/LiquidStaking.sol:LiquidStaking",
        "label": "_symbol",
        "offset": 0,
        "slot": "4",
        "type": "t_string_storage"
      },
      {
        "astId": 3323,
        "contract": "contracts/LiquidStaking.sol:LiquidStaking",
        "label": "_status",
        "offset": 0,
        "slot": "5",
        "type": "t_uint256"
      },
      {
        "astId": 448,
        "contract": "contracts/LiquidStaking.sol:LiquidStaking",
        "label": "_roles",
        "offset": 0,
        "slot": "6",
        "type": "t_mapping(t_bytes32,t_struct(RoleData)443_storage)"
      },
      {
        "astId": 12244,
        "contract": "contracts/LiquidStaking.sol:LiquidStaking",
        "label": "WFIL",
        "offset": 0,
        "slot": "7",
        "type": "t_contract(IWFIL)14061"
      },
      {
        "astId": 12265,
        "contract": "contracts/LiquidStaking.sol:LiquidStaking",
        "label": "liquidityCap",
        "offset": 0,
        "slot": "8",
        "type": "t_uint256"
      },
      {
        "astId": 12268,
        "contract": "contracts/LiquidStaking.sol:LiquidStaking",
        "label": "WFIL_ADDRESS",
        "offset": 0,
        "slot": "9",
        "type": "t_address"
      },
      {
        "astId": 12272,
        "contract": "contracts/LiquidStaking.sol:LiquidStaking",
        "label": "subsidyBalance",
        "offset": 0,
        "slot": "10",
        "type": "t_mapping(t_address,t_uint256)"
      },
      {
        "astId": 12274,
        "contract": "contracts/LiquidStaking.sol:LiquidStaking",
        "label": "totalSubsidyBalance",
        "offset": 0,
        "slot": "11",
        "type": "t_uint256"
      },
      {
        "astId": 12278,
        "contract": "contracts/LiquidStaking.sol:LiquidStaking",
        "label": "dealsSubsidized",
        "offset": 0,
        "slot": "12",
        "type": "t_mapping(t_uint64,t_bool)"
      },
      {
        "astId": 12281,
        "contract": "contracts/LiquidStaking.sol:LiquidStaking",
        "label": "storageProviderRegistry",
        "offset": 0,
        "slot": "13",
        "type": "t_contract(StorageProviderRegistry)13150"
      },
      {
        "astId": 12284,
        "contract": "contracts/LiquidStaking.sol:LiquidStaking",
        "label": "clientRegistry",
        "offset": 0,
        "slot": "14",
        "type": "t_contract(ClientRegistry)12089"
      },
      {
        "astId": 12287,
        "contract": "contracts/LiquidStaking.sol:LiquidStaking",
        "label": "retrievalRoyalty",
        "offset": 0,
        "slot": "15",
        "type": "t_contract(RetrievalRoyalty)12772"
      }
    ],
    "types": {
      "t_address": {
        "encoding": "inplace",
        "label": "address",
        "numberOfBytes": "20"
      },
      "t_bool": {
        "encoding": "inplace",
        "label": "bool",
        "numberOfBytes": "1"
      },
      "t_bytes32": {
        "encoding": "inplace",
        "label": "bytes32",
        "numberOfBytes": "32"
      },
      "t_contract(ClientRegistry)12089": {
        "encoding": "inplace",
        "label": "contract ClientRegistry",
        "numberOfBytes": "20"
      },
      "t_contract(IWFIL)14061": {
        "encoding": "inplace",
        "label": "contract IWFIL",
        "numberOfBytes": "20"
      },
      "t_contract(RetrievalRoyalty)12772": {
        "encoding": "inplace",
        "label": "contract RetrievalRoyalty",
        "numberOfBytes": "20"
      },
      "t_contract(StorageProviderRegistry)13150": {
        "encoding": "inplace",
        "label": "contract StorageProviderRegistry",
        "numberOfBytes": "20"
      },
      "t_mapping(t_address,t_bool)": {
        "encoding": "mapping",
        "key": "t_address",
        "label": "mapping(address => bool)",
        "numberOfBytes": "32",
        "value": "t_bool"
      },
      "t_mapping(t_address,t_mapping(t_address,t_uint256))": {
        "encoding": "mapping",
        "key": "t_address",
        "label": "mapping(address => mapping(address => uint256))",
        "numberOfBytes": "32",
        "value": "t_mapping(t_address,t_uint256)"
      },
      "t_mapping(t_address,t_uint256)": {
        "encoding": "mapping",
        "key": "t_address",
        "label": "mapping(address => uint256)",
        "numberOfBytes": "32",
        "value": "t_uint256"
      },
      "t_mapping(t_bytes32,t_struct(RoleData)443_storage)": {
        "encoding": "mapping",
        "key": "t_bytes32",
        "label": "mapping(bytes32 => struct AccessControl.RoleData)",
        "numberOfBytes": "32",
        "value": "t_struct(RoleData)443_storage"
      },
      "t_mapping(t_uint64,t_bool)": {
        "encoding": "mapping",
        "key": "t_uint64",
        "label": "mapping(uint64 => bool)",
        "numberOfBytes": "32",
        "value": "t_bool"
      },
      "t_string_storage": {
        "encoding": "bytes",
        "label": "string",
        "numberOfBytes": "32"
      },
      "t_struct(RoleData)443_storage": {
        "encoding": "inplace",
        "label": "struct AccessControl.RoleData",
        "members": [
          {
            "astId": 440,
            "contract": "contracts/LiquidStaking.sol:LiquidStaking",
            "label": "hasRole",
            "offset": 0,
            "slot": "0",
            "type": "t_mapping(t_address,t_bool)"
          },
          {
            "astId": 442,
            "contract": "contracts/LiquidStaking.sol:LiquidStaking",
            "label": "adminRole",
            "offset": 0,
            "slot": "1",
            "type": "t_bytes32"
          }
        ],
        "numberOfBytes": "64"
      },
      "t_uint256": {
        "encoding": "inplace",
        "label": "uint256",
        "numberOfBytes": "32"
      },
      "t_uint64": {
        "encoding": "inplace",
        "label": "uint64",
        "numberOfBytes": "8"
      }
    }
  }
}