{
  "address": "0xe4738Ea89AB95cC6513481aF5DfAe812f38001d3",
  "abi": [
    {
      "inputs": [],
      "stateMutability": "nonpayable",
      "type": "constructor"
    },
    {
      "inputs": [],
      "name": "AccessControlBadConfirmation",
      "type": "error"
    },
    {
      "inputs": [
        {
          "internalType": "address",
          "name": "account",
          "type": "address"
        },
        {
          "internalType": "bytes32",
          "name": "neededRole",
          "type": "bytes32"
        }
      ],
      "name": "AccessControlUnauthorizedAccount",
      "type": "error"
    },
    {
      "anonymous": false,
      "inputs": [
        {
          "indexed": true,
          "internalType": "bytes32",
          "name": "role",
          "type": "bytes32"
        },
        {
          "indexed": true,
          "internalType": "bytes32",
          "name": "previousAdminRole",
          "type": "bytes32"
        },
        {
          "indexed": true,
          "internalType": "bytes32",
          "name": "newAdminRole",
          "type": "bytes32"
        }
      ],
      "name": "RoleAdminChanged",
      "type": "event"
    },
    {
      "anonymous": false,
      "inputs": [
        {
          "indexed": true,
          "internalType": "bytes32",
          "name": "role",
          "type": "bytes32"
        },
        {
          "indexed": true,
          "internalType": "address",
          "name": "account",
          "type": "address"
        },
        {
          "indexed": true,
          "internalType": "address",
          "name": "sender",
          "type": "address"
        }
      ],
      "name": "RoleGranted",
      "type": "event"
    },
    {
      "anonymous": false,
      "inputs": [
        {
          "indexed": true,
          "internalType": "bytes32",
          "name": "role",
          "type": "bytes32"
        },
        {
          "indexed": true,
          "internalType": "address",
          "name": "account",
          "type": "address"
        },
        {
          "indexed": true,
          "internalType": "address",
          "name": "sender",
          "type": "address"
        }
      ],
      "name": "RoleRevoked",
      "type": "event"
    },
    {
      "inputs": [],
      "name": "DEFAULT_ADMIN_ROLE",
      "outputs": [
        {
          "internalType": "bytes32",
          "name": "",
          "type": "bytes32"
        }
      ],
      "stateMutability": "view",
      "type": "function"
    },
    {
      "inputs": [],
      "name": "SUBSIDY_PROVIDER",
      "outputs": [
        {
          "internalType": "bytes32",
          "name": "",
          "type": "bytes32"
        }
      ],
      "stateMutability": "view",
      "type": "function"
    },
    {
      "inputs": [
        {
          "internalType": "uint64",
          "name": "_dealId",
          "type": "uint64"
        },
        {
          "internalType": "uint256",
          "name": "_commissionPercentage",
          "type": "uint256"
        },
        {
          "internalType": "address",
          "name": "_beneficiary",
          "type": "address"
        }
      ],
      "name": "addRoyalty",
      "outputs": [],
      "stateMutability": "nonpayable",
      "type": "function"
    },
    {
      "inputs": [
        {
          "internalType": "bytes32",
          "name": "role",
          "type": "bytes32"
        }
      ],
      "name": "getRoleAdmin",
      "outputs": [
        {
          "internalType": "bytes32",
          "name": "",
          "type": "bytes32"
        }
      ],
      "stateMutability": "view",
      "type": "function"
    },
    {
      "inputs": [
        {
          "internalType": "uint64",
          "name": "_dealId",
          "type": "uint64"
        }
      ],
      "name": "getRoyalty",
      "outputs": [
        {
          "components": [
            {
              "internalType": "uint256",
              "name": "endsOn",
              "type": "uint256"
            },
            {
              "internalType": "bytes",
              "name": "cid",
              "type": "bytes"
            },
            {
              "internalType": "uint64",
              "name": "dealId",
              "type": "uint64"
            },
            {
              "internalType": "uint256",
              "name": "commissionPercentage",
              "type": "uint256"
            },
            {
              "internalType": "address",
              "name": "beneficiary",
              "type": "address"
            }
          ],
          "internalType": "struct RetrievalRoyaltyTypes.RetrievalRoyalty",
          "name": "",
          "type": "tuple"
        }
      ],
      "stateMutability": "view",
      "type": "function"
    },
    {
      "inputs": [
        {
          "internalType": "bytes32",
          "name": "role",
          "type": "bytes32"
        },
        {
          "internalType": "address",
          "name": "account",
          "type": "address"
        }
      ],
      "name": "grantRole",
      "outputs": [],
      "stateMutability": "nonpayable",
      "type": "function"
    },
    {
      "inputs": [
        {
          "internalType": "bytes32",
          "name": "role",
          "type": "bytes32"
        },
        {
          "internalType": "address",
          "name": "account",
          "type": "address"
        }
      ],
      "name": "hasRole",
      "outputs": [
        {
          "internalType": "bool",
          "name": "",
          "type": "bool"
        }
      ],
      "stateMutability": "view",
      "type": "function"
    },
    {
      "inputs": [
        {
          "internalType": "bytes32",
          "name": "role",
          "type": "bytes32"
        },
        {
          "internalType": "address",
          "name": "callerConfirmation",
          "type": "address"
        }
      ],
      "name": "renounceRole",
      "outputs": [],
      "stateMutability": "nonpayable",
      "type": "function"
    },
    {
      "inputs": [
        {
          "internalType": "uint64",
          "name": "",
          "type": "uint64"
        }
      ],
      "name": "retrievalRoyaltiesForDeal",
      "outputs": [
        {
          "internalType": "uint256",
          "name": "endsOn",
          "type": "uint256"
        },
        {
          "internalType": "bytes",
          "name": "cid",
          "type": "bytes"
        },
        {
          "internalType": "uint64",
          "name": "dealId",
          "type": "uint64"
        },
        {
          "internalType": "uint256",
          "name": "commissionPercentage",
          "type": "uint256"
        },
        {
          "internalType": "address",
          "name": "beneficiary",
          "type": "address"
        }
      ],
      "stateMutability": "view",
      "type": "function"
    },
    {
      "inputs": [
        {
          "internalType": "bytes32",
          "name": "role",
          "type": "bytes32"
        },
        {
          "internalType": "address",
          "name": "account",
          "type": "address"
        }
      ],
      "name": "revokeRole",
      "outputs": [],
      "stateMutability": "nonpayable",
      "type": "function"
    },
    {
      "inputs": [],
      "name": "royaltyCount",
      "outputs": [
        {
          "internalType": "uint256",
          "name": "",
          "type": "uint256"
        }
      ],
      "stateMutability": "view",
      "type": "function"
    },
    {
      "inputs": [
        {
          "internalType": "bytes4",
          "name": "interfaceId",
          "type": "bytes4"
        }
      ],
      "name": "supportsInterface",
      "outputs": [
        {
          "internalType": "bool",
          "name": "",
          "type": "bool"
        }
      ],
      "stateMutability": "view",
      "type": "function"
    }
  ],
  "transactionHash": "0xb54509e65f632cb1b511dc7e1639570a4ce52806ab2ddb49d1cd0def7b66e830",
  "args": [],
  "numDeployments": 1,
  "solcInputHash": "6771878c01abc2b49f6a7648cb631db7",
  "bytecode": "0x608060405234801561001057600080fd5b5061001c600033610022565b506100ce565b6000828152602081815260408083206001600160a01b038516845290915281205460ff166100c4576000838152602081815260408083206001600160a01b03861684529091529020805460ff1916600117905561007c3390565b6001600160a01b0316826001600160a01b0316847f2f8788117e7eff1d82e926ec794901d17c78024a50270940304540a733656f0d60405160405180910390a45060016100c8565b5060005b92915050565b610b2c806100dd6000396000f3fe608060405234801561001057600080fd5b50600436106100d45760003560e01c806342a6f83011610081578063a217fddf1161005b578063a217fddf14610263578063b94003be1461026b578063d547741f1461028f57600080fd5b806342a6f8301461018a5780635a295dfe146101aa57806391d148541461022c57600080fd5b80632f2ff15d116100b25780632f2ff15d1461013b57806336568abe146101505780633767f1f51461016357600080fd5b806301ffc9a7146100d9578063248a9ca3146101025780632771b12e14610132575b600080fd5b6100ec6100e73660046107c2565b6102a2565b6040516100f991906107f5565b60405180910390f35b610125610110366004610814565b60009081526020819052604090206001015490565b6040516100f9919061083b565b61012560025481565b61014e61014936600461086e565b61033b565b005b61014e61015e36600461086e565b610366565b6101257f576deccc52abbfda51ad34877ce13ae64ba669698d9c7f8f53173e9656083ee881565b61019d6101983660046108c6565b6103b7565b6040516100f991906109c5565b61014e6101b83660046109dd565b67ffffffffffffffff92909216600081815260016020526040902060028101805467ffffffffffffffff1916909217909155600381019190915560040180547fffffffffffffffffffffffff0000000000000000000000000000000000000000166001600160a01b03909216919091179055565b6100ec61023a36600461086e565b6000918252602082815260408084206001600160a01b0393909316845291905290205460ff1690565b610125600081565b61027e6102793660046108c6565b6104f2565b6040516100f9959493929190610a2d565b61014e61029d36600461086e565b6105be565b60007fffffffff0000000000000000000000000000000000000000000000000000000082167f7965db0b00000000000000000000000000000000000000000000000000000000148061033557507f01ffc9a7000000000000000000000000000000000000000000000000000000007fffffffff000000000000000000000000000000000000000000000000000000008316145b92915050565b600082815260208190526040902060010154610356816105e3565b61036083836105f0565b50505050565b6001600160a01b03811633146103a8576040517f6697b23200000000000000000000000000000000000000000000000000000000815260040160405180910390fd5b6103b2828261069a565b505050565b6103fc6040518060a001604052806000815260200160608152602001600067ffffffffffffffff1681526020016000815260200160006001600160a01b031681525090565b67ffffffffffffffff8216600090815260016020818152604092839020835160a081019094528054845291820180549184019161043890610aaf565b80601f016020809104026020016040519081016040528092919081815260200182805461046490610aaf565b80156104b15780601f10610486576101008083540402835291602001916104b1565b820191906000526020600020905b81548152906001019060200180831161049457829003601f168201915b5050509183525050600282015467ffffffffffffffff166020820152600382015460408201526004909101546001600160a01b031660609091015292915050565b60016020819052600091825260409091208054918101805461051390610aaf565b80601f016020809104026020016040519081016040528092919081815260200182805461053f90610aaf565b801561058c5780601f106105615761010080835404028352916020019161058c565b820191906000526020600020905b81548152906001019060200180831161056f57829003601f168201915b5050505060028301546003840154600490940154929367ffffffffffffffff909116929091506001600160a01b031685565b6000828152602081905260409020600101546105d9816105e3565b610360838361069a565b6105ed813361071d565b50565b6000828152602081815260408083206001600160a01b038516845290915281205460ff16610692576000838152602081815260408083206001600160a01b03861684529091529020805460ff1916600117905561064a3390565b6001600160a01b0316826001600160a01b0316847f2f8788117e7eff1d82e926ec794901d17c78024a50270940304540a733656f0d60405160405180910390a4506001610335565b506000610335565b6000828152602081815260408083206001600160a01b038516845290915281205460ff1615610692576000838152602081815260408083206001600160a01b0386168085529252808320805460ff1916905551339286917ff6391f5c32d9c69d2a47ea670b442974b53935d1edc7fd64eb21e047a839171b9190a4506001610335565b6000828152602081815260408083206001600160a01b038516845290915290205460ff166107845780826040517fe2517d3f00000000000000000000000000000000000000000000000000000000815260040161077b929190610adb565b60405180910390fd5b5050565b7fffffffff0000000000000000000000000000000000000000000000000000000081165b81146105ed57600080fd5b803561033581610788565b6000602082840312156107d7576107d7600080fd5b60006107e384846107b7565b949350505050565b8015155b82525050565b6020810161033582846107eb565b806107ac565b803561033581610803565b60006020828403121561082957610829600080fd5b60006107e38484610809565b806107ef565b602081016103358284610835565b60006001600160a01b038216610335565b6107ac81610849565b80356103358161085a565b6000806040838503121561088457610884600080fd5b60006108908585610809565b92505060206108a185828601610863565b9150509250929050565b67ffffffffffffffff81166107ac565b8035610335816108ab565b6000602082840312156108db576108db600080fd5b60006107e384846108bb565b60005b838110156109025781810151838201526020016108ea565b50506000910152565b6000610915825190565b80845260208401935061092c8185602086016108e7565b601f01601f19169290920192915050565b67ffffffffffffffff81166107ef565b6107ef81610849565b805160009060a084019061096a8582610835565b5060208301518482036020860152610982828261090b565b9150506040830151610997604086018261093d565b5060608301516109aa6060860182610835565b5060808301516109bd608086018261094d565b509392505050565b602080825281016109d68184610956565b9392505050565b6000806000606084860312156109f5576109f5600080fd5b6000610a0186866108bb565b9350506020610a1286828701610809565b9250506040610a2386828701610863565b9150509250925092565b60a08101610a3b8288610835565b8181036020830152610a4d818761090b565b9050610a5c604083018661093d565b610a696060830185610835565b610a76608083018461094d565b9695505050505050565b7f4e487b7100000000000000000000000000000000000000000000000000000000600052602260045260246000fd5b600281046001821680610ac357607f821691505b602082108103610ad557610ad5610a80565b50919050565b60408101610ae9828561094d565b6109d6602083018461083556fea264697066735822122069bc3c0c59959cb644ee243c88f38314aad16efd144c8f677b79daab2e63f19064736f6c63430008140033",
  "devdoc": {
    "errors": {
      "AccessControlBadConfirmation()": [
        {
          "details": "The caller of a function is not the expected one. NOTE: Don't confuse with {AccessControlUnauthorizedAccount}."
        }
      ],
      "AccessControlUnauthorizedAccount(address,bytes32)": [
        {
          "details": "The `account` is missing a role."
        }
      ]
    },
    "events": {
      "RoleAdminChanged(bytes32,bytes32,bytes32)": {
        "details": "Emitted when `newAdminRole` is set as ``role``'s admin role, replacing `previousAdminRole` `DEFAULT_ADMIN_ROLE` is the starting admin for all roles, despite {RoleAdminChanged} not being emitted signaling this."
      },
      "RoleGranted(bytes32,address,address)": {
        "details": "Emitted when `account` is granted `role`. `sender` is the account that originated the contract call, an admin role bearer except when using {AccessControl-_setupRole}."
      },
      "RoleRevoked(bytes32,address,address)": {
        "details": "Emitted when `account` is revoked `role`. `sender` is the account that originated the contract call:   - if using `revokeRole`, it is the admin role bearer   - if using `renounceRole`, it is the role bearer (i.e. `account`)"
      }
    },
    "kind": "dev",
    "methods": {
      "getRoleAdmin(bytes32)": {
        "details": "Returns the admin role that controls `role`. See {grantRole} and {revokeRole}. To change a role's admin, use {_setRoleAdmin}."
      },
      "grantRole(bytes32,address)": {
        "details": "Grants `role` to `account`. If `account` had not been already granted `role`, emits a {RoleGranted} event. Requirements: - the caller must have ``role``'s admin role. May emit a {RoleGranted} event."
      },
      "hasRole(bytes32,address)": {
        "details": "Returns `true` if `account` has been granted `role`."
      },
      "renounceRole(bytes32,address)": {
        "details": "Revokes `role` from the calling account. Roles are often managed via {grantRole} and {revokeRole}: this function's purpose is to provide a mechanism for accounts to lose their privileges if they are compromised (such as when a trusted device is misplaced). If the calling account had been revoked `role`, emits a {RoleRevoked} event. Requirements: - the caller must be `callerConfirmation`. May emit a {RoleRevoked} event."
      },
      "revokeRole(bytes32,address)": {
        "details": "Revokes `role` from `account`. If `account` had been granted `role`, emits a {RoleRevoked} event. Requirements: - the caller must have ``role``'s admin role. May emit a {RoleRevoked} event."
      },
      "supportsInterface(bytes4)": {
        "details": "See {IERC165-supportsInterface}."
      }
    },
    "version": 1
  },
  "userdoc": {
    "kind": "user",
    "methods": {},
    "version": 1
  },
  "storageLayout": {
    "storage": [
      {
        "astId": 448,
        "contract": "contracts/RetrievalRoyalty.sol:RetrievalRoyalty",
        "label": "_roles",
        "offset": 0,
        "slot": "0",
        "type": "t_mapping(t_bytes32,t_struct(RoleData)443_storage)"
      },
      {
        "astId": 12698,
        "contract": "contracts/RetrievalRoyalty.sol:RetrievalRoyalty",
        "label": "retrievalRoyaltiesForDeal",
        "offset": 0,
        "slot": "1",
        "type": "t_mapping(t_uint64,t_struct(RetrievalRoyalty)14098_storage)"
      },
      {
        "astId": 12700,
        "contract": "contracts/RetrievalRoyalty.sol:RetrievalRoyalty",
        "label": "royaltyCount",
        "offset": 0,
        "slot": "2",
        "type": "t_uint256"
      }
    ],
    "types": {
      "t_address": {
        "encoding": "inplace",
        "label": "address",
        "numberOfBytes": "20"
      },
      "t_bool": {
        "encoding": "inplace",
        "label": "bool",
        "numberOfBytes": "1"
      },
      "t_bytes32": {
        "encoding": "inplace",
        "label": "bytes32",
        "numberOfBytes": "32"
      },
      "t_bytes_storage": {
        "encoding": "bytes",
        "label": "bytes",
        "numberOfBytes": "32"
      },
      "t_mapping(t_address,t_bool)": {
        "encoding": "mapping",
        "key": "t_address",
        "label": "mapping(address => bool)",
        "numberOfBytes": "32",
        "value": "t_bool"
      },
      "t_mapping(t_bytes32,t_struct(RoleData)443_storage)": {
        "encoding": "mapping",
        "key": "t_bytes32",
        "label": "mapping(bytes32 => struct AccessControl.RoleData)",
        "numberOfBytes": "32",
        "value": "t_struct(RoleData)443_storage"
      },
      "t_mapping(t_uint64,t_struct(RetrievalRoyalty)14098_storage)": {
        "encoding": "mapping",
        "key": "t_uint64",
        "label": "mapping(uint64 => struct RetrievalRoyaltyTypes.RetrievalRoyalty)",
        "numberOfBytes": "32",
        "value": "t_struct(RetrievalRoyalty)14098_storage"
      },
      "t_struct(RetrievalRoyalty)14098_storage": {
        "encoding": "inplace",
        "label": "struct RetrievalRoyaltyTypes.RetrievalRoyalty",
        "members": [
          {
            "astId": 14089,
            "contract": "contracts/RetrievalRoyalty.sol:RetrievalRoyalty",
            "label": "endsOn",
            "offset": 0,
            "slot": "0",
            "type": "t_uint256"
          },
          {
            "astId": 14091,
            "contract": "contracts/RetrievalRoyalty.sol:RetrievalRoyalty",
            "label": "cid",
            "offset": 0,
            "slot": "1",
            "type": "t_bytes_storage"
          },
          {
            "astId": 14093,
            "contract": "contracts/RetrievalRoyalty.sol:RetrievalRoyalty",
            "label": "dealId",
            "offset": 0,
            "slot": "2",
            "type": "t_uint64"
          },
          {
            "astId": 14095,
            "contract": "contracts/RetrievalRoyalty.sol:RetrievalRoyalty",
            "label": "commissionPercentage",
            "offset": 0,
            "slot": "3",
            "type": "t_uint256"
          },
          {
            "astId": 14097,
            "contract": "contracts/RetrievalRoyalty.sol:RetrievalRoyalty",
            "label": "beneficiary",
            "offset": 0,
            "slot": "4",
            "type": "t_address"
          }
        ],
        "numberOfBytes": "160"
      },
      "t_struct(RoleData)443_storage": {
        "encoding": "inplace",
        "label": "struct AccessControl.RoleData",
        "members": [
          {
            "astId": 440,
            "contract": "contracts/RetrievalRoyalty.sol:RetrievalRoyalty",
            "label": "hasRole",
            "offset": 0,
            "slot": "0",
            "type": "t_mapping(t_address,t_bool)"
          },
          {
            "astId": 442,
            "contract": "contracts/RetrievalRoyalty.sol:RetrievalRoyalty",
            "label": "adminRole",
            "offset": 0,
            "slot": "1",
            "type": "t_bytes32"
          }
        ],
        "numberOfBytes": "64"
      },
      "t_uint256": {
        "encoding": "inplace",
        "label": "uint256",
        "numberOfBytes": "32"
      },
      "t_uint64": {
        "encoding": "inplace",
        "label": "uint64",
        "numberOfBytes": "8"
      }
    }
  }
}