{
  "address": "0x6844eb4Db2CeC593364b3F435724853E6e3EB00F",
  "abi": [
    {
      "inputs": [
        {
          "internalType": "uint64",
          "name": "_storageProviderId",
          "type": "uint64"
        }
      ],
      "name": "blacklist",
      "outputs": [],
      "stateMutability": "nonpayable",
      "type": "function"
    },
    {
      "inputs": [],
      "name": "getAllStorageProviders",
      "outputs": [
        {
          "components": [
            {
              "internalType": "bool",
              "name": "active",
              "type": "bool"
            },
            {
              "internalType": "bool",
              "name": "verified",
              "type": "bool"
            },
            {
              "internalType": "string",
              "name": "verificationFormCID",
              "type": "string"
            },
            {
              "internalType": "bool",
              "name": "blacklisted",
              "type": "bool"
            },
            {
              "internalType": "address",
              "name": "ethAddress",
              "type": "address"
            }
          ],
          "internalType": "struct StorageProviderTypes.StorageProvider[]",
          "name": "",
          "type": "tuple[]"
        }
      ],
      "stateMutability": "view",
      "type": "function"
    },
    {
      "inputs": [
        {
          "internalType": "uint64",
          "name": "_storageProviderId",
          "type": "uint64"
        }
      ],
      "name": "getEthAddress",
      "outputs": [
        {
          "internalType": "address",
          "name": "",
          "type": "address"
        }
      ],
      "stateMutability": "view",
      "type": "function"
    },
    {
      "inputs": [
        {
          "internalType": "address",
          "name": "_storageProviderAddress",
          "type": "address"
        }
      ],
      "name": "getStorageProviderByAddress",
      "outputs": [
        {
          "components": [
            {
              "internalType": "bool",
              "name": "active",
              "type": "bool"
            },
            {
              "internalType": "bool",
              "name": "verified",
              "type": "bool"
            },
            {
              "internalType": "string",
              "name": "verificationFormCID",
              "type": "string"
            },
            {
              "internalType": "bool",
              "name": "blacklisted",
              "type": "bool"
            },
            {
              "internalType": "address",
              "name": "ethAddress",
              "type": "address"
            }
          ],
          "internalType": "struct StorageProviderTypes.StorageProvider",
          "name": "",
          "type": "tuple"
        }
      ],
      "stateMutability": "view",
      "type": "function"
    },
    {
      "inputs": [],
      "name": "getWhitelistedStorageProviders",
      "outputs": [
        {
          "internalType": "uint64[]",
          "name": "",
          "type": "uint64[]"
        }
      ],
      "stateMutability": "view",
      "type": "function"
    },
    {
      "inputs": [
        {
          "internalType": "address",
          "name": "_storageProviderAddress",
          "type": "address"
        }
      ],
      "name": "isAddressWhitelisted",
      "outputs": [
        {
          "internalType": "bool",
          "name": "",
          "type": "bool"
        }
      ],
      "stateMutability": "view",
      "type": "function"
    },
    {
      "inputs": [
        {
          "internalType": "address",
          "name": "_storageProviderAddress",
          "type": "address"
        }
      ],
      "name": "isStorageProviderAddressRegistered",
      "outputs": [
        {
          "internalType": "bool",
          "name": "",
          "type": "bool"
        }
      ],
      "stateMutability": "view",
      "type": "function"
    },
    {
      "inputs": [
        {
          "internalType": "uint64",
          "name": "_storageProviderId",
          "type": "uint64"
        }
      ],
      "name": "isStorageProviderRegistered",
      "outputs": [
        {
          "internalType": "bool",
          "name": "",
          "type": "bool"
        }
      ],
      "stateMutability": "view",
      "type": "function"
    },
    {
      "inputs": [
        {
          "internalType": "uint64",
          "name": "_storageProviderId",
          "type": "uint64"
        }
      ],
      "name": "isWhitelisted",
      "outputs": [
        {
          "internalType": "bool",
          "name": "",
          "type": "bool"
        }
      ],
      "stateMutability": "view",
      "type": "function"
    },
    {
      "inputs": [
        {
          "internalType": "uint64",
          "name": "_storageProviderId",
          "type": "uint64"
        }
      ],
      "name": "register",
      "outputs": [],
      "stateMutability": "nonpayable",
      "type": "function"
    },
    {
      "inputs": [
        {
          "internalType": "address",
          "name": "",
          "type": "address"
        }
      ],
      "name": "storageProviderAddressToId",
      "outputs": [
        {
          "internalType": "uint64",
          "name": "",
          "type": "uint64"
        }
      ],
      "stateMutability": "view",
      "type": "function"
    },
    {
      "inputs": [
        {
          "internalType": "uint64",
          "name": "",
          "type": "uint64"
        }
      ],
      "name": "storageProviders",
      "outputs": [
        {
          "internalType": "bool",
          "name": "active",
          "type": "bool"
        },
        {
          "internalType": "bool",
          "name": "verified",
          "type": "bool"
        },
        {
          "internalType": "string",
          "name": "verificationFormCID",
          "type": "string"
        },
        {
          "internalType": "bool",
          "name": "blacklisted",
          "type": "bool"
        },
        {
          "internalType": "address",
          "name": "ethAddress",
          "type": "address"
        }
      ],
      "stateMutability": "view",
      "type": "function"
    },
    {
      "inputs": [
        {
          "internalType": "uint256",
          "name": "",
          "type": "uint256"
        }
      ],
      "name": "storageProvidersList",
      "outputs": [
        {
          "internalType": "uint64",
          "name": "",
          "type": "uint64"
        }
      ],
      "stateMutability": "view",
      "type": "function"
    },
    {
      "inputs": [
        {
          "internalType": "uint64",
          "name": "",
          "type": "uint64"
        }
      ],
      "name": "subsidies",
      "outputs": [
        {
          "internalType": "uint256",
          "name": "numberOfDealsRedeemed",
          "type": "uint256"
        }
      ],
      "stateMutability": "view",
      "type": "function"
    },
    {
      "inputs": [
        {
          "internalType": "uint64",
          "name": "_storageProviderId",
          "type": "uint64"
        }
      ],
      "name": "whitelist",
      "outputs": [],
      "stateMutability": "nonpayable",
      "type": "function"
    },
    {
      "inputs": [],
      "name": "whitelistedCount",
      "outputs": [
        {
          "internalType": "uint256",
          "name": "",
          "type": "uint256"
        }
      ],
      "stateMutability": "view",
      "type": "function"
    },
    {
      "inputs": [
        {
          "internalType": "uint64",
          "name": "",
          "type": "uint64"
        }
      ],
      "name": "whitelistedStorageProviders",
      "outputs": [
        {
          "internalType": "bool",
          "name": "",
          "type": "bool"
        }
      ],
      "stateMutability": "view",
      "type": "function"
    }
  ],
  "transactionHash": "0x093d02c0cf339c3a3af818a258e10a0d3e476f473d11d0c04b3c314da275e8d3",
  "args": [],
  "numDeployments": 1,
  "solcInputHash": "6954a44a9ca49b7d497aef834cc871f4",
  "bytecode": "0x608060405234801561001057600080fd5b50610f2a806100206000396000f3fe608060405234801561001057600080fd5b506004361061011b5760003560e01c8063b2a1de22116100b2578063dd6460ce11610081578063ef4e71d111610066578063ef4e71d11461033c578063f51658631461035c578063fc0dd7e11461042557600080fd5b8063dd6460ce146102eb578063ec34d2221461030f57600080fd5b8063b2a1de2214610278578063b572a9661461028e578063c8baa0ac146102a1578063c8c2d7f5146102d657600080fd5b80635da4334a116100ee5780635da4334a146101f957806368ec4adc146102305780637914952e1461024557806399d1601a1461026557600080fd5b80630c583cbe1461012057806313f44d101461013e57806325dcaf971461018e57806352fedb98146101d6575b600080fd5b610128610462565b6040516101359190610b42565b60405180910390f35b61018161014c366004610b8f565b6001600160a01b031660009081526002602090815260408083205467ffffffffffffffff168352600390915290205460ff1690565b6040516101359190610bc0565b6101c961019c366004610be9565b67ffffffffffffffff1660009081526020819052604090206002015461010090046001600160a01b031690565b6040516101359190610c13565b6101816101e4366004610be9565b60036020526000908152604090205460ff1681565b610223610207366004610b8f565b60026020526000908152604090205467ffffffffffffffff1681565b6040516101359190610c21565b61024361023e366004610be9565b6105c9565b005b610258610253366004610b8f565b610628565b6040516101359190610cf4565b610223610273366004610d16565b610764565b61028160055481565b6040516101359190610d3d565b61024361029c366004610be9565b6107a2565b6101816102af366004610b8f565b6001600160a01b031660009081526002602052604090205467ffffffffffffffff16151590565b6102de6107f6565b6040516101359190610dbd565b6102fe6102f9366004610be9565b610a07565b604051610135959493929190610dce565b61018161031d366004610be9565b67ffffffffffffffff1660009081526003602052604090205460ff1690565b61028161034a366004610be9565b60016020526000908152604090205481565b61024361036a366004610be9565b67ffffffffffffffff90811660008181526020818152604080832060029081018054610100338181027fffffffffffffffffffffff0000000000000000000000000000000000000000ff90931692909217909255855292528220805467ffffffffffffffff191684179055600480546001810182559281905282047f8a35acfbc15ff81a39ae7d344fd709f28e8600b4aa8c65c6b64bfe7fe36bd19b018054600860039094169390930290910a928302929093021916179055565b610181610433366004610be9565b67ffffffffffffffff1660009081526020819052604090206002015461010090046001600160a01b0316151590565b6060600060055467ffffffffffffffff81111561048157610481610e21565b6040519080825280602002602001820160405280156104aa578160200160208202803683370190505b5090506000805b60045467ffffffffffffffff821610156105c1576003600060048367ffffffffffffffff16815481106104e6576104e6610e37565b6000918252602080832060048304015460039092166008026101000a90910467ffffffffffffffff16835282019290925260400190205460ff16156105af5760048167ffffffffffffffff168154811061054257610542610e37565b90600052602060002090600491828204019190066008029054906101000a900467ffffffffffffffff16838367ffffffffffffffff168151811061058857610588610e37565b67ffffffffffffffff90921660209283029190910190910152816105ab81610e63565b9250505b806105b981610e63565b9150506104b1565b509092915050565b67ffffffffffffffff8116600090815260208181526040808320805461ff00191661010017815560018084528285208581556003909452918420805460ff191690921790915560058054919361061e83610e8e565b9190505550505050565b6040805160a080820183526000808352602080840182905260608486018190528401829052608084018290526001600160a01b0386168252600281528482205467ffffffffffffffff168083528282529185902085519384018652805460ff80821615158652610100909104161515918401919091526001810180549495929491928401916106b690610eb7565b80601f01602080910402602001604051908101604052809291908181526020018280546106e290610eb7565b801561072f5780601f106107045761010080835404028352916020019161072f565b820191906000526020600020905b81548152906001019060200180831161071257829003601f168201915b50505091835250506002919091015460ff81161515602083015261010090046001600160a01b03166040909101529392505050565b6004818154811061077457600080fd5b9060005260206000209060049182820401919006600802915054906101000a900467ffffffffffffffff1681565b67ffffffffffffffff811660009081526020818152604080832060028101805460ff19908116600117909155600390935290832080549092169091556005805491926107ed83610edd565b91905055505050565b60045460609060009067ffffffffffffffff81111561081757610817610e21565b60405190808252806020026020018201604052801561087157816020015b6040805160a081018252600080825260208083018290526060938301849052928201819052608082015282526000199092019101816108355790505b50905060005b60045467ffffffffffffffff82161015610a015760008060048367ffffffffffffffff16815481106108ab576108ab610e37565b60009182526020808320600483040154600390921660080261010090810a90920467ffffffffffffffff168452838101949094526040928301909120825160a081018452815460ff8082161515835293900490921615159382019390935260018301805491939284019161091e90610eb7565b80601f016020809104026020016040519081016040528092919081815260200182805461094a90610eb7565b80156109975780601f1061096c57610100808354040283529160200191610997565b820191906000526020600020905b81548152906001019060200180831161097a57829003601f168201915b50505091835250506002919091015460ff81161515602083015261010090046001600160a01b03166040909101528251839067ffffffffffffffff84169081106109e3576109e3610e37565b602002602001018190525080806109f990610e63565b915050610877565b50919050565b6000602081905290815260409020805460018201805460ff8084169461010090940416929190610a3690610eb7565b80601f0160208091040260200160405190810160405280929190818152602001828054610a6290610eb7565b8015610aaf5780601f10610a8457610100808354040283529160200191610aaf565b820191906000526020600020905b815481529060010190602001808311610a9257829003601f168201915b5050506002909301549192505060ff8116906001600160a01b036101009091041685565b67ffffffffffffffff81165b82525050565b6000610af18383610ad3565b505060200190565b6000610b03825190565b80845260209384019383018060005b83811015610b37578151610b268882610ae5565b975060208301925050600101610b12565b509495945050505050565b60208082528101610b538184610af9565b9392505050565b60006001600160a01b0382165b92915050565b610b7681610b5a565b8114610b8157600080fd5b50565b8035610b6781610b6d565b600060208284031215610ba457610ba4600080fd5b6000610bb08484610b84565b949350505050565b801515610adf565b60208101610b678284610bb8565b67ffffffffffffffff8116610b76565b8035610b6781610bce565b600060208284031215610bfe57610bfe600080fd5b6000610bb08484610bde565b610adf81610b5a565b60208101610b678284610c0a565b60208101610b678284610ad3565b60005b83811015610c4a578181015183820152602001610c32565b50506000910152565b6000610c5d825190565b808452602084019350610c74818560208601610c2f565b601f01601f19169290920192915050565b805160009060a0840190610c998582610bb8565b506020830151610cac6020860182610bb8565b5060408301518482036040860152610cc48282610c53565b9150506060830151610cd96060860182610bb8565b506080830151610cec6080860182610c0a565b509392505050565b60208082528101610b538184610c85565b80610b76565b8035610b6781610d05565b600060208284031215610d2b57610d2b600080fd5b6000610bb08484610d0b565b80610adf565b60208101610b678284610d37565b6000610b538383610c85565b6000610d61825190565b80845260208401935083602082028501610d7b8560200190565b8060005b85811015610db05784840389528151610d988582610d4b565b94506020830160209a909a0199925050600101610d7f565b5091979650505050505050565b60208082528101610b538184610d57565b60a08101610ddc8288610bb8565b610de96020830187610bb8565b8181036040830152610dfb8186610c53565b9050610e0a6060830185610bb8565b610e176080830184610c0a565b9695505050505050565b634e487b7160e01b600052604160045260246000fd5b634e487b7160e01b600052603260045260246000fd5b634e487b7160e01b600052601160045260246000fd5b67ffffffffffffffff16600067fffffffffffffffe198201610e8757610e87610e4d565b5060010190565b60006000198203610e8757610e87610e4d565b634e487b7160e01b600052602260045260246000fd5b600281046001821680610ecb57607f821691505b602082108103610a0157610a01610ea1565b600081610eec57610eec610e4d565b50600019019056fea264697066735822122034596cb539044bf5b5b4f2e47e2af45b7e693cfbb4611d8fd4b3b5f1d0e29a8364736f6c63430008140033",
  "devdoc": {
    "kind": "dev",
    "methods": {},
    "version": 1
  },
  "userdoc": {
    "kind": "user",
    "methods": {},
    "version": 1
  },
  "storageLayout": {
    "storage": [
      {
        "astId": 12543,
        "contract": "contracts/StorageProviderRegistry.sol:StorageProviderRegistry",
        "label": "storageProviders",
        "offset": 0,
        "slot": "0",
        "type": "t_mapping(t_uint64,t_struct(StorageProvider)13700_storage)"
      },
      {
        "astId": 12548,
        "contract": "contracts/StorageProviderRegistry.sol:StorageProviderRegistry",
        "label": "subsidies",
        "offset": 0,
        "slot": "1",
        "type": "t_mapping(t_uint64,t_struct(StorageProviderSubsidy)13707_storage)"
      },
      {
        "astId": 12552,
        "contract": "contracts/StorageProviderRegistry.sol:StorageProviderRegistry",
        "label": "storageProviderAddressToId",
        "offset": 0,
        "slot": "2",
        "type": "t_mapping(t_address,t_uint64)"
      },
      {
        "astId": 12556,
        "contract": "contracts/StorageProviderRegistry.sol:StorageProviderRegistry",
        "label": "whitelistedStorageProviders",
        "offset": 0,
        "slot": "3",
        "type": "t_mapping(t_uint64,t_bool)"
      },
      {
        "astId": 12559,
        "contract": "contracts/StorageProviderRegistry.sol:StorageProviderRegistry",
        "label": "storageProvidersList",
        "offset": 0,
        "slot": "4",
        "type": "t_array(t_uint64)dyn_storage"
      },
      {
        "astId": 12561,
        "contract": "contracts/StorageProviderRegistry.sol:StorageProviderRegistry",
        "label": "whitelistedCount",
        "offset": 0,
        "slot": "5",
        "type": "t_uint256"
      }
    ],
    "types": {
      "t_address": {
        "encoding": "inplace",
        "label": "address",
        "numberOfBytes": "20"
      },
      "t_array(t_uint64)dyn_storage": {
        "base": "t_uint64",
        "encoding": "dynamic_array",
        "label": "uint64[]",
        "numberOfBytes": "32"
      },
      "t_bool": {
        "encoding": "inplace",
        "label": "bool",
        "numberOfBytes": "1"
      },
      "t_mapping(t_address,t_uint64)": {
        "encoding": "mapping",
        "key": "t_address",
        "label": "mapping(address => uint64)",
        "numberOfBytes": "32",
        "value": "t_uint64"
      },
      "t_mapping(t_uint64,t_bool)": {
        "encoding": "mapping",
        "key": "t_uint64",
        "label": "mapping(uint64 => bool)",
        "numberOfBytes": "32",
        "value": "t_bool"
      },
      "t_mapping(t_uint64,t_struct(StorageProvider)13700_storage)": {
        "encoding": "mapping",
        "key": "t_uint64",
        "label": "mapping(uint64 => struct StorageProviderTypes.StorageProvider)",
        "numberOfBytes": "32",
        "value": "t_struct(StorageProvider)13700_storage"
      },
      "t_mapping(t_uint64,t_struct(StorageProviderSubsidy)13707_storage)": {
        "encoding": "mapping",
        "key": "t_uint64",
        "label": "mapping(uint64 => struct StorageProviderTypes.StorageProviderSubsidy)",
        "numberOfBytes": "32",
        "value": "t_struct(StorageProviderSubsidy)13707_storage"
      },
      "t_string_storage": {
        "encoding": "bytes",
        "label": "string",
        "numberOfBytes": "32"
      },
      "t_struct(StorageProvider)13700_storage": {
        "encoding": "inplace",
        "label": "struct StorageProviderTypes.StorageProvider",
        "members": [
          {
            "astId": 13691,
            "contract": "contracts/StorageProviderRegistry.sol:StorageProviderRegistry",
            "label": "active",
            "offset": 0,
            "slot": "0",
            "type": "t_bool"
          },
          {
            "astId": 13693,
            "contract": "contracts/StorageProviderRegistry.sol:StorageProviderRegistry",
            "label": "verified",
            "offset": 1,
            "slot": "0",
            "type": "t_bool"
          },
          {
            "astId": 13695,
            "contract": "contracts/StorageProviderRegistry.sol:StorageProviderRegistry",
            "label": "verificationFormCID",
            "offset": 0,
            "slot": "1",
            "type": "t_string_storage"
          },
          {
            "astId": 13697,
            "contract": "contracts/StorageProviderRegistry.sol:StorageProviderRegistry",
            "label": "blacklisted",
            "offset": 0,
            "slot": "2",
            "type": "t_bool"
          },
          {
            "astId": 13699,
            "contract": "contracts/StorageProviderRegistry.sol:StorageProviderRegistry",
            "label": "ethAddress",
            "offset": 1,
            "slot": "2",
            "type": "t_address"
          }
        ],
        "numberOfBytes": "96"
      },
      "t_struct(StorageProviderSubsidy)13707_storage": {
        "encoding": "inplace",
        "label": "struct StorageProviderTypes.StorageProviderSubsidy",
        "members": [
          {
            "astId": 13702,
            "contract": "contracts/StorageProviderRegistry.sol:StorageProviderRegistry",
            "label": "numberOfDealsRedeemed",
            "offset": 0,
            "slot": "0",
            "type": "t_uint256"
          },
          {
            "astId": 13706,
            "contract": "contracts/StorageProviderRegistry.sol:StorageProviderRegistry",
            "label": "dealsRedeemed",
            "offset": 0,
            "slot": "1",
            "type": "t_mapping(t_uint64,t_bool)"
          }
        ],
        "numberOfBytes": "64"
      },
      "t_uint256": {
        "encoding": "inplace",
        "label": "uint256",
        "numberOfBytes": "32"
      },
      "t_uint64": {
        "encoding": "inplace",
        "label": "uint64",
        "numberOfBytes": "8"
      }
    }
  }
}