{
  "address": "0xfb0C041eBa72298C72833bd74169B7C4F3133085",
  "abi": [
    {
      "inputs": [],
      "stateMutability": "nonpayable",
      "type": "constructor"
    },
    {
      "inputs": [],
      "name": "AccessControlBadConfirmation",
      "type": "error"
    },
    {
      "inputs": [
        {
          "internalType": "address",
          "name": "account",
          "type": "address"
        },
        {
          "internalType": "bytes32",
          "name": "neededRole",
          "type": "bytes32"
        }
      ],
      "name": "AccessControlUnauthorizedAccount",
      "type": "error"
    },
    {
      "anonymous": false,
      "inputs": [
        {
          "indexed": true,
          "internalType": "bytes32",
          "name": "role",
          "type": "bytes32"
        },
        {
          "indexed": true,
          "internalType": "bytes32",
          "name": "previousAdminRole",
          "type": "bytes32"
        },
        {
          "indexed": true,
          "internalType": "bytes32",
          "name": "newAdminRole",
          "type": "bytes32"
        }
      ],
      "name": "RoleAdminChanged",
      "type": "event"
    },
    {
      "anonymous": false,
      "inputs": [
        {
          "indexed": true,
          "internalType": "bytes32",
          "name": "role",
          "type": "bytes32"
        },
        {
          "indexed": true,
          "internalType": "address",
          "name": "account",
          "type": "address"
        },
        {
          "indexed": true,
          "internalType": "address",
          "name": "sender",
          "type": "address"
        }
      ],
      "name": "RoleGranted",
      "type": "event"
    },
    {
      "anonymous": false,
      "inputs": [
        {
          "indexed": true,
          "internalType": "bytes32",
          "name": "role",
          "type": "bytes32"
        },
        {
          "indexed": true,
          "internalType": "address",
          "name": "account",
          "type": "address"
        },
        {
          "indexed": true,
          "internalType": "address",
          "name": "sender",
          "type": "address"
        }
      ],
      "name": "RoleRevoked",
      "type": "event"
    },
    {
      "inputs": [],
      "name": "DEFAULT_ADMIN_ROLE",
      "outputs": [
        {
          "internalType": "bytes32",
          "name": "",
          "type": "bytes32"
        }
      ],
      "stateMutability": "view",
      "type": "function"
    },
    {
      "inputs": [
        {
          "internalType": "uint64",
          "name": "_storageProviderId",
          "type": "uint64"
        }
      ],
      "name": "blacklist",
      "outputs": [],
      "stateMutability": "nonpayable",
      "type": "function"
    },
    {
      "inputs": [],
      "name": "getAllStorageProviders",
      "outputs": [
        {
          "components": [
            {
              "internalType": "bool",
              "name": "active",
              "type": "bool"
            },
            {
              "internalType": "bool",
              "name": "verified",
              "type": "bool"
            },
            {
              "internalType": "string",
              "name": "verificationFormCID",
              "type": "string"
            },
            {
              "internalType": "bool",
              "name": "blacklisted",
              "type": "bool"
            },
            {
              "internalType": "address",
              "name": "ethAddress",
              "type": "address"
            }
          ],
          "internalType": "struct StorageProviderTypes.StorageProvider[]",
          "name": "",
          "type": "tuple[]"
        }
      ],
      "stateMutability": "view",
      "type": "function"
    },
    {
      "inputs": [
        {
          "internalType": "uint64",
          "name": "_storageProviderId",
          "type": "uint64"
        }
      ],
      "name": "getEthAddress",
      "outputs": [
        {
          "internalType": "address",
          "name": "",
          "type": "address"
        }
      ],
      "stateMutability": "view",
      "type": "function"
    },
    {
      "inputs": [
        {
          "internalType": "bytes32",
          "name": "role",
          "type": "bytes32"
        }
      ],
      "name": "getRoleAdmin",
      "outputs": [
        {
          "internalType": "bytes32",
          "name": "",
          "type": "bytes32"
        }
      ],
      "stateMutability": "view",
      "type": "function"
    },
    {
      "inputs": [
        {
          "internalType": "address",
          "name": "_storageProviderAddress",
          "type": "address"
        }
      ],
      "name": "getStorageProviderByAddress",
      "outputs": [
        {
          "components": [
            {
              "internalType": "bool",
              "name": "active",
              "type": "bool"
            },
            {
              "internalType": "bool",
              "name": "verified",
              "type": "bool"
            },
            {
              "internalType": "string",
              "name": "verificationFormCID",
              "type": "string"
            },
            {
              "internalType": "bool",
              "name": "blacklisted",
              "type": "bool"
            },
            {
              "internalType": "address",
              "name": "ethAddress",
              "type": "address"
            }
          ],
          "internalType": "struct StorageProviderTypes.StorageProvider",
          "name": "",
          "type": "tuple"
        }
      ],
      "stateMutability": "view",
      "type": "function"
    },
    {
      "inputs": [],
      "name": "getWhitelistedStorageProviders",
      "outputs": [
        {
          "internalType": "uint64[]",
          "name": "",
          "type": "uint64[]"
        }
      ],
      "stateMutability": "view",
      "type": "function"
    },
    {
      "inputs": [
        {
          "internalType": "bytes32",
          "name": "role",
          "type": "bytes32"
        },
        {
          "internalType": "address",
          "name": "account",
          "type": "address"
        }
      ],
      "name": "grantRole",
      "outputs": [],
      "stateMutability": "nonpayable",
      "type": "function"
    },
    {
      "inputs": [
        {
          "internalType": "bytes32",
          "name": "role",
          "type": "bytes32"
        },
        {
          "internalType": "address",
          "name": "account",
          "type": "address"
        }
      ],
      "name": "hasRole",
      "outputs": [
        {
          "internalType": "bool",
          "name": "",
          "type": "bool"
        }
      ],
      "stateMutability": "view",
      "type": "function"
    },
    {
      "inputs": [
        {
          "internalType": "address",
          "name": "_storageProviderAddress",
          "type": "address"
        }
      ],
      "name": "isAddressWhitelisted",
      "outputs": [
        {
          "internalType": "bool",
          "name": "",
          "type": "bool"
        }
      ],
      "stateMutability": "view",
      "type": "function"
    },
    {
      "inputs": [
        {
          "internalType": "address",
          "name": "_storageProviderAddress",
          "type": "address"
        }
      ],
      "name": "isStorageProviderAddressRegistered",
      "outputs": [
        {
          "internalType": "bool",
          "name": "",
          "type": "bool"
        }
      ],
      "stateMutability": "view",
      "type": "function"
    },
    {
      "inputs": [
        {
          "internalType": "uint64",
          "name": "_storageProviderId",
          "type": "uint64"
        }
      ],
      "name": "isStorageProviderRegistered",
      "outputs": [
        {
          "internalType": "bool",
          "name": "",
          "type": "bool"
        }
      ],
      "stateMutability": "view",
      "type": "function"
    },
    {
      "inputs": [
        {
          "internalType": "uint64",
          "name": "_storageProviderId",
          "type": "uint64"
        }
      ],
      "name": "isWhitelisted",
      "outputs": [
        {
          "internalType": "bool",
          "name": "",
          "type": "bool"
        }
      ],
      "stateMutability": "view",
      "type": "function"
    },
    {
      "inputs": [
        {
          "internalType": "uint64",
          "name": "_storageProviderId",
          "type": "uint64"
        }
      ],
      "name": "register",
      "outputs": [],
      "stateMutability": "nonpayable",
      "type": "function"
    },
    {
      "inputs": [
        {
          "internalType": "bytes32",
          "name": "role",
          "type": "bytes32"
        },
        {
          "internalType": "address",
          "name": "callerConfirmation",
          "type": "address"
        }
      ],
      "name": "renounceRole",
      "outputs": [],
      "stateMutability": "nonpayable",
      "type": "function"
    },
    {
      "inputs": [
        {
          "internalType": "bytes32",
          "name": "role",
          "type": "bytes32"
        },
        {
          "internalType": "address",
          "name": "account",
          "type": "address"
        }
      ],
      "name": "revokeRole",
      "outputs": [],
      "stateMutability": "nonpayable",
      "type": "function"
    },
    {
      "inputs": [
        {
          "internalType": "address",
          "name": "_subsidyDaoAddress",
          "type": "address"
        }
      ],
      "name": "setSubsidyDao",
      "outputs": [],
      "stateMutability": "nonpayable",
      "type": "function"
    },
    {
      "inputs": [
        {
          "internalType": "address",
          "name": "",
          "type": "address"
        }
      ],
      "name": "storageProviderAddressToId",
      "outputs": [
        {
          "internalType": "uint64",
          "name": "",
          "type": "uint64"
        }
      ],
      "stateMutability": "view",
      "type": "function"
    },
    {
      "inputs": [
        {
          "internalType": "uint64",
          "name": "",
          "type": "uint64"
        }
      ],
      "name": "storageProviders",
      "outputs": [
        {
          "internalType": "bool",
          "name": "active",
          "type": "bool"
        },
        {
          "internalType": "bool",
          "name": "verified",
          "type": "bool"
        },
        {
          "internalType": "string",
          "name": "verificationFormCID",
          "type": "string"
        },
        {
          "internalType": "bool",
          "name": "blacklisted",
          "type": "bool"
        },
        {
          "internalType": "address",
          "name": "ethAddress",
          "type": "address"
        }
      ],
      "stateMutability": "view",
      "type": "function"
    },
    {
      "inputs": [
        {
          "internalType": "uint256",
          "name": "",
          "type": "uint256"
        }
      ],
      "name": "storageProvidersList",
      "outputs": [
        {
          "internalType": "uint64",
          "name": "",
          "type": "uint64"
        }
      ],
      "stateMutability": "view",
      "type": "function"
    },
    {
      "inputs": [
        {
          "internalType": "uint64",
          "name": "",
          "type": "uint64"
        }
      ],
      "name": "subsidies",
      "outputs": [
        {
          "internalType": "uint256",
          "name": "numberOfDealsRedeemed",
          "type": "uint256"
        }
      ],
      "stateMutability": "view",
      "type": "function"
    },
    {
      "inputs": [
        {
          "internalType": "bytes4",
          "name": "interfaceId",
          "type": "bytes4"
        }
      ],
      "name": "supportsInterface",
      "outputs": [
        {
          "internalType": "bool",
          "name": "",
          "type": "bool"
        }
      ],
      "stateMutability": "view",
      "type": "function"
    },
    {
      "inputs": [
        {
          "internalType": "uint64",
          "name": "_storageProviderId",
          "type": "uint64"
        }
      ],
      "name": "whitelist",
      "outputs": [],
      "stateMutability": "nonpayable",
      "type": "function"
    },
    {
      "inputs": [],
      "name": "whitelistedCount",
      "outputs": [
        {
          "internalType": "uint256",
          "name": "",
          "type": "uint256"
        }
      ],
      "stateMutability": "view",
      "type": "function"
    },
    {
      "inputs": [
        {
          "internalType": "uint64",
          "name": "",
          "type": "uint64"
        }
      ],
      "name": "whitelistedStorageProviders",
      "outputs": [
        {
          "internalType": "bool",
          "name": "",
          "type": "bool"
        }
      ],
      "stateMutability": "view",
      "type": "function"
    }
  ],
  "transactionHash": "0x518e37c50dfd622823cfc486d193811eb6d70b5faab251a91a4e3a746ef02618",
  "args": [],
  "numDeployments": 6,
  "solcInputHash": "b67c91edfe2795f7d518198501f8ed1c",
  "bytecode": "0x608060405234801561001057600080fd5b5061001c600033610022565b506100ce565b6000828152602081815260408083206001600160a01b038516845290915281205460ff166100c4576000838152602081815260408083206001600160a01b03861684529091529020805460ff1916600117905561007c3390565b6001600160a01b0316826001600160a01b0316847f2f8788117e7eff1d82e926ec794901d17c78024a50270940304540a733656f0d60405160405180910390a45060016100c8565b5060005b92915050565b6114cc806100dd6000396000f3fe608060405234801561001057600080fd5b50600436106101a35760003560e01c806391d14854116100ee578063c8c2d7f511610097578063ec34d22211610071578063ec34d22214610458578063ef4e71d114610485578063f5165863146104a5578063fc0dd7e1146104b857600080fd5b8063c8c2d7f51461040c578063d547741f14610421578063dd6460ce1461043457600080fd5b8063b2a1de22116100c8578063b2a1de22146103bb578063b572a966146103c4578063c8baa0ac146103d757600080fd5b806391d148541461036957806399d1601a146103a0578063a217fddf146103b357600080fd5b806336568abe1161015057806368ec4adc1161012a57806368ec4adc1461032357806376383232146103365780637914952e1461034957600080fd5b806336568abe146102b657806352fedb98146102c95780635da4334a146102ec57600080fd5b8063248a9ca311610181578063248a9ca31461022957806325dcaf97146102595780632f2ff15d146102a157600080fd5b806301ffc9a7146101a85780630c583cbe146101d157806313f44d10146101e6575b600080fd5b6101bb6101b636600461100c565b6104f5565b6040516101c8919061103f565b60405180910390f35b6101d961058e565b6040516101c891906110ba565b6101bb6101f43660046110f7565b6001600160a01b031660009081526003602090815260408083205467ffffffffffffffff168352600490915290205460ff1690565b61024c610237366004611129565b60009081526020819052604090206001015490565b6040516101c89190611150565b610294610267366004611179565b67ffffffffffffffff1660009081526001602052604090206002015461010090046001600160a01b031690565b6040516101c891906111a3565b6102b46102af3660046111b1565b6106f5565b005b6102b46102c43660046111b1565b610720565b6101bb6102d7366004611179565b60046020526000908152604090205460ff1681565b6103166102fa3660046110f7565b60036020526000908152604090205467ffffffffffffffff1681565b6040516101c891906111ee565b6102b4610331366004611179565b610771565b6102b46103443660046110f7565b6107d4565b61035c6103573660046110f7565b61081a565b6040516101c891906112c1565b6101bb6103773660046111b1565b6000918252602082815260408084206001600160a01b0393909316845291905290205460ff1690565b6103166103ae366004611129565b610957565b61024c600081565b61024c60065481565b6102b46103d2366004611179565b610995565b6101bb6103e53660046110f7565b6001600160a01b031660009081526003602052604090205467ffffffffffffffff16151590565b6104146109e9565b6040516101c89190611344565b6102b461042f3660046111b1565b610bfb565b610447610442366004611179565b610c20565b6040516101c8959493929190611355565b6101bb610466366004611179565b67ffffffffffffffff1660009081526004602052604090205460ff1690565b61024c610493366004611179565b60026020526000908152604090205481565b6102b46104b3366004611179565b610ced565b6101bb6104c6366004611179565b67ffffffffffffffff1660009081526001602052604090206002015461010090046001600160a01b0316151590565b60007fffffffff0000000000000000000000000000000000000000000000000000000082167f7965db0b00000000000000000000000000000000000000000000000000000000148061058857507f01ffc9a7000000000000000000000000000000000000000000000000000000007fffffffff000000000000000000000000000000000000000000000000000000008316145b92915050565b6060600060065467ffffffffffffffff8111156105ad576105ad6113a8565b6040519080825280602002602001820160405280156105d6578160200160208202803683370190505b5090506000805b60055467ffffffffffffffff821610156106ed576004600060058367ffffffffffffffff1681548110610612576106126113be565b6000918252602080832060048304015460039092166008026101000a90910467ffffffffffffffff16835282019290925260400190205460ff16156106db5760058167ffffffffffffffff168154811061066e5761066e6113be565b90600052602060002090600491828204019190066008029054906101000a900467ffffffffffffffff16838367ffffffffffffffff16815181106106b4576106b46113be565b67ffffffffffffffff90921660209283029190910190910152816106d7816113ea565b9250505b806106e5816113ea565b9150506105dd565b509092915050565b60008281526020819052604090206001015461071081610e2d565b61071a8383610e3a565b50505050565b6001600160a01b0381163314610762576040517f6697b23200000000000000000000000000000000000000000000000000000000815260040160405180910390fd5b61076c8282610ee4565b505050565b67ffffffffffffffff81166000908152600160208181526040808420805461ff001916610100178155600283528185208581556004909352908420805460ff19169093179092556006805492939192916107ca83611415565b9190505550505050565b60006107df81610e2d565b50600780547fffffffffffffffffffffffff0000000000000000000000000000000000000000166001600160a01b0392909216919091179055565b6040805160a080820183526000808352602080840182905260608486018190528401829052608084018290526001600160a01b0386168252600381528482205467ffffffffffffffff1680835260018083529286902086519485018752805460ff808216151587526101009091041615159285019290925291810180549495929491928401916108a99061143e565b80601f01602080910402602001604051908101604052809291908181526020018280546108d59061143e565b80156109225780601f106108f757610100808354040283529160200191610922565b820191906000526020600020905b81548152906001019060200180831161090557829003601f168201915b50505091835250506002919091015460ff81161515602083015261010090046001600160a01b03166040909101529392505050565b6005818154811061096757600080fd5b9060005260206000209060049182820401919006600802915054906101000a900467ffffffffffffffff1681565b67ffffffffffffffff8116600090815260016020818152604080842060028101805460ff1990811690951790556004909252832080549092169091556006805491926109e083611464565b91905055505050565b60055460609060009067ffffffffffffffff811115610a0a57610a0a6113a8565b604051908082528060200260200182016040528015610a6457816020015b6040805160a08101825260008082526020808301829052606093830184905292820181905260808201528252600019909201910181610a285790505b50905060005b60055467ffffffffffffffff82161015610bf5576001600060058367ffffffffffffffff1681548110610a9f57610a9f6113be565b60009182526020808320600483040154600390921660080261010090810a90920467ffffffffffffffff168452838101949094526040928301909120825160a081018452815460ff80821615158352939004909216151593820193909352600183018054919392840191610b129061143e565b80601f0160208091040260200160405190810160405280929190818152602001828054610b3e9061143e565b8015610b8b5780601f10610b6057610100808354040283529160200191610b8b565b820191906000526020600020905b815481529060010190602001808311610b6e57829003601f168201915b50505091835250506002919091015460ff81161515602083015261010090046001600160a01b03166040909101528251839067ffffffffffffffff8416908110610bd757610bd76113be565b60200260200101819052508080610bed906113ea565b915050610a6a565b50919050565b600082815260208190526040902060010154610c1681610e2d565b61071a8383610ee4565b60016020819052600091825260409091208054918101805460ff80851694610100900416929190610c509061143e565b80601f0160208091040260200160405190810160405280929190818152602001828054610c7c9061143e565b8015610cc95780601f10610c9e57610100808354040283529160200191610cc9565b820191906000526020600020905b815481529060010190602001808311610cac57829003601f168201915b5050506002909301549192505060ff8116906001600160a01b036101009091041685565b67ffffffffffffffff81811660008181526001602081815260408084206002810180547fffffffffffffffffffffff0000000000000000000000000000000000000000ff163361010081810292909217909255908652600393849052828620805467ffffffffffffffff1916881790556005805495860181559095527f036b6384b5eca791c62761152d0c79bb0604c104a5fb6f4eb0703f3154bb3db060048086049190910180549590941660080290950a96870219909316959094029490941790935560075491517f0178791c0000000000000000000000000000000000000000000000000000000081526001600160a01b0390921691630178791c91610df7918691016111ee565b600060405180830381600087803b158015610e1157600080fd5b505af1158015610e25573d6000803e3d6000fd5b505050505050565b610e378133610f67565b50565b6000828152602081815260408083206001600160a01b038516845290915281205460ff16610edc576000838152602081815260408083206001600160a01b03861684529091529020805460ff19166001179055610e943390565b6001600160a01b0316826001600160a01b0316847f2f8788117e7eff1d82e926ec794901d17c78024a50270940304540a733656f0d60405160405180910390a4506001610588565b506000610588565b6000828152602081815260408083206001600160a01b038516845290915281205460ff1615610edc576000838152602081815260408083206001600160a01b0386168085529252808320805460ff1916905551339286917ff6391f5c32d9c69d2a47ea670b442974b53935d1edc7fd64eb21e047a839171b9190a4506001610588565b6000828152602081815260408083206001600160a01b038516845290915290205460ff16610fce5780826040517fe2517d3f000000000000000000000000000000000000000000000000000000008152600401610fc592919061147b565b60405180910390fd5b5050565b7fffffffff0000000000000000000000000000000000000000000000000000000081165b8114610e3757600080fd5b803561058881610fd2565b60006020828403121561102157611021600080fd5b600061102d8484611001565b949350505050565b8015155b82525050565b602081016105888284611035565b67ffffffffffffffff8116611039565b6000611069838361104d565b505060200190565b600061107b825190565b80845260209384019383018060005b838110156110af57815161109e888261105d565b97506020830192505060010161108a565b509495945050505050565b602080825281016110cb8184611071565b9392505050565b60006001600160a01b038216610588565b610ff6816110d2565b8035610588816110e3565b60006020828403121561110c5761110c600080fd5b600061102d84846110ec565b80610ff6565b803561058881611118565b60006020828403121561113e5761113e600080fd5b600061102d848461111e565b80611039565b60208101610588828461114a565b67ffffffffffffffff8116610ff6565b80356105888161115e565b60006020828403121561118e5761118e600080fd5b600061102d848461116e565b611039816110d2565b60208101610588828461119a565b600080604083850312156111c7576111c7600080fd5b60006111d3858561111e565b92505060206111e4858286016110ec565b9150509250929050565b60208101610588828461104d565b60005b838110156112175781810151838201526020016111ff565b50506000910152565b600061122a825190565b8084526020840193506112418185602086016111fc565b601f01601f19169290920192915050565b805160009060a08401906112668582611035565b5060208301516112796020860182611035565b50604083015184820360408601526112918282611220565b91505060608301516112a66060860182611035565b5060808301516112b9608086018261119a565b509392505050565b602080825281016110cb8184611252565b60006110cb8383611252565b60006112e8825190565b808452602084019350836020820285016113028560200190565b8060005b85811015611337578484038952815161131f85826112d2565b94506020830160209a909a0199925050600101611306565b5091979650505050505050565b602080825281016110cb81846112de565b60a081016113638288611035565b6113706020830187611035565b81810360408301526113828186611220565b90506113916060830185611035565b61139e608083018461119a565b9695505050505050565b634e487b7160e01b600052604160045260246000fd5b634e487b7160e01b600052603260045260246000fd5b634e487b7160e01b600052601160045260246000fd5b67ffffffffffffffff16600067fffffffffffffffe19820161140e5761140e6113d4565b5060010190565b6000600019820361140e5761140e6113d4565b634e487b7160e01b600052602260045260246000fd5b60028104600182168061145257607f821691505b602082108103610bf557610bf5611428565b600081611473576114736113d4565b506000190190565b60408101611489828561119a565b6110cb602083018461114a56fea2646970667358221220afc52bc242bd1704ce77723568c3cb2380fa264f292a997dc49664f940a021d864736f6c63430008140033",
  "devdoc": {
    "errors": {
      "AccessControlBadConfirmation()": [
        {
          "details": "The caller of a function is not the expected one. NOTE: Don't confuse with {AccessControlUnauthorizedAccount}."
        }
      ],
      "AccessControlUnauthorizedAccount(address,bytes32)": [
        {
          "details": "The `account` is missing a role."
        }
      ]
    },
    "events": {
      "RoleAdminChanged(bytes32,bytes32,bytes32)": {
        "details": "Emitted when `newAdminRole` is set as ``role``'s admin role, replacing `previousAdminRole` `DEFAULT_ADMIN_ROLE` is the starting admin for all roles, despite {RoleAdminChanged} not being emitted signaling this."
      },
      "RoleGranted(bytes32,address,address)": {
        "details": "Emitted when `account` is granted `role`. `sender` is the account that originated the contract call, an admin role bearer except when using {AccessControl-_setupRole}."
      },
      "RoleRevoked(bytes32,address,address)": {
        "details": "Emitted when `account` is revoked `role`. `sender` is the account that originated the contract call:   - if using `revokeRole`, it is the admin role bearer   - if using `renounceRole`, it is the role bearer (i.e. `account`)"
      }
    },
    "kind": "dev",
    "methods": {
      "getRoleAdmin(bytes32)": {
        "details": "Returns the admin role that controls `role`. See {grantRole} and {revokeRole}. To change a role's admin, use {_setRoleAdmin}."
      },
      "grantRole(bytes32,address)": {
        "details": "Grants `role` to `account`. If `account` had not been already granted `role`, emits a {RoleGranted} event. Requirements: - the caller must have ``role``'s admin role. May emit a {RoleGranted} event."
      },
      "hasRole(bytes32,address)": {
        "details": "Returns `true` if `account` has been granted `role`."
      },
      "renounceRole(bytes32,address)": {
        "details": "Revokes `role` from the calling account. Roles are often managed via {grantRole} and {revokeRole}: this function's purpose is to provide a mechanism for accounts to lose their privileges if they are compromised (such as when a trusted device is misplaced). If the calling account had been revoked `role`, emits a {RoleRevoked} event. Requirements: - the caller must be `callerConfirmation`. May emit a {RoleRevoked} event."
      },
      "revokeRole(bytes32,address)": {
        "details": "Revokes `role` from `account`. If `account` had been granted `role`, emits a {RoleRevoked} event. Requirements: - the caller must have ``role``'s admin role. May emit a {RoleRevoked} event."
      },
      "supportsInterface(bytes4)": {
        "details": "See {IERC165-supportsInterface}."
      }
    },
    "version": 1
  },
  "userdoc": {
    "kind": "user",
    "methods": {},
    "version": 1
  },
  "storageLayout": {
    "storage": [
      {
        "astId": 448,
        "contract": "contracts/StorageProviderRegistry.sol:StorageProviderRegistry",
        "label": "_roles",
        "offset": 0,
        "slot": "0",
        "type": "t_mapping(t_bytes32,t_struct(RoleData)443_storage)"
      },
      {
        "astId": 12646,
        "contract": "contracts/StorageProviderRegistry.sol:StorageProviderRegistry",
        "label": "storageProviders",
        "offset": 0,
        "slot": "1",
        "type": "t_mapping(t_uint64,t_struct(StorageProvider)13974_storage)"
      },
      {
        "astId": 12651,
        "contract": "contracts/StorageProviderRegistry.sol:StorageProviderRegistry",
        "label": "subsidies",
        "offset": 0,
        "slot": "2",
        "type": "t_mapping(t_uint64,t_struct(StorageProviderSubsidy)13981_storage)"
      },
      {
        "astId": 12655,
        "contract": "contracts/StorageProviderRegistry.sol:StorageProviderRegistry",
        "label": "storageProviderAddressToId",
        "offset": 0,
        "slot": "3",
        "type": "t_mapping(t_address,t_uint64)"
      },
      {
        "astId": 12659,
        "contract": "contracts/StorageProviderRegistry.sol:StorageProviderRegistry",
        "label": "whitelistedStorageProviders",
        "offset": 0,
        "slot": "4",
        "type": "t_mapping(t_uint64,t_bool)"
      },
      {
        "astId": 12662,
        "contract": "contracts/StorageProviderRegistry.sol:StorageProviderRegistry",
        "label": "storageProvidersList",
        "offset": 0,
        "slot": "5",
        "type": "t_array(t_uint64)dyn_storage"
      },
      {
        "astId": 12664,
        "contract": "contracts/StorageProviderRegistry.sol:StorageProviderRegistry",
        "label": "whitelistedCount",
        "offset": 0,
        "slot": "6",
        "type": "t_uint256"
      },
      {
        "astId": 12667,
        "contract": "contracts/StorageProviderRegistry.sol:StorageProviderRegistry",
        "label": "subsidyDao",
        "offset": 0,
        "slot": "7",
        "type": "t_contract(SubsidyDao)13812"
      }
    ],
    "types": {
      "t_address": {
        "encoding": "inplace",
        "label": "address",
        "numberOfBytes": "20"
      },
      "t_array(t_uint64)dyn_storage": {
        "base": "t_uint64",
        "encoding": "dynamic_array",
        "label": "uint64[]",
        "numberOfBytes": "32"
      },
      "t_bool": {
        "encoding": "inplace",
        "label": "bool",
        "numberOfBytes": "1"
      },
      "t_bytes32": {
        "encoding": "inplace",
        "label": "bytes32",
        "numberOfBytes": "32"
      },
      "t_contract(SubsidyDao)13812": {
        "encoding": "inplace",
        "label": "contract SubsidyDao",
        "numberOfBytes": "20"
      },
      "t_mapping(t_address,t_bool)": {
        "encoding": "mapping",
        "key": "t_address",
        "label": "mapping(address => bool)",
        "numberOfBytes": "32",
        "value": "t_bool"
      },
      "t_mapping(t_address,t_uint64)": {
        "encoding": "mapping",
        "key": "t_address",
        "label": "mapping(address => uint64)",
        "numberOfBytes": "32",
        "value": "t_uint64"
      },
      "t_mapping(t_bytes32,t_struct(RoleData)443_storage)": {
        "encoding": "mapping",
        "key": "t_bytes32",
        "label": "mapping(bytes32 => struct AccessControl.RoleData)",
        "numberOfBytes": "32",
        "value": "t_struct(RoleData)443_storage"
      },
      "t_mapping(t_uint64,t_bool)": {
        "encoding": "mapping",
        "key": "t_uint64",
        "label": "mapping(uint64 => bool)",
        "numberOfBytes": "32",
        "value": "t_bool"
      },
      "t_mapping(t_uint64,t_struct(StorageProvider)13974_storage)": {
        "encoding": "mapping",
        "key": "t_uint64",
        "label": "mapping(uint64 => struct StorageProviderTypes.StorageProvider)",
        "numberOfBytes": "32",
        "value": "t_struct(StorageProvider)13974_storage"
      },
      "t_mapping(t_uint64,t_struct(StorageProviderSubsidy)13981_storage)": {
        "encoding": "mapping",
        "key": "t_uint64",
        "label": "mapping(uint64 => struct StorageProviderTypes.StorageProviderSubsidy)",
        "numberOfBytes": "32",
        "value": "t_struct(StorageProviderSubsidy)13981_storage"
      },
      "t_string_storage": {
        "encoding": "bytes",
        "label": "string",
        "numberOfBytes": "32"
      },
      "t_struct(RoleData)443_storage": {
        "encoding": "inplace",
        "label": "struct AccessControl.RoleData",
        "members": [
          {
            "astId": 440,
            "contract": "contracts/StorageProviderRegistry.sol:StorageProviderRegistry",
            "label": "hasRole",
            "offset": 0,
            "slot": "0",
            "type": "t_mapping(t_address,t_bool)"
          },
          {
            "astId": 442,
            "contract": "contracts/StorageProviderRegistry.sol:StorageProviderRegistry",
            "label": "adminRole",
            "offset": 0,
            "slot": "1",
            "type": "t_bytes32"
          }
        ],
        "numberOfBytes": "64"
      },
      "t_struct(StorageProvider)13974_storage": {
        "encoding": "inplace",
        "label": "struct StorageProviderTypes.StorageProvider",
        "members": [
          {
            "astId": 13965,
            "contract": "contracts/StorageProviderRegistry.sol:StorageProviderRegistry",
            "label": "active",
            "offset": 0,
            "slot": "0",
            "type": "t_bool"
          },
          {
            "astId": 13967,
            "contract": "contracts/StorageProviderRegistry.sol:StorageProviderRegistry",
            "label": "verified",
            "offset": 1,
            "slot": "0",
            "type": "t_bool"
          },
          {
            "astId": 13969,
            "contract": "contracts/StorageProviderRegistry.sol:StorageProviderRegistry",
            "label": "verificationFormCID",
            "offset": 0,
            "slot": "1",
            "type": "t_string_storage"
          },
          {
            "astId": 13971,
            "contract": "contracts/StorageProviderRegistry.sol:StorageProviderRegistry",
            "label": "blacklisted",
            "offset": 0,
            "slot": "2",
            "type": "t_bool"
          },
          {
            "astId": 13973,
            "contract": "contracts/StorageProviderRegistry.sol:StorageProviderRegistry",
            "label": "ethAddress",
            "offset": 1,
            "slot": "2",
            "type": "t_address"
          }
        ],
        "numberOfBytes": "96"
      },
      "t_struct(StorageProviderSubsidy)13981_storage": {
        "encoding": "inplace",
        "label": "struct StorageProviderTypes.StorageProviderSubsidy",
        "members": [
          {
            "astId": 13976,
            "contract": "contracts/StorageProviderRegistry.sol:StorageProviderRegistry",
            "label": "numberOfDealsRedeemed",
            "offset": 0,
            "slot": "0",
            "type": "t_uint256"
          },
          {
            "astId": 13980,
            "contract": "contracts/StorageProviderRegistry.sol:StorageProviderRegistry",
            "label": "dealsRedeemed",
            "offset": 0,
            "slot": "1",
            "type": "t_mapping(t_uint64,t_bool)"
          }
        ],
        "numberOfBytes": "64"
      },
      "t_uint256": {
        "encoding": "inplace",
        "label": "uint256",
        "numberOfBytes": "32"
      },
      "t_uint64": {
        "encoding": "inplace",
        "label": "uint64",
        "numberOfBytes": "8"
      }
    }
  }
}