{
  "address": "0x1fBD6B4934bE04Ec64A67b87482F0Bdce3D2BE7E",
  "abi": [
    {
      "inputs": [],
      "stateMutability": "nonpayable",
      "type": "constructor"
    },
    {
      "inputs": [],
      "name": "AccessControlBadConfirmation",
      "type": "error"
    },
    {
      "inputs": [
        {
          "internalType": "address",
          "name": "account",
          "type": "address"
        },
        {
          "internalType": "bytes32",
          "name": "neededRole",
          "type": "bytes32"
        }
      ],
      "name": "AccessControlUnauthorizedAccount",
      "type": "error"
    },
    {
      "anonymous": false,
      "inputs": [
        {
          "indexed": true,
          "internalType": "bytes32",
          "name": "role",
          "type": "bytes32"
        },
        {
          "indexed": true,
          "internalType": "bytes32",
          "name": "previousAdminRole",
          "type": "bytes32"
        },
        {
          "indexed": true,
          "internalType": "bytes32",
          "name": "newAdminRole",
          "type": "bytes32"
        }
      ],
      "name": "RoleAdminChanged",
      "type": "event"
    },
    {
      "anonymous": false,
      "inputs": [
        {
          "indexed": true,
          "internalType": "bytes32",
          "name": "role",
          "type": "bytes32"
        },
        {
          "indexed": true,
          "internalType": "address",
          "name": "account",
          "type": "address"
        },
        {
          "indexed": true,
          "internalType": "address",
          "name": "sender",
          "type": "address"
        }
      ],
      "name": "RoleGranted",
      "type": "event"
    },
    {
      "anonymous": false,
      "inputs": [
        {
          "indexed": true,
          "internalType": "bytes32",
          "name": "role",
          "type": "bytes32"
        },
        {
          "indexed": true,
          "internalType": "address",
          "name": "account",
          "type": "address"
        },
        {
          "indexed": true,
          "internalType": "address",
          "name": "sender",
          "type": "address"
        }
      ],
      "name": "RoleRevoked",
      "type": "event"
    },
    {
      "inputs": [],
      "name": "DEFAULT_ADMIN_ROLE",
      "outputs": [
        {
          "internalType": "bytes32",
          "name": "",
          "type": "bytes32"
        }
      ],
      "stateMutability": "view",
      "type": "function"
    },
    {
      "inputs": [
        {
          "internalType": "uint256",
          "name": "_requestIndex",
          "type": "uint256"
        }
      ],
      "name": "approveClientAllocationRequest",
      "outputs": [],
      "stateMutability": "nonpayable",
      "type": "function"
    },
    {
      "inputs": [
        {
          "internalType": "uint256",
          "name": "_requestIndex",
          "type": "uint256"
        }
      ],
      "name": "approveClientWhitelistRequest",
      "outputs": [],
      "stateMutability": "nonpayable",
      "type": "function"
    },
    {
      "inputs": [
        {
          "internalType": "uint256",
          "name": "_requestIndex",
          "type": "uint256"
        }
      ],
      "name": "approveStorageProviderWhitelistRequest",
      "outputs": [],
      "stateMutability": "nonpayable",
      "type": "function"
    },
    {
      "inputs": [],
      "name": "clientAllocationRequestCount",
      "outputs": [
        {
          "internalType": "uint256",
          "name": "",
          "type": "uint256"
        }
      ],
      "stateMutability": "view",
      "type": "function"
    },
    {
      "inputs": [],
      "name": "clientWhitelistRequestCount",
      "outputs": [
        {
          "internalType": "uint256",
          "name": "",
          "type": "uint256"
        }
      ],
      "stateMutability": "view",
      "type": "function"
    },
    {
      "inputs": [
        {
          "internalType": "uint64",
          "name": "_clientId",
          "type": "uint64"
        },
        {
          "internalType": "uint256",
          "name": "_allocation",
          "type": "uint256"
        }
      ],
      "name": "createClientAllocationRequest",
      "outputs": [],
      "stateMutability": "nonpayable",
      "type": "function"
    },
    {
      "inputs": [
        {
          "internalType": "uint64",
          "name": "_clientId",
          "type": "uint64"
        }
      ],
      "name": "createClientWhitelistRequest",
      "outputs": [],
      "stateMutability": "nonpayable",
      "type": "function"
    },
    {
      "inputs": [
        {
          "internalType": "uint64",
          "name": "_storageProviderId",
          "type": "uint64"
        }
      ],
      "name": "createStorageProviderWhitelistRequest",
      "outputs": [],
      "stateMutability": "nonpayable",
      "type": "function"
    },
    {
      "inputs": [],
      "name": "getClientAllocationRequests",
      "outputs": [
        {
          "components": [
            {
              "internalType": "uint64",
              "name": "clientId",
              "type": "uint64"
            },
            {
              "internalType": "uint256",
              "name": "allocation",
              "type": "uint256"
            },
            {
              "internalType": "bool",
              "name": "approved",
              "type": "bool"
            }
          ],
          "internalType": "struct SubsidyDaoTypes.ClientAllocationRequest[]",
          "name": "",
          "type": "tuple[]"
        }
      ],
      "stateMutability": "view",
      "type": "function"
    },
    {
      "inputs": [],
      "name": "getClientWhitelistRequests",
      "outputs": [
        {
          "components": [
            {
              "internalType": "uint64",
              "name": "clientId",
              "type": "uint64"
            },
            {
              "internalType": "bool",
              "name": "approved",
              "type": "bool"
            }
          ],
          "internalType": "struct SubsidyDaoTypes.ClientWhitelistRequest[]",
          "name": "",
          "type": "tuple[]"
        }
      ],
      "stateMutability": "view",
      "type": "function"
    },
    {
      "inputs": [
        {
          "internalType": "bytes32",
          "name": "role",
          "type": "bytes32"
        }
      ],
      "name": "getRoleAdmin",
      "outputs": [
        {
          "internalType": "bytes32",
          "name": "",
          "type": "bytes32"
        }
      ],
      "stateMutability": "view",
      "type": "function"
    },
    {
      "inputs": [],
      "name": "getStorageProviderWhitelistRequests",
      "outputs": [
        {
          "components": [
            {
              "internalType": "uint64",
              "name": "storageProviderId",
              "type": "uint64"
            },
            {
              "internalType": "bool",
              "name": "approved",
              "type": "bool"
            }
          ],
          "internalType": "struct SubsidyDaoTypes.StorageProviderWhitelistRequest[]",
          "name": "",
          "type": "tuple[]"
        }
      ],
      "stateMutability": "view",
      "type": "function"
    },
    {
      "inputs": [
        {
          "internalType": "bytes32",
          "name": "role",
          "type": "bytes32"
        },
        {
          "internalType": "address",
          "name": "account",
          "type": "address"
        }
      ],
      "name": "grantRole",
      "outputs": [],
      "stateMutability": "nonpayable",
      "type": "function"
    },
    {
      "inputs": [
        {
          "internalType": "bytes32",
          "name": "role",
          "type": "bytes32"
        },
        {
          "internalType": "address",
          "name": "account",
          "type": "address"
        }
      ],
      "name": "hasRole",
      "outputs": [
        {
          "internalType": "bool",
          "name": "",
          "type": "bool"
        }
      ],
      "stateMutability": "view",
      "type": "function"
    },
    {
      "inputs": [
        {
          "internalType": "bytes32",
          "name": "role",
          "type": "bytes32"
        },
        {
          "internalType": "address",
          "name": "callerConfirmation",
          "type": "address"
        }
      ],
      "name": "renounceRole",
      "outputs": [],
      "stateMutability": "nonpayable",
      "type": "function"
    },
    {
      "inputs": [
        {
          "internalType": "bytes32",
          "name": "role",
          "type": "bytes32"
        },
        {
          "internalType": "address",
          "name": "account",
          "type": "address"
        }
      ],
      "name": "revokeRole",
      "outputs": [],
      "stateMutability": "nonpayable",
      "type": "function"
    },
    {
      "inputs": [
        {
          "internalType": "address",
          "name": "_clientRegistryAddress",
          "type": "address"
        }
      ],
      "name": "setClientRegistry",
      "outputs": [],
      "stateMutability": "nonpayable",
      "type": "function"
    },
    {
      "inputs": [
        {
          "internalType": "address",
          "name": "_storageProviderRegistryAddress",
          "type": "address"
        }
      ],
      "name": "setStorageProviderRegistry",
      "outputs": [],
      "stateMutability": "nonpayable",
      "type": "function"
    },
    {
      "inputs": [],
      "name": "storageProviderWhitelistRequestCount",
      "outputs": [
        {
          "internalType": "uint256",
          "name": "",
          "type": "uint256"
        }
      ],
      "stateMutability": "view",
      "type": "function"
    },
    {
      "inputs": [
        {
          "internalType": "bytes4",
          "name": "interfaceId",
          "type": "bytes4"
        }
      ],
      "name": "supportsInterface",
      "outputs": [
        {
          "internalType": "bool",
          "name": "",
          "type": "bool"
        }
      ],
      "stateMutability": "view",
      "type": "function"
    }
  ],
  "transactionHash": "0x52cd2cb007338eb410c702fdf66886352b7ac4099a40dae90a30774a24c493dd",
  "args": [],
  "numDeployments": 1,
  "solcInputHash": "6954a44a9ca49b7d497aef834cc871f4",
  "bytecode": "0x608060405234801561001057600080fd5b5061001c600033610022565b506100ce565b6000828152602081815260408083206001600160a01b038516845290915281205460ff166100c4576000838152602081815260408083206001600160a01b03861684529091529020805460ff1916600117905561007c3390565b6001600160a01b0316826001600160a01b0316847f2f8788117e7eff1d82e926ec794901d17c78024a50270940304540a733656f0d60405160405180910390a45060016100c8565b5060005b92915050565b6116b6806100dd6000396000f3fe608060405234801561001057600080fd5b50600436106101775760003560e01c806370abb01d116100d8578063a217fddf1161008c578063b871476011610066578063b871476014610312578063d547741f1461031b578063f6be1a651461032e57600080fd5b8063a217fddf146102ee578063b6463f6b146102f6578063b67546211461030957600080fd5b80637f26ebfb116100bd5780637f26ebfb1461029157806391d14854146102a45780639660a4a4146102db57600080fd5b806370abb01d1461026b5780637616ed161461027e57600080fd5b80632f2ff15d1161012f5780634d41a5b9116101145780634d41a5b91461023857806356f802ce146102415780636803bf251461025657600080fd5b80632f2ff15d1461021257806336568abe1461022557600080fd5b8063024a822b11610160578063024a822b146101ba57806302dba130146101cd578063248a9ca3146101e257600080fd5b80630178791c1461017c57806301ffc9a714610191575b600080fd5b61018f61018a3660046110d5565b610341565b005b6101a461019f366004611131565b610436565b6040516101b1919061115c565b60405180910390f35b61018f6101c836600461117b565b6104cf565b6101d56105b5565b6040516101b19190611262565b6102056101f036600461127a565b60009081526020819052604090206001015490565b6040516101b1919061129b565b61018f6102203660046112ce565b6106ab565b61018f6102333660046112ce565b6106d6565b61020560055481565b610249610727565b6040516101b19190611377565b61025e61080a565b6040516101b191906113c6565b61018f61027936600461127a565b6108ed565b61018f61028c3660046113d7565b610a81565b61018f61029f36600461127a565b610abc565b6101a46102b23660046112ce565b6000918252602082815260408084206001600160a01b0393909316845291905290205460ff1690565b61018f6102e93660046110d5565b610c48565b610205600081565b61018f61030436600461127a565b610d2b565b61020560075481565b61020560035481565b61018f6103293660046112ce565b610eb7565b61018f61033c3660046113d7565b610edc565b6002546040517ffc0dd7e10000000000000000000000000000000000000000000000000000000081526001600160a01b039091169063fc0dd7e19061038a9084906004016113f8565b602060405180830381865afa1580156103a7573d6000803e3d6000fd5b505050506040513d601f19601f820116820180604052508101906103cb9190611419565b6103f05760405162461bcd60e51b81526004016103e790611471565b60405180910390fd5b600780546000908152600860205260408120805468ffffffffffffffffff191667ffffffffffffffff851617815582549092909161042d83611497565b91905055505050565b60007fffffffff0000000000000000000000000000000000000000000000000000000082167f7965db0b0000000000000000000000000000000000000000000000000000000014806104c957507f01ffc9a7000000000000000000000000000000000000000000000000000000007fffffffff000000000000000000000000000000000000000000000000000000008316145b92915050565b60015460405163761a691160e11b81526001600160a01b039091169063ec34d222906104ff9085906004016113f8565b602060405180830381865afa15801561051c573d6000803e3d6000fd5b505050506040513d601f19601f820116820180604052508101906105409190611419565b61055c5760405162461bcd60e51b81526004016103e7906114e5565b600580546000908152600660205260408120805467ffffffffffffffff191667ffffffffffffffff86161781556001810184905560028101805460ff191690558254909290916105ab83611497565b9190505550505050565b6060600060055467ffffffffffffffff8111156105d4576105d46114f5565b60405190808252806020026020018201604052801561061f57816020015b60408051606081018252600080825260208083018290529282015282526000199092019101816105f25790505b50905060005b6005548110156106a5576000818152600660209081526040918290208251606081018452815467ffffffffffffffff1681526001820154928101929092526002015460ff1615159181019190915282518390839081106106875761068761150b565b6020026020010181905250808061069d90611497565b915050610625565b50919050565b6000828152602081905260409020600101546106c681610f17565b6106d08383610f24565b50505050565b6001600160a01b0381163314610718576040517f6697b23200000000000000000000000000000000000000000000000000000000815260040160405180910390fd5b6107228282610fce565b505050565b6060600060075467ffffffffffffffff811115610746576107466114f5565b60405190808252806020026020018201604052801561078b57816020015b60408051808201909152600080825260208201528152602001906001900390816107645790505b50905060005b6007548110156106a55760008181526008602090815260409182902082518084019093525467ffffffffffffffff8116835268010000000000000000900460ff1615159082015282518390839081106107ec576107ec61150b565b6020026020010181905250808061080290611497565b915050610791565b6060600060035467ffffffffffffffff811115610829576108296114f5565b60405190808252806020026020018201604052801561086e57816020015b60408051808201909152600080825260208201528152602001906001900390816108475790505b50905060005b6003548110156106a55760008181526004602090815260409182902082518084019093525467ffffffffffffffff8116835268010000000000000000900460ff1615159082015282518390839081106108cf576108cf61150b565b602002602001018190525080806108e590611497565b915050610874565b6001546000828152600660205260409081902054905163761a691160e11b81526001600160a01b039092169163ec34d222916109389167ffffffffffffffff909116906004016113f8565b602060405180830381865afa158015610955573d6000803e3d6000fd5b505050506040513d601f19601f820116820180604052508101906109799190611419565b6109955760405162461bcd60e51b81526004016103e7906114e5565b60008181526006602052604090206002015460ff16156109c75760405162461bcd60e51b81526004016103e790611555565b6001805460008381526006602052604090819020805493015490517fba5872a80000000000000000000000000000000000000000000000000000000081526001600160a01b039092169263ba5872a892610a319267ffffffffffffffff9092169190600401611565565b600060405180830381600087803b158015610a4b57600080fd5b505af1158015610a5f573d6000803e3d6000fd5b505050600091825250600660205260409020600201805460ff19166001179055565b6000610a8c81610f17565b506001805473ffffffffffffffffffffffffffffffffffffffff19166001600160a01b0392909216919091179055565b6002546000828152600860205260409081902054905163761a691160e11b81526001600160a01b039092169163ec34d22291610b079167ffffffffffffffff909116906004016113f8565b602060405180830381865afa158015610b24573d6000803e3d6000fd5b505050506040513d601f19601f82011682018060405250810190610b489190611419565b15610b655760405162461bcd60e51b81526004016103e790611580565b60008181526008602052604090205468010000000000000000900460ff1615610ba05760405162461bcd60e51b81526004016103e790611555565b60025460008281526008602052604090819020549051631a3b12b760e21b81526001600160a01b03909216916368ec4adc91610beb9167ffffffffffffffff909116906004016113f8565b600060405180830381600087803b158015610c0557600080fd5b505af1158015610c19573d6000803e3d6000fd5b505050600091825250600860205260409020805468ff0000000000000000191668010000000000000000179055565b6001546040517f78741aea0000000000000000000000000000000000000000000000000000000081526001600160a01b03909116906378741aea90610c919084906004016113f8565b602060405180830381865afa158015610cae573d6000803e3d6000fd5b505050506040513d601f19601f82011682018060405250810190610cd29190611419565b610cee5760405162461bcd60e51b81526004016103e790611615565b600380546000908152600460205260408120805468ffffffffffffffffff191667ffffffffffffffff851617815582549092909161042d83611497565b60015460008281526004602081905260409182902054915163761a691160e11b81526001600160a01b039093169263ec34d22292610d769267ffffffffffffffff90911691016113f8565b602060405180830381865afa158015610d93573d6000803e3d6000fd5b505050506040513d601f19601f82011682018060405250810190610db79190611419565b15610dd45760405162461bcd60e51b81526004016103e790611659565b60008181526004602052604090205468010000000000000000900460ff1615610e0f5760405162461bcd60e51b81526004016103e790611555565b600154600082815260046020819052604091829020549151631a3b12b760e21b81526001600160a01b03909316926368ec4adc92610e5a9267ffffffffffffffff90911691016113f8565b600060405180830381600087803b158015610e7457600080fd5b505af1158015610e88573d6000803e3d6000fd5b505050600091825250600460205260409020805468ff0000000000000000191668010000000000000000179055565b600082815260208190526040902060010154610ed281610f17565b6106d08383610fce565b6000610ee781610f17565b506002805473ffffffffffffffffffffffffffffffffffffffff19166001600160a01b0392909216919091179055565b610f218133611051565b50565b6000828152602081815260408083206001600160a01b038516845290915281205460ff16610fc6576000838152602081815260408083206001600160a01b03861684529091529020805460ff19166001179055610f7e3390565b6001600160a01b0316826001600160a01b0316847f2f8788117e7eff1d82e926ec794901d17c78024a50270940304540a733656f0d60405160405180910390a45060016104c9565b5060006104c9565b6000828152602081815260408083206001600160a01b038516845290915281205460ff1615610fc6576000838152602081815260408083206001600160a01b0386168085529252808320805460ff1916905551339286917ff6391f5c32d9c69d2a47ea670b442974b53935d1edc7fd64eb21e047a839171b9190a45060016104c9565b6000828152602081815260408083206001600160a01b038516845290915290205460ff166110af5780826040517fe2517d3f0000000000000000000000000000000000000000000000000000000081526004016103e7929190611672565b5050565b67ffffffffffffffff81165b8114610f2157600080fd5b80356104c9816110b3565b6000602082840312156110ea576110ea600080fd5b60006110f684846110ca565b949350505050565b7fffffffff0000000000000000000000000000000000000000000000000000000081166110bf565b80356104c9816110fe565b60006020828403121561114657611146600080fd5b60006110f68484611126565b8015155b82525050565b602081016104c98284611152565b806110bf565b80356104c98161116a565b6000806040838503121561119157611191600080fd5b600061119d85856110ca565b92505060206111ae85828601611170565b9150509250929050565b67ffffffffffffffff8116611156565b80611156565b805160608301906111df84826111b8565b5060208201516111f260208501826111c8565b5060408201516106d06040850182611152565b600061121183836111ce565b505060600190565b6000611223825190565b80845260209384019383018060005b838110156112575781516112468882611205565b975060208301925050600101611232565b509495945050505050565b602080825281016112738184611219565b9392505050565b60006020828403121561128f5761128f600080fd5b60006110f68484611170565b602081016104c982846111c8565b60006001600160a01b0382166104c9565b6110bf816112a9565b80356104c9816112ba565b600080604083850312156112e4576112e4600080fd5b60006112f08585611170565b92505060206111ae858286016112c3565b8051604083019061131284826111b8565b5060208201516106d06020850182611152565b60006113318383611301565b505060400190565b6000611343825190565b80845260209384019383018060005b838110156112575781516113668882611325565b975060208301925050600101611352565b602080825281016112738184611339565b6000611392825190565b80845260209384019383018060005b838110156112575781516113b58882611325565b9750602083019250506001016113a1565b602080825281016112738184611388565b6000602082840312156113ec576113ec600080fd5b60006110f684846112c3565b602081016104c982846111b8565b8015156110bf565b80516104c981611406565b60006020828403121561142e5761142e600080fd5b60006110f6848461140e565b601f81526000602082017f53746f726167652070726f7669646572206e6f74207265676973746572656400815291505b5060200190565b602080825281016104c98161143a565b634e487b7160e01b600052601160045260246000fd5b600060001982036114aa576114aa611481565b5060010190565b601681526000602082017f436c69656e74206e6f742077686974656c6973746564000000000000000000008152915061146a565b602080825281016104c9816114b1565b634e487b7160e01b600052604160045260246000fd5b634e487b7160e01b600052603260045260246000fd5b601881526000602082017f5265717565737420616c726561647920617070726f76656400000000000000008152915061146a565b602080825281016104c981611521565b6040810161157382856111b8565b61127360208301846111c8565b602080825281016104c981602481527f53746f726167652070726f766964657220616c72656164792077686974656c6960208201527f7374656400000000000000000000000000000000000000000000000000000000604082015260600190565b601581526000602082017f436c69656e74206e6f74207265676973746572656400000000000000000000008152915061146a565b602080825281016104c9816115e1565b601a81526000602082017f436c69656e7420616c72656164792077686974656c69737465640000000000008152915061146a565b602080825281016104c981611625565b611156816112a9565b60408101611573828561166956fea26469706673582212204409e7e3c43813590127d51af3295f3cfa4fd85a4874b01029055b997cafbb7764736f6c63430008140033",
  "devdoc": {
    "errors": {
      "AccessControlBadConfirmation()": [
        {
          "details": "The caller of a function is not the expected one. NOTE: Don't confuse with {AccessControlUnauthorizedAccount}."
        }
      ],
      "AccessControlUnauthorizedAccount(address,bytes32)": [
        {
          "details": "The `account` is missing a role."
        }
      ]
    },
    "events": {
      "RoleAdminChanged(bytes32,bytes32,bytes32)": {
        "details": "Emitted when `newAdminRole` is set as ``role``'s admin role, replacing `previousAdminRole` `DEFAULT_ADMIN_ROLE` is the starting admin for all roles, despite {RoleAdminChanged} not being emitted signaling this."
      },
      "RoleGranted(bytes32,address,address)": {
        "details": "Emitted when `account` is granted `role`. `sender` is the account that originated the contract call, an admin role bearer except when using {AccessControl-_setupRole}."
      },
      "RoleRevoked(bytes32,address,address)": {
        "details": "Emitted when `account` is revoked `role`. `sender` is the account that originated the contract call:   - if using `revokeRole`, it is the admin role bearer   - if using `renounceRole`, it is the role bearer (i.e. `account`)"
      }
    },
    "kind": "dev",
    "methods": {
      "getRoleAdmin(bytes32)": {
        "details": "Returns the admin role that controls `role`. See {grantRole} and {revokeRole}. To change a role's admin, use {_setRoleAdmin}."
      },
      "grantRole(bytes32,address)": {
        "details": "Grants `role` to `account`. If `account` had not been already granted `role`, emits a {RoleGranted} event. Requirements: - the caller must have ``role``'s admin role. May emit a {RoleGranted} event."
      },
      "hasRole(bytes32,address)": {
        "details": "Returns `true` if `account` has been granted `role`."
      },
      "renounceRole(bytes32,address)": {
        "details": "Revokes `role` from the calling account. Roles are often managed via {grantRole} and {revokeRole}: this function's purpose is to provide a mechanism for accounts to lose their privileges if they are compromised (such as when a trusted device is misplaced). If the calling account had been revoked `role`, emits a {RoleRevoked} event. Requirements: - the caller must be `callerConfirmation`. May emit a {RoleRevoked} event."
      },
      "revokeRole(bytes32,address)": {
        "details": "Revokes `role` from `account`. If `account` had been granted `role`, emits a {RoleRevoked} event. Requirements: - the caller must have ``role``'s admin role. May emit a {RoleRevoked} event."
      },
      "supportsInterface(bytes4)": {
        "details": "See {IERC165-supportsInterface}."
      }
    },
    "version": 1
  },
  "userdoc": {
    "kind": "user",
    "methods": {},
    "version": 1
  },
  "storageLayout": {
    "storage": [
      {
        "astId": 448,
        "contract": "contracts/SubsidyDao.sol:SubsidyDao",
        "label": "_roles",
        "offset": 0,
        "slot": "0",
        "type": "t_mapping(t_bytes32,t_struct(RoleData)443_storage)"
      },
      {
        "astId": 13085,
        "contract": "contracts/SubsidyDao.sol:SubsidyDao",
        "label": "clientRegistry",
        "offset": 0,
        "slot": "1",
        "type": "t_contract(ClientRegistry)11992"
      },
      {
        "astId": 13088,
        "contract": "contracts/SubsidyDao.sol:SubsidyDao",
        "label": "storageProviderRegistry",
        "offset": 0,
        "slot": "2",
        "type": "t_contract(StorageProviderRegistry)12868"
      },
      {
        "astId": 13090,
        "contract": "contracts/SubsidyDao.sol:SubsidyDao",
        "label": "clientWhitelistRequestCount",
        "offset": 0,
        "slot": "3",
        "type": "t_uint256"
      },
      {
        "astId": 13095,
        "contract": "contracts/SubsidyDao.sol:SubsidyDao",
        "label": "clientWhitelistRequestMap",
        "offset": 0,
        "slot": "4",
        "type": "t_mapping(t_uint256,t_struct(ClientWhitelistRequest)13720_storage)"
      },
      {
        "astId": 13097,
        "contract": "contracts/SubsidyDao.sol:SubsidyDao",
        "label": "clientAllocationRequestCount",
        "offset": 0,
        "slot": "5",
        "type": "t_uint256"
      },
      {
        "astId": 13102,
        "contract": "contracts/SubsidyDao.sol:SubsidyDao",
        "label": "clientAllocationRequestMap",
        "offset": 0,
        "slot": "6",
        "type": "t_mapping(t_uint256,t_struct(ClientAllocationRequest)13742_storage)"
      },
      {
        "astId": 13104,
        "contract": "contracts/SubsidyDao.sol:SubsidyDao",
        "label": "storageProviderWhitelistRequestCount",
        "offset": 0,
        "slot": "7",
        "type": "t_uint256"
      },
      {
        "astId": 13109,
        "contract": "contracts/SubsidyDao.sol:SubsidyDao",
        "label": "storageProviderWhitelistRequestMap",
        "offset": 0,
        "slot": "8",
        "type": "t_mapping(t_uint256,t_struct(StorageProviderWhitelistRequest)13730_storage)"
      }
    ],
    "types": {
      "t_address": {
        "encoding": "inplace",
        "label": "address",
        "numberOfBytes": "20"
      },
      "t_bool": {
        "encoding": "inplace",
        "label": "bool",
        "numberOfBytes": "1"
      },
      "t_bytes32": {
        "encoding": "inplace",
        "label": "bytes32",
        "numberOfBytes": "32"
      },
      "t_contract(ClientRegistry)11992": {
        "encoding": "inplace",
        "label": "contract ClientRegistry",
        "numberOfBytes": "20"
      },
      "t_contract(StorageProviderRegistry)12868": {
        "encoding": "inplace",
        "label": "contract StorageProviderRegistry",
        "numberOfBytes": "20"
      },
      "t_mapping(t_address,t_bool)": {
        "encoding": "mapping",
        "key": "t_address",
        "label": "mapping(address => bool)",
        "numberOfBytes": "32",
        "value": "t_bool"
      },
      "t_mapping(t_bytes32,t_struct(RoleData)443_storage)": {
        "encoding": "mapping",
        "key": "t_bytes32",
        "label": "mapping(bytes32 => struct AccessControl.RoleData)",
        "numberOfBytes": "32",
        "value": "t_struct(RoleData)443_storage"
      },
      "t_mapping(t_uint256,t_struct(ClientAllocationRequest)13742_storage)": {
        "encoding": "mapping",
        "key": "t_uint256",
        "label": "mapping(uint256 => struct SubsidyDaoTypes.ClientAllocationRequest)",
        "numberOfBytes": "32",
        "value": "t_struct(ClientAllocationRequest)13742_storage"
      },
      "t_mapping(t_uint256,t_struct(ClientWhitelistRequest)13720_storage)": {
        "encoding": "mapping",
        "key": "t_uint256",
        "label": "mapping(uint256 => struct SubsidyDaoTypes.ClientWhitelistRequest)",
        "numberOfBytes": "32",
        "value": "t_struct(ClientWhitelistRequest)13720_storage"
      },
      "t_mapping(t_uint256,t_struct(StorageProviderWhitelistRequest)13730_storage)": {
        "encoding": "mapping",
        "key": "t_uint256",
        "label": "mapping(uint256 => struct SubsidyDaoTypes.StorageProviderWhitelistRequest)",
        "numberOfBytes": "32",
        "value": "t_struct(StorageProviderWhitelistRequest)13730_storage"
      },
      "t_struct(ClientAllocationRequest)13742_storage": {
        "encoding": "inplace",
        "label": "struct SubsidyDaoTypes.ClientAllocationRequest",
        "members": [
          {
            "astId": 13737,
            "contract": "contracts/SubsidyDao.sol:SubsidyDao",
            "label": "clientId",
            "offset": 0,
            "slot": "0",
            "type": "t_uint64"
          },
          {
            "astId": 13739,
            "contract": "contracts/SubsidyDao.sol:SubsidyDao",
            "label": "allocation",
            "offset": 0,
            "slot": "1",
            "type": "t_uint256"
          },
          {
            "astId": 13741,
            "contract": "contracts/SubsidyDao.sol:SubsidyDao",
            "label": "approved",
            "offset": 0,
            "slot": "2",
            "type": "t_bool"
          }
        ],
        "numberOfBytes": "96"
      },
      "t_struct(ClientWhitelistRequest)13720_storage": {
        "encoding": "inplace",
        "label": "struct SubsidyDaoTypes.ClientWhitelistRequest",
        "members": [
          {
            "astId": 13717,
            "contract": "contracts/SubsidyDao.sol:SubsidyDao",
            "label": "clientId",
            "offset": 0,
            "slot": "0",
            "type": "t_uint64"
          },
          {
            "astId": 13719,
            "contract": "contracts/SubsidyDao.sol:SubsidyDao",
            "label": "approved",
            "offset": 8,
            "slot": "0",
            "type": "t_bool"
          }
        ],
        "numberOfBytes": "32"
      },
      "t_struct(RoleData)443_storage": {
        "encoding": "inplace",
        "label": "struct AccessControl.RoleData",
        "members": [
          {
            "astId": 440,
            "contract": "contracts/SubsidyDao.sol:SubsidyDao",
            "label": "hasRole",
            "offset": 0,
            "slot": "0",
            "type": "t_mapping(t_address,t_bool)"
          },
          {
            "astId": 442,
            "contract": "contracts/SubsidyDao.sol:SubsidyDao",
            "label": "adminRole",
            "offset": 0,
            "slot": "1",
            "type": "t_bytes32"
          }
        ],
        "numberOfBytes": "64"
      },
      "t_struct(StorageProviderWhitelistRequest)13730_storage": {
        "encoding": "inplace",
        "label": "struct SubsidyDaoTypes.StorageProviderWhitelistRequest",
        "members": [
          {
            "astId": 13727,
            "contract": "contracts/SubsidyDao.sol:SubsidyDao",
            "label": "storageProviderId",
            "offset": 0,
            "slot": "0",
            "type": "t_uint64"
          },
          {
            "astId": 13729,
            "contract": "contracts/SubsidyDao.sol:SubsidyDao",
            "label": "approved",
            "offset": 8,
            "slot": "0",
            "type": "t_bool"
          }
        ],
        "numberOfBytes": "32"
      },
      "t_uint256": {
        "encoding": "inplace",
        "label": "uint256",
        "numberOfBytes": "32"
      },
      "t_uint64": {
        "encoding": "inplace",
        "label": "uint64",
        "numberOfBytes": "8"
      }
    }
  }
}