{
  "address": "0xE5850d3d4e266220805a38439c270bF20A8E5Fa7",
  "abi": [
    {
      "inputs": [],
      "stateMutability": "nonpayable",
      "type": "constructor"
    },
    {
      "inputs": [],
      "name": "AccessControlBadConfirmation",
      "type": "error"
    },
    {
      "inputs": [
        {
          "internalType": "address",
          "name": "account",
          "type": "address"
        },
        {
          "internalType": "bytes32",
          "name": "neededRole",
          "type": "bytes32"
        }
      ],
      "name": "AccessControlUnauthorizedAccount",
      "type": "error"
    },
    {
      "anonymous": false,
      "inputs": [
        {
          "indexed": true,
          "internalType": "bytes32",
          "name": "role",
          "type": "bytes32"
        },
        {
          "indexed": true,
          "internalType": "bytes32",
          "name": "previousAdminRole",
          "type": "bytes32"
        },
        {
          "indexed": true,
          "internalType": "bytes32",
          "name": "newAdminRole",
          "type": "bytes32"
        }
      ],
      "name": "RoleAdminChanged",
      "type": "event"
    },
    {
      "anonymous": false,
      "inputs": [
        {
          "indexed": true,
          "internalType": "bytes32",
          "name": "role",
          "type": "bytes32"
        },
        {
          "indexed": true,
          "internalType": "address",
          "name": "account",
          "type": "address"
        },
        {
          "indexed": true,
          "internalType": "address",
          "name": "sender",
          "type": "address"
        }
      ],
      "name": "RoleGranted",
      "type": "event"
    },
    {
      "anonymous": false,
      "inputs": [
        {
          "indexed": true,
          "internalType": "bytes32",
          "name": "role",
          "type": "bytes32"
        },
        {
          "indexed": true,
          "internalType": "address",
          "name": "account",
          "type": "address"
        },
        {
          "indexed": true,
          "internalType": "address",
          "name": "sender",
          "type": "address"
        }
      ],
      "name": "RoleRevoked",
      "type": "event"
    },
    {
      "inputs": [],
      "name": "DEFAULT_ADMIN_ROLE",
      "outputs": [
        {
          "internalType": "bytes32",
          "name": "",
          "type": "bytes32"
        }
      ],
      "stateMutability": "view",
      "type": "function"
    },
    {
      "inputs": [
        {
          "internalType": "uint256",
          "name": "_requestIndex",
          "type": "uint256"
        }
      ],
      "name": "approveClientAllocationRequest",
      "outputs": [],
      "stateMutability": "nonpayable",
      "type": "function"
    },
    {
      "inputs": [
        {
          "internalType": "uint256",
          "name": "_requestIndex",
          "type": "uint256"
        }
      ],
      "name": "approveClientWhitelistRequest",
      "outputs": [],
      "stateMutability": "nonpayable",
      "type": "function"
    },
    {
      "inputs": [
        {
          "internalType": "uint256",
          "name": "_requestIndex",
          "type": "uint256"
        }
      ],
      "name": "approveStorageProviderWhitelistRequest",
      "outputs": [],
      "stateMutability": "nonpayable",
      "type": "function"
    },
    {
      "inputs": [],
      "name": "clientAllocationRequestCount",
      "outputs": [
        {
          "internalType": "uint256",
          "name": "",
          "type": "uint256"
        }
      ],
      "stateMutability": "view",
      "type": "function"
    },
    {
      "inputs": [],
      "name": "clientWhitelistRequestCount",
      "outputs": [
        {
          "internalType": "uint256",
          "name": "",
          "type": "uint256"
        }
      ],
      "stateMutability": "view",
      "type": "function"
    },
    {
      "inputs": [
        {
          "internalType": "uint64",
          "name": "_clientId",
          "type": "uint64"
        },
        {
          "internalType": "uint256",
          "name": "_allocation",
          "type": "uint256"
        }
      ],
      "name": "createClientAllocationRequest",
      "outputs": [],
      "stateMutability": "nonpayable",
      "type": "function"
    },
    {
      "inputs": [
        {
          "internalType": "address",
          "name": "_clientAddress",
          "type": "address"
        },
        {
          "internalType": "uint256",
          "name": "_allocation",
          "type": "uint256"
        }
      ],
      "name": "createClientAllocationRequestByAddress",
      "outputs": [],
      "stateMutability": "nonpayable",
      "type": "function"
    },
    {
      "inputs": [
        {
          "internalType": "uint64",
          "name": "_clientId",
          "type": "uint64"
        },
        {
          "internalType": "address",
          "name": "ethAddress",
          "type": "address"
        }
      ],
      "name": "createClientWhitelistRequest",
      "outputs": [],
      "stateMutability": "nonpayable",
      "type": "function"
    },
    {
      "inputs": [
        {
          "internalType": "uint64",
          "name": "_storageProviderId",
          "type": "uint64"
        }
      ],
      "name": "createStorageProviderWhitelistRequest",
      "outputs": [],
      "stateMutability": "nonpayable",
      "type": "function"
    },
    {
      "inputs": [
        {
          "internalType": "address",
          "name": "ethAddress",
          "type": "address"
        }
      ],
      "name": "doesClientHaveAllocationRequest",
      "outputs": [
        {
          "internalType": "bool",
          "name": "",
          "type": "bool"
        }
      ],
      "stateMutability": "view",
      "type": "function"
    },
    {
      "inputs": [
        {
          "internalType": "uint64",
          "name": "_clientId",
          "type": "uint64"
        }
      ],
      "name": "getClientAllocationRequestForClient",
      "outputs": [
        {
          "components": [
            {
              "internalType": "uint64",
              "name": "clientId",
              "type": "uint64"
            },
            {
              "internalType": "address",
              "name": "ethAddress",
              "type": "address"
            },
            {
              "internalType": "uint256",
              "name": "allocation",
              "type": "uint256"
            },
            {
              "internalType": "bool",
              "name": "approved",
              "type": "bool"
            }
          ],
          "internalType": "struct SubsidyDaoTypes.ClientAllocationRequest",
          "name": "",
          "type": "tuple"
        }
      ],
      "stateMutability": "view",
      "type": "function"
    },
    {
      "inputs": [],
      "name": "getClientAllocationRequests",
      "outputs": [
        {
          "components": [
            {
              "internalType": "uint64",
              "name": "clientId",
              "type": "uint64"
            },
            {
              "internalType": "address",
              "name": "ethAddress",
              "type": "address"
            },
            {
              "internalType": "uint256",
              "name": "allocation",
              "type": "uint256"
            },
            {
              "internalType": "bool",
              "name": "approved",
              "type": "bool"
            }
          ],
          "internalType": "struct SubsidyDaoTypes.ClientAllocationRequest[]",
          "name": "",
          "type": "tuple[]"
        }
      ],
      "stateMutability": "view",
      "type": "function"
    },
    {
      "inputs": [],
      "name": "getClientWhitelistRequests",
      "outputs": [
        {
          "components": [
            {
              "internalType": "uint64",
              "name": "clientId",
              "type": "uint64"
            },
            {
              "internalType": "bool",
              "name": "approved",
              "type": "bool"
            },
            {
              "internalType": "address",
              "name": "ethAddress",
              "type": "address"
            }
          ],
          "internalType": "struct SubsidyDaoTypes.ClientWhitelistRequest[]",
          "name": "",
          "type": "tuple[]"
        }
      ],
      "stateMutability": "view",
      "type": "function"
    },
    {
      "inputs": [
        {
          "internalType": "bytes32",
          "name": "role",
          "type": "bytes32"
        }
      ],
      "name": "getRoleAdmin",
      "outputs": [
        {
          "internalType": "bytes32",
          "name": "",
          "type": "bytes32"
        }
      ],
      "stateMutability": "view",
      "type": "function"
    },
    {
      "inputs": [],
      "name": "getStorageProviderWhitelistRequests",
      "outputs": [
        {
          "components": [
            {
              "internalType": "uint64",
              "name": "storageProviderId",
              "type": "uint64"
            },
            {
              "internalType": "bool",
              "name": "approved",
              "type": "bool"
            },
            {
              "internalType": "address",
              "name": "ethAddress",
              "type": "address"
            }
          ],
          "internalType": "struct SubsidyDaoTypes.StorageProviderWhitelistRequest[]",
          "name": "",
          "type": "tuple[]"
        }
      ],
      "stateMutability": "view",
      "type": "function"
    },
    {
      "inputs": [
        {
          "internalType": "bytes32",
          "name": "role",
          "type": "bytes32"
        },
        {
          "internalType": "address",
          "name": "account",
          "type": "address"
        }
      ],
      "name": "grantRole",
      "outputs": [],
      "stateMutability": "nonpayable",
      "type": "function"
    },
    {
      "inputs": [
        {
          "internalType": "bytes32",
          "name": "role",
          "type": "bytes32"
        },
        {
          "internalType": "address",
          "name": "account",
          "type": "address"
        }
      ],
      "name": "hasRole",
      "outputs": [
        {
          "internalType": "bool",
          "name": "",
          "type": "bool"
        }
      ],
      "stateMutability": "view",
      "type": "function"
    },
    {
      "inputs": [
        {
          "internalType": "bytes32",
          "name": "role",
          "type": "bytes32"
        },
        {
          "internalType": "address",
          "name": "callerConfirmation",
          "type": "address"
        }
      ],
      "name": "renounceRole",
      "outputs": [],
      "stateMutability": "nonpayable",
      "type": "function"
    },
    {
      "inputs": [
        {
          "internalType": "bytes32",
          "name": "role",
          "type": "bytes32"
        },
        {
          "internalType": "address",
          "name": "account",
          "type": "address"
        }
      ],
      "name": "revokeRole",
      "outputs": [],
      "stateMutability": "nonpayable",
      "type": "function"
    },
    {
      "inputs": [
        {
          "internalType": "address",
          "name": "_clientRegistryAddress",
          "type": "address"
        }
      ],
      "name": "setClientRegistry",
      "outputs": [],
      "stateMutability": "nonpayable",
      "type": "function"
    },
    {
      "inputs": [
        {
          "internalType": "address",
          "name": "_storageProviderRegistryAddress",
          "type": "address"
        }
      ],
      "name": "setStorageProviderRegistry",
      "outputs": [],
      "stateMutability": "nonpayable",
      "type": "function"
    },
    {
      "inputs": [],
      "name": "storageProviderWhitelistRequestCount",
      "outputs": [
        {
          "internalType": "uint256",
          "name": "",
          "type": "uint256"
        }
      ],
      "stateMutability": "view",
      "type": "function"
    },
    {
      "inputs": [
        {
          "internalType": "bytes4",
          "name": "interfaceId",
          "type": "bytes4"
        }
      ],
      "name": "supportsInterface",
      "outputs": [
        {
          "internalType": "bool",
          "name": "",
          "type": "bool"
        }
      ],
      "stateMutability": "view",
      "type": "function"
    }
  ],
  "transactionHash": "0x30598132565fb929e1c8adb3f36fb4d81d2f5555a4ca7a2eb46206308545808f",
  "args": [],
  "numDeployments": 6,
  "solcInputHash": "b67c91edfe2795f7d518198501f8ed1c",
  "bytecode": "0x608060405234801561001057600080fd5b5061001c600033610022565b506100ce565b6000828152602081815260408083206001600160a01b038516845290915281205460ff166100c4576000838152602081815260408083206001600160a01b03861684529091529020805460ff1916600117905561007c3390565b6001600160a01b0316826001600160a01b0316847f2f8788117e7eff1d82e926ec794901d17c78024a50270940304540a733656f0d60405160405180910390a45060016100c8565b5060005b92915050565b611b52806100dd6000396000f3fe608060405234801561001057600080fd5b50600436106101985760003560e01c80637616ed16116100e3578063b67546211161008c578063d547741f11610066578063d547741f1461036f578063f636b30214610382578063f6be1a651461039557600080fd5b8063b67546211461033d578063b871476014610346578063c548e3c11461034f57600080fd5b8063a217fddf116100bd578063a217fddf1461030f578063b5cb56ac14610317578063b6463f6b1461032a57600080fd5b80637616ed16146102b25780637f26ebfb146102c557806391d14854146102d857600080fd5b806336568abe1161014557806356f802ce1161011f57806356f802ce146102755780636803bf251461028a57806370abb01d1461029f57600080fd5b806336568abe14610246578063498d54da146102595780634d41a5b91461026c57600080fd5b806302dba1301161017657806302dba130146101ee578063248a9ca3146102035780632f2ff15d1461023357600080fd5b80630178791c1461019d57806301ffc9a7146101b2578063024a822b146101db575b600080fd5b6101b06101ab3660046114bd565b6103a8565b005b6101c56101c0366004611501565b6104a1565b6040516101d2919061152c565b60405180910390f35b6101b06101e936600461154b565b61050a565b6101f66106a5565b6040516101d2919061165f565b610226610211366004611677565b60009081526020819052604090206001015490565b6040516101d29190611698565b6101b06102413660046116ba565b6107ba565b6101b06102543660046116ba565b6107e5565b6101b06102673660046116ed565b610836565b61022660055481565b61027d6108a2565b6040516101d29190611798565b6102926109a8565b6040516101d291906117e7565b6101b06102ad366004611677565b610aae565b6101b06102c03660046117f8565b610c42565b6101b06102d3366004611677565b610c7d565b6101c56102e63660046116ba565b6000918252602082815260408084206001600160a01b0393909316845291905290205460ff1690565b610226600081565b6101b0610325366004611819565b610dff565b6101b0610338366004611677565b610f7a565b61022660075481565b61022660035481565b61036261035d3660046114bd565b6110fc565b6040516101d2919061183b565b6101b061037d3660046116ba565b6111da565b6101c56103903660046117f8565b6111ff565b6101b06103a33660046117f8565b6112c4565b60075460009081526008602052604090819020805468ffffffffffffffffff191667ffffffffffffffff841617815560025491516325dcaf9760e01b815290916001600160a01b0316906325dcaf9790610406908590600401611849565b602060405180830381865afa158015610423573d6000803e3d6000fd5b505050506040513d601f19601f820116820180604052508101906104479190611862565b81546001600160a01b03919091166901000000000000000000027fffffff0000000000000000000000000000000000000000ffffffffffffffffff9091161781556007805490600061049883611899565b91905055505050565b60006001600160e01b031982167f7965db0b00000000000000000000000000000000000000000000000000000000148061050457507f01ffc9a7000000000000000000000000000000000000000000000000000000006001600160e01b03198316145b92915050565b60015460405163761a691160e11b81526001600160a01b039091169063ec34d2229061053a908590600401611849565b602060405180830381865afa158015610557573d6000803e3d6000fd5b505050506040513d601f19601f8201168201806040525081019061057b91906118c6565b6105a05760405162461bcd60e51b81526004016105979061191e565b60405180910390fd5b60055460009081526006602052604090819020805467ffffffffffffffff191667ffffffffffffffff8516178155600180820184905560028201805460ff191690555491516325dcaf9760e01b815290916001600160a01b0316906325dcaf979061060f908690600401611849565b602060405180830381865afa15801561062c573d6000803e3d6000fd5b505050506040513d601f19601f820116820180604052508101906106509190611862565b81546001600160a01b0391909116600160401b027fffffffff0000000000000000000000000000000000000000ffffffffffffffff9091161781556005805490600061069b83611899565b9190505550505050565b6060600060055467ffffffffffffffff8111156106c4576106c461192e565b60405190808252806020026020018201604052801561071657816020015b6040805160808101825260008082526020808301829052928201819052606082015282526000199092019101816106e25790505b50905060005b6005548110156107b4576000818152600660209081526040918290208251608081018452815467ffffffffffffffff81168252600160401b90046001600160a01b03169281019290925260018101549282019290925260029091015460ff1615156060820152825183908390811061079657610796611944565b602002602001018190525080806107ac90611899565b91505061071c565b50919050565b6000828152602081905260409020600101546107d5816112ff565b6107df838361130c565b50505050565b6001600160a01b0381163314610827576040517f6697b23200000000000000000000000000000000000000000000000000000000815260040160405180910390fd5b61083182826113b6565b505050565b60038054600090815260046020526040812080546001600160a01b0385166901000000000000000000027fffffff000000000000000000000000000000000000000000000000000000000090911667ffffffffffffffff87161717815582549092909161069b83611899565b6060600060075467ffffffffffffffff8111156108c1576108c161192e565b60405190808252806020026020018201604052801561090c57816020015b60408051606081018252600080825260208083018290529282015282526000199092019101816108df5790505b50905060005b6007548110156107b4576000818152600860209081526040918290208251606081018452905467ffffffffffffffff81168252600160401b810460ff1615159282019290925269010000000000000000009091046001600160a01b031691810191909152825183908390811061098a5761098a611944565b602002602001018190525080806109a090611899565b915050610912565b6060600060035467ffffffffffffffff8111156109c7576109c761192e565b604051908082528060200260200182016040528015610a1257816020015b60408051606081018252600080825260208083018290529282015282526000199092019101816109e55790505b50905060005b6003548110156107b4576000818152600460209081526040918290208251606081018452905467ffffffffffffffff81168252600160401b810460ff1615159282019290925269010000000000000000009091046001600160a01b0316918101919091528251839083908110610a9057610a90611944565b60200260200101819052508080610aa690611899565b915050610a18565b6001546000828152600660205260409081902054905163761a691160e11b81526001600160a01b039092169163ec34d22291610af99167ffffffffffffffff90911690600401611849565b602060405180830381865afa158015610b16573d6000803e3d6000fd5b505050506040513d601f19601f82011682018060405250810190610b3a91906118c6565b610b565760405162461bcd60e51b81526004016105979061191e565b60008181526006602052604090206002015460ff1615610b885760405162461bcd60e51b81526004016105979061198e565b6001805460008381526006602052604090819020805493015490517fba5872a80000000000000000000000000000000000000000000000000000000081526001600160a01b039092169263ba5872a892610bf29267ffffffffffffffff909216919060040161199e565b600060405180830381600087803b158015610c0c57600080fd5b505af1158015610c20573d6000803e3d6000fd5b505050600091825250600660205260409020600201805460ff19166001179055565b6000610c4d816112ff565b506001805473ffffffffffffffffffffffffffffffffffffffff19166001600160a01b0392909216919091179055565b6002546000828152600860205260409081902054905163761a691160e11b81526001600160a01b039092169163ec34d22291610cc89167ffffffffffffffff90911690600401611849565b602060405180830381865afa158015610ce5573d6000803e3d6000fd5b505050506040513d601f19601f82011682018060405250810190610d0991906118c6565b15610d265760405162461bcd60e51b815260040161059790611a16565b600081815260086020526040902054600160401b900460ff1615610d5c5760405162461bcd60e51b81526004016105979061198e565b60025460008281526008602052604090819020549051631a3b12b760e21b81526001600160a01b03909216916368ec4adc91610da79167ffffffffffffffff90911690600401611849565b600060405180830381600087803b158015610dc157600080fd5b505af1158015610dd5573d6000803e3d6000fd5b505050600091825250600860205260409020805468ff00000000000000001916600160401b179055565b6001546040517f13f44d100000000000000000000000000000000000000000000000000000000081526001600160a01b03909116906313f44d1090610e48908590600401611a26565b602060405180830381865afa158015610e65573d6000803e3d6000fd5b505050506040513d601f19601f82011682018060405250810190610e8991906118c6565b610ea55760405162461bcd60e51b81526004016105979061191e565b6005546000908152600660205260409081902060015491516318ab87a560e21b815290916001600160a01b0316906362ae1e9490610ee7908690600401611a26565b602060405180830381865afa158015610f04573d6000803e3d6000fd5b505050506040513d601f19601f82011682018060405250810190610f289190611a3f565b81546001830184905560028301805460ff1916905567ffffffffffffffff919091166001600160e01b031990911617600160401b6001600160a01b038516021781556005805490600061069b83611899565b60015460008281526004602081905260409182902054915163761a691160e11b81526001600160a01b039093169263ec34d22292610fc59267ffffffffffffffff9091169101611849565b602060405180830381865afa158015610fe2573d6000803e3d6000fd5b505050506040513d601f19601f8201168201806040525081019061100691906118c6565b156110235760405162461bcd60e51b815260040161059790611a94565b600081815260046020526040902054600160401b900460ff16156110595760405162461bcd60e51b81526004016105979061198e565b600154600082815260046020819052604091829020549151631a3b12b760e21b81526001600160a01b03909316926368ec4adc926110a49267ffffffffffffffff9091169101611849565b600060405180830381600087803b1580156110be57600080fd5b505af11580156110d2573d6000803e3d6000fd5b505050600091825250600460205260409020805468ff00000000000000001916600160401b179055565b6040805160808101825260008082526020820181905291810182905260608101829052905b6005548110156111c15760008181526006602052604090205467ffffffffffffffff8085169116036111af576000908152600660209081526040918290208251608081018452815467ffffffffffffffff81168252600160401b90046001600160a01b03169281019290925260018101549282019290925260029091015460ff161515606082015292915050565b806111b981611899565b915050611121565b5060405162461bcd60e51b815260040161059790611afe565b6000828152602081905260409020600101546111f5816112ff565b6107df83836113b6565b6000805b6005548110156112bb576001546040516318ab87a560e21b81526001600160a01b03909116906362ae1e949061123d908690600401611a26565b602060405180830381865afa15801561125a573d6000803e3d6000fd5b505050506040513d601f19601f8201168201806040525081019061127e9190611a3f565b60008281526006602052604090205467ffffffffffffffff9182169116036112a95750600192915050565b806112b381611899565b915050611203565b50600092915050565b60006112cf816112ff565b506002805473ffffffffffffffffffffffffffffffffffffffff19166001600160a01b0392909216919091179055565b6113098133611439565b50565b6000828152602081815260408083206001600160a01b038516845290915281205460ff166113ae576000838152602081815260408083206001600160a01b03861684529091529020805460ff191660011790556113663390565b6001600160a01b0316826001600160a01b0316847f2f8788117e7eff1d82e926ec794901d17c78024a50270940304540a733656f0d60405160405180910390a4506001610504565b506000610504565b6000828152602081815260408083206001600160a01b038516845290915281205460ff16156113ae576000838152602081815260408083206001600160a01b0386168085529252808320805460ff1916905551339286917ff6391f5c32d9c69d2a47ea670b442974b53935d1edc7fd64eb21e047a839171b9190a4506001610504565b6000828152602081815260408083206001600160a01b038516845290915290205460ff166114975780826040517fe2517d3f000000000000000000000000000000000000000000000000000000008152600401610597929190611b0e565b5050565b67ffffffffffffffff81165b811461130957600080fd5b80356105048161149b565b6000602082840312156114d2576114d2600080fd5b60006114de84846114b2565b949350505050565b6001600160e01b031981166114a7565b8035610504816114e6565b60006020828403121561151657611516600080fd5b60006114de84846114f6565b8015155b82525050565b602081016105048284611522565b806114a7565b80356105048161153a565b6000806040838503121561156157611561600080fd5b600061156d85856114b2565b925050602061157e85828601611540565b9150509250929050565b67ffffffffffffffff8116611526565b60006001600160a01b038216610504565b61152681611598565b80611526565b805160808301906115c98482611588565b5060208201516115dc60208501826115a9565b5060408201516115ef60408501826115b2565b5060608201516107df6060850182611522565b600061160e83836115b8565b505060800190565b6000611620825190565b80845260209384019383018060005b838110156116545781516116438882611602565b97506020830192505060010161162f565b509495945050505050565b602080825281016116708184611616565b9392505050565b60006020828403121561168c5761168c600080fd5b60006114de8484611540565b6020810161050482846115b2565b6114a781611598565b8035610504816116a6565b600080604083850312156116d0576116d0600080fd5b60006116dc8585611540565b925050602061157e858286016116af565b6000806040838503121561170357611703600080fd5b60006116dc85856114b2565b805160608301906117208482611588565b5060208201516117336020850182611522565b5060408201516107df60408501826115a9565b6000611752838361170f565b505060600190565b6000611764825190565b80845260209384019383018060005b838110156116545781516117878882611746565b975060208301925050600101611773565b60208082528101611670818461175a565b60006117b3825190565b80845260209384019383018060005b838110156116545781516117d68882611746565b9750602083019250506001016117c2565b6020808252810161167081846117a9565b60006020828403121561180d5761180d600080fd5b60006114de84846116af565b6000806040838503121561182f5761182f600080fd5b600061156d85856116af565b6080810161050482846115b8565b602081016105048284611588565b8051610504816116a6565b60006020828403121561187757611877600080fd5b60006114de8484611857565b634e487b7160e01b600052601160045260246000fd5b600060001982036118ac576118ac611883565b5060010190565b8015156114a7565b8051610504816118b3565b6000602082840312156118db576118db600080fd5b60006114de84846118bb565b601681526000602082017f436c69656e74206e6f742077686974656c697374656400000000000000000000815291505b5060200190565b60208082528101610504816118e7565b634e487b7160e01b600052604160045260246000fd5b634e487b7160e01b600052603260045260246000fd5b601881526000602082017f5265717565737420616c726561647920617070726f766564000000000000000081529150611917565b602080825281016105048161195a565b604081016119ac8285611588565b61167060208301846115b2565b602481526000602082017f53746f726167652070726f766964657220616c72656164792077686974656c6981527f7374656400000000000000000000000000000000000000000000000000000000602082015291505b5060400190565b60208082528101610504816119b9565b6020810161050482846115a9565b80516105048161149b565b600060208284031215611a5457611a54600080fd5b60006114de8484611a34565b601a81526000602082017f436c69656e7420616c72656164792077686974656c697374656400000000000081529150611917565b6020808252810161050481611a60565b602681526000602082017f4e6f20616c6c6f636174696f6e207265717565737420666f756e6420666f722081527f636c69656e74000000000000000000000000000000000000000000000000000060208201529150611a0f565b6020808252810161050481611aa4565b604081016119ac82856115a956fea26469706673582212202195e8bfdbe82646e3d0af1554c61fd51436ba83bcdcf49fa5890806aa25fb4e64736f6c63430008140033",
  "devdoc": {
    "errors": {
      "AccessControlBadConfirmation()": [
        {
          "details": "The caller of a function is not the expected one. NOTE: Don't confuse with {AccessControlUnauthorizedAccount}."
        }
      ],
      "AccessControlUnauthorizedAccount(address,bytes32)": [
        {
          "details": "The `account` is missing a role."
        }
      ]
    },
    "events": {
      "RoleAdminChanged(bytes32,bytes32,bytes32)": {
        "details": "Emitted when `newAdminRole` is set as ``role``'s admin role, replacing `previousAdminRole` `DEFAULT_ADMIN_ROLE` is the starting admin for all roles, despite {RoleAdminChanged} not being emitted signaling this."
      },
      "RoleGranted(bytes32,address,address)": {
        "details": "Emitted when `account` is granted `role`. `sender` is the account that originated the contract call, an admin role bearer except when using {AccessControl-_setupRole}."
      },
      "RoleRevoked(bytes32,address,address)": {
        "details": "Emitted when `account` is revoked `role`. `sender` is the account that originated the contract call:   - if using `revokeRole`, it is the admin role bearer   - if using `renounceRole`, it is the role bearer (i.e. `account`)"
      }
    },
    "kind": "dev",
    "methods": {
      "getRoleAdmin(bytes32)": {
        "details": "Returns the admin role that controls `role`. See {grantRole} and {revokeRole}. To change a role's admin, use {_setRoleAdmin}."
      },
      "grantRole(bytes32,address)": {
        "details": "Grants `role` to `account`. If `account` had not been already granted `role`, emits a {RoleGranted} event. Requirements: - the caller must have ``role``'s admin role. May emit a {RoleGranted} event."
      },
      "hasRole(bytes32,address)": {
        "details": "Returns `true` if `account` has been granted `role`."
      },
      "renounceRole(bytes32,address)": {
        "details": "Revokes `role` from the calling account. Roles are often managed via {grantRole} and {revokeRole}: this function's purpose is to provide a mechanism for accounts to lose their privileges if they are compromised (such as when a trusted device is misplaced). If the calling account had been revoked `role`, emits a {RoleRevoked} event. Requirements: - the caller must be `callerConfirmation`. May emit a {RoleRevoked} event."
      },
      "revokeRole(bytes32,address)": {
        "details": "Revokes `role` from `account`. If `account` had been granted `role`, emits a {RoleRevoked} event. Requirements: - the caller must have ``role``'s admin role. May emit a {RoleRevoked} event."
      },
      "supportsInterface(bytes4)": {
        "details": "See {IERC165-supportsInterface}."
      }
    },
    "version": 1
  },
  "userdoc": {
    "kind": "user",
    "methods": {},
    "version": 1
  },
  "storageLayout": {
    "storage": [
      {
        "astId": 448,
        "contract": "contracts/SubsidyDao.sol:SubsidyDao",
        "label": "_roles",
        "offset": 0,
        "slot": "0",
        "type": "t_mapping(t_bytes32,t_struct(RoleData)443_storage)"
      },
      {
        "astId": 13222,
        "contract": "contracts/SubsidyDao.sol:SubsidyDao",
        "label": "clientRegistry",
        "offset": 0,
        "slot": "1",
        "type": "t_contract(ClientRegistry)12089"
      },
      {
        "astId": 13225,
        "contract": "contracts/SubsidyDao.sol:SubsidyDao",
        "label": "storageProviderRegistry",
        "offset": 0,
        "slot": "2",
        "type": "t_contract(StorageProviderRegistry)13005"
      },
      {
        "astId": 13227,
        "contract": "contracts/SubsidyDao.sol:SubsidyDao",
        "label": "clientWhitelistRequestCount",
        "offset": 0,
        "slot": "3",
        "type": "t_uint256"
      },
      {
        "astId": 13232,
        "contract": "contracts/SubsidyDao.sol:SubsidyDao",
        "label": "clientWhitelistRequestMap",
        "offset": 0,
        "slot": "4",
        "type": "t_mapping(t_uint256,t_struct(ClientWhitelistRequest)13996_storage)"
      },
      {
        "astId": 13234,
        "contract": "contracts/SubsidyDao.sol:SubsidyDao",
        "label": "clientAllocationRequestCount",
        "offset": 0,
        "slot": "5",
        "type": "t_uint256"
      },
      {
        "astId": 13239,
        "contract": "contracts/SubsidyDao.sol:SubsidyDao",
        "label": "clientAllocationRequestMap",
        "offset": 0,
        "slot": "6",
        "type": "t_mapping(t_uint256,t_struct(ClientAllocationRequest)14022_storage)"
      },
      {
        "astId": 13241,
        "contract": "contracts/SubsidyDao.sol:SubsidyDao",
        "label": "storageProviderWhitelistRequestCount",
        "offset": 0,
        "slot": "7",
        "type": "t_uint256"
      },
      {
        "astId": 13246,
        "contract": "contracts/SubsidyDao.sol:SubsidyDao",
        "label": "storageProviderWhitelistRequestMap",
        "offset": 0,
        "slot": "8",
        "type": "t_mapping(t_uint256,t_struct(StorageProviderWhitelistRequest)14008_storage)"
      }
    ],
    "types": {
      "t_address": {
        "encoding": "inplace",
        "label": "address",
        "numberOfBytes": "20"
      },
      "t_bool": {
        "encoding": "inplace",
        "label": "bool",
        "numberOfBytes": "1"
      },
      "t_bytes32": {
        "encoding": "inplace",
        "label": "bytes32",
        "numberOfBytes": "32"
      },
      "t_contract(ClientRegistry)12089": {
        "encoding": "inplace",
        "label": "contract ClientRegistry",
        "numberOfBytes": "20"
      },
      "t_contract(StorageProviderRegistry)13005": {
        "encoding": "inplace",
        "label": "contract StorageProviderRegistry",
        "numberOfBytes": "20"
      },
      "t_mapping(t_address,t_bool)": {
        "encoding": "mapping",
        "key": "t_address",
        "label": "mapping(address => bool)",
        "numberOfBytes": "32",
        "value": "t_bool"
      },
      "t_mapping(t_bytes32,t_struct(RoleData)443_storage)": {
        "encoding": "mapping",
        "key": "t_bytes32",
        "label": "mapping(bytes32 => struct AccessControl.RoleData)",
        "numberOfBytes": "32",
        "value": "t_struct(RoleData)443_storage"
      },
      "t_mapping(t_uint256,t_struct(ClientAllocationRequest)14022_storage)": {
        "encoding": "mapping",
        "key": "t_uint256",
        "label": "mapping(uint256 => struct SubsidyDaoTypes.ClientAllocationRequest)",
        "numberOfBytes": "32",
        "value": "t_struct(ClientAllocationRequest)14022_storage"
      },
      "t_mapping(t_uint256,t_struct(ClientWhitelistRequest)13996_storage)": {
        "encoding": "mapping",
        "key": "t_uint256",
        "label": "mapping(uint256 => struct SubsidyDaoTypes.ClientWhitelistRequest)",
        "numberOfBytes": "32",
        "value": "t_struct(ClientWhitelistRequest)13996_storage"
      },
      "t_mapping(t_uint256,t_struct(StorageProviderWhitelistRequest)14008_storage)": {
        "encoding": "mapping",
        "key": "t_uint256",
        "label": "mapping(uint256 => struct SubsidyDaoTypes.StorageProviderWhitelistRequest)",
        "numberOfBytes": "32",
        "value": "t_struct(StorageProviderWhitelistRequest)14008_storage"
      },
      "t_struct(ClientAllocationRequest)14022_storage": {
        "encoding": "inplace",
        "label": "struct SubsidyDaoTypes.ClientAllocationRequest",
        "members": [
          {
            "astId": 14015,
            "contract": "contracts/SubsidyDao.sol:SubsidyDao",
            "label": "clientId",
            "offset": 0,
            "slot": "0",
            "type": "t_uint64"
          },
          {
            "astId": 14017,
            "contract": "contracts/SubsidyDao.sol:SubsidyDao",
            "label": "ethAddress",
            "offset": 8,
            "slot": "0",
            "type": "t_address"
          },
          {
            "astId": 14019,
            "contract": "contracts/SubsidyDao.sol:SubsidyDao",
            "label": "allocation",
            "offset": 0,
            "slot": "1",
            "type": "t_uint256"
          },
          {
            "astId": 14021,
            "contract": "contracts/SubsidyDao.sol:SubsidyDao",
            "label": "approved",
            "offset": 0,
            "slot": "2",
            "type": "t_bool"
          }
        ],
        "numberOfBytes": "96"
      },
      "t_struct(ClientWhitelistRequest)13996_storage": {
        "encoding": "inplace",
        "label": "struct SubsidyDaoTypes.ClientWhitelistRequest",
        "members": [
          {
            "astId": 13991,
            "contract": "contracts/SubsidyDao.sol:SubsidyDao",
            "label": "clientId",
            "offset": 0,
            "slot": "0",
            "type": "t_uint64"
          },
          {
            "astId": 13993,
            "contract": "contracts/SubsidyDao.sol:SubsidyDao",
            "label": "approved",
            "offset": 8,
            "slot": "0",
            "type": "t_bool"
          },
          {
            "astId": 13995,
            "contract": "contracts/SubsidyDao.sol:SubsidyDao",
            "label": "ethAddress",
            "offset": 9,
            "slot": "0",
            "type": "t_address"
          }
        ],
        "numberOfBytes": "32"
      },
      "t_struct(RoleData)443_storage": {
        "encoding": "inplace",
        "label": "struct AccessControl.RoleData",
        "members": [
          {
            "astId": 440,
            "contract": "contracts/SubsidyDao.sol:SubsidyDao",
            "label": "hasRole",
            "offset": 0,
            "slot": "0",
            "type": "t_mapping(t_address,t_bool)"
          },
          {
            "astId": 442,
            "contract": "contracts/SubsidyDao.sol:SubsidyDao",
            "label": "adminRole",
            "offset": 0,
            "slot": "1",
            "type": "t_bytes32"
          }
        ],
        "numberOfBytes": "64"
      },
      "t_struct(StorageProviderWhitelistRequest)14008_storage": {
        "encoding": "inplace",
        "label": "struct SubsidyDaoTypes.StorageProviderWhitelistRequest",
        "members": [
          {
            "astId": 14003,
            "contract": "contracts/SubsidyDao.sol:SubsidyDao",
            "label": "storageProviderId",
            "offset": 0,
            "slot": "0",
            "type": "t_uint64"
          },
          {
            "astId": 14005,
            "contract": "contracts/SubsidyDao.sol:SubsidyDao",
            "label": "approved",
            "offset": 8,
            "slot": "0",
            "type": "t_bool"
          },
          {
            "astId": 14007,
            "contract": "contracts/SubsidyDao.sol:SubsidyDao",
            "label": "ethAddress",
            "offset": 9,
            "slot": "0",
            "type": "t_address"
          }
        ],
        "numberOfBytes": "32"
      },
      "t_uint256": {
        "encoding": "inplace",
        "label": "uint256",
        "numberOfBytes": "32"
      },
      "t_uint64": {
        "encoding": "inplace",
        "label": "uint64",
        "numberOfBytes": "8"
      }
    }
  }
}